{
  "_format": "hh-sol-artifact-1",
  "contractName": "ERC721",
  "sourceName": "contracts/Voting.sol",
  "abi": [
    {
      "inputs": [
        {
          "internalType": "string",
          "name": "name_",
          "type": "string"
        },
        {
          "internalType": "string",
          "name": "symbol_",
          "type": "string"
        }
      ],
      "stateMutability": "nonpayable",
      "type": "constructor"
    },
    {
      "anonymous": false,
      "inputs": [
        {
          "indexed": true,
          "internalType": "address",
          "name": "owner",
          "type": "address"
        },
        {
          "indexed": true,
          "internalType": "address",
          "name": "approved",
          "type": "address"
        },
        {
          "indexed": true,
          "internalType": "uint256",
          "name": "tokenId",
          "type": "uint256"
        }
      ],
      "name": "Approval",
      "type": "event"
    },
    {
      "anonymous": false,
      "inputs": [
        {
          "indexed": true,
          "internalType": "address",
          "name": "owner",
          "type": "address"
        },
        {
          "indexed": true,
          "internalType": "address",
          "name": "operator",
          "type": "address"
        },
        {
          "indexed": false,
          "internalType": "bool",
          "name": "approved",
          "type": "bool"
        }
      ],
      "name": "ApprovalForAll",
      "type": "event"
    },
    {
      "anonymous": false,
      "inputs": [
        {
          "indexed": true,
          "internalType": "address",
          "name": "from",
          "type": "address"
        },
        {
          "indexed": true,
          "internalType": "address",
          "name": "to",
          "type": "address"
        },
        {
          "indexed": true,
          "internalType": "uint256",
          "name": "tokenId",
          "type": "uint256"
        }
      ],
      "name": "Transfer",
      "type": "event"
    },
    {
      "inputs": [
        {
          "internalType": "address",
          "name": "to",
          "type": "address"
        },
        {
          "internalType": "uint256",
          "name": "tokenId",
          "type": "uint256"
        }
      ],
      "name": "approve",
      "outputs": [],
      "stateMutability": "nonpayable",
      "type": "function"
    },
    {
      "inputs": [
        {
          "internalType": "address",
          "name": "owner",
          "type": "address"
        }
      ],
      "name": "balanceOf",
      "outputs": [
        {
          "internalType": "uint256",
          "name": "",
          "type": "uint256"
        }
      ],
      "stateMutability": "view",
      "type": "function"
    },
    {
      "inputs": [
        {
          "internalType": "uint256",
          "name": "tokenId",
          "type": "uint256"
        }
      ],
      "name": "getApproved",
      "outputs": [
        {
          "internalType": "address",
          "name": "",
          "type": "address"
        }
      ],
      "stateMutability": "view",
      "type": "function"
    },
    {
      "inputs": [
        {
          "internalType": "address",
          "name": "owner",
          "type": "address"
        },
        {
          "internalType": "address",
          "name": "operator",
          "type": "address"
        }
      ],
      "name": "isApprovedForAll",
      "outputs": [
        {
          "internalType": "bool",
          "name": "",
          "type": "bool"
        }
      ],
      "stateMutability": "view",
      "type": "function"
    },
    {
      "inputs": [],
      "name": "name",
      "outputs": [
        {
          "internalType": "string",
          "name": "",
          "type": "string"
        }
      ],
      "stateMutability": "view",
      "type": "function"
    },
    {
      "inputs": [
        {
          "internalType": "uint256",
          "name": "tokenId",
          "type": "uint256"
        }
      ],
      "name": "ownerOf",
      "outputs": [
        {
          "internalType": "address",
          "name": "",
          "type": "address"
        }
      ],
      "stateMutability": "view",
      "type": "function"
    },
    {
      "inputs": [
        {
          "internalType": "address",
          "name": "operator",
          "type": "address"
        },
        {
          "internalType": "bool",
          "name": "approved",
          "type": "bool"
        }
      ],
      "name": "setApprovalForAll",
      "outputs": [],
      "stateMutability": "nonpayable",
      "type": "function"
    },
    {
      "inputs": [
        {
          "internalType": "bytes4",
          "name": "interfaceId",
          "type": "bytes4"
        }
      ],
      "name": "supportsInterface",
      "outputs": [
        {
          "internalType": "bool",
          "name": "",
          "type": "bool"
        }
      ],
      "stateMutability": "view",
      "type": "function"
    },
    {
      "inputs": [],
      "name": "symbol",
      "outputs": [
        {
          "internalType": "string",
          "name": "",
          "type": "string"
        }
      ],
      "stateMutability": "view",
      "type": "function"
    },
    {
      "inputs": [
        {
          "internalType": "uint256",
          "name": "tokenId",
          "type": "uint256"
        }
      ],
      "name": "tokenURI",
      "outputs": [
        {
          "internalType": "string",
          "name": "",
          "type": "string"
        }
      ],
      "stateMutability": "view",
      "type": "function"
    }
  ],
  "bytecode": "0x60806040523480156200001157600080fd5b5060405162001acf38038062001acf833981810160405281019062000037919062000193565b81600090805190602001906200004f92919062000071565b5080600190805190602001906200006892919062000071565b50505062000376565b8280546200007f906200029b565b90600052602060002090601f016020900481019282620000a35760008555620000ef565b82601f10620000be57805160ff1916838001178555620000ef565b82800160010185558215620000ef579182015b82811115620000ee578251825591602001919060010190620000d1565b5b509050620000fe919062000102565b5090565b5b808211156200011d57600081600090555060010162000103565b5090565b60006200013862000132846200022f565b62000206565b9050828152602081018484840111156200015157600080fd5b6200015e84828562000265565b509392505050565b600082601f8301126200017857600080fd5b81516200018a84826020860162000121565b91505092915050565b60008060408385031215620001a757600080fd5b600083015167ffffffffffffffff811115620001c257600080fd5b620001d08582860162000166565b925050602083015167ffffffffffffffff811115620001ee57600080fd5b620001fc8582860162000166565b9150509250929050565b60006200021262000225565b9050620002208282620002d1565b919050565b6000604051905090565b600067ffffffffffffffff8211156200024d576200024c62000336565b5b620002588262000365565b9050602081019050919050565b60005b838110156200028557808201518184015260208101905062000268565b8381111562000295576000848401525b50505050565b60006002820490506001821680620002b457607f821691505b60208210811415620002cb57620002ca62000307565b5b50919050565b620002dc8262000365565b810181811067ffffffffffffffff82111715620002fe57620002fd62000336565b5b80604052505050565b7f4e487b7100000000000000000000000000000000000000000000000000000000600052602260045260246000fd5b7f4e487b7100000000000000000000000000000000000000000000000000000000600052604160045260246000fd5b6000601f19601f8301169050919050565b61174980620003866000396000f3fe608060405234801561001057600080fd5b506004361061009e5760003560e01c806370a082311161006657806370a082311461016d57806395d89b411461019d578063a22cb465146101bb578063c87b56dd146101d7578063e985e9c5146102075761009e565b806301ffc9a7146100a357806306fdde03146100d3578063081812fc146100f1578063095ea7b3146101215780636352211e1461013d575b600080fd5b6100bd60048036038101906100b89190610e8c565b610237565b6040516100ca91906110a9565b60405180910390f35b6100db610319565b6040516100e891906110c4565b60405180910390f35b61010b60048036038101906101069190610eb5565b6103ab565b604051610118919061108e565b60405180910390f35b61013b60048036038101906101369190610e50565b610430565b005b61015760048036038101906101529190610eb5565b610548565b604051610164919061108e565b60405180910390f35b61018760048036038101906101829190610daf565b6105fa565b60405161019491906111c6565b60405180910390f35b6101a56106b2565b6040516101b291906110c4565b60405180910390f35b6101d560048036038101906101d09190610e14565b610744565b005b6101f160048036038101906101ec9190610eb5565b6108c5565b6040516101fe91906110c4565b60405180910390f35b610221600480360381019061021c9190610dd8565b61096c565b60405161022e91906110a9565b60405180910390f35b60007f591d4bc0000000000000000000000000000000000000000000000000000000007bffffffffffffffffffffffffffffffffffffffffffffffffffffffff1916827bffffffffffffffffffffffffffffffffffffffffffffffffffffffff1916148061030257507f5b5e139f000000000000000000000000000000000000000000000000000000007bffffffffffffffffffffffffffffffffffffffffffffffffffffffff1916827bffffffffffffffffffffffffffffffffffffffffffffffffffffffff1916145b80610312575061031182610a00565b5b9050919050565b6060600080546103289061136a565b80601f01602080910402602001604051908101604052809291908181526020018280546103549061136a565b80156103a15780601f10610376576101008083540402835291602001916103a1565b820191906000526020600020905b81548152906001019060200180831161038457829003601f168201915b5050505050905090565b60006103b682610a6a565b6103f5576040517f08c379a00000000000000000000000000000000000000000000000000000000081526004016103ec90611166565b60405180910390fd5b6004600083815260200190815260200160002060009054906101000a900473ffffffffffffffffffffffffffffffffffffffff169050919050565b600061043b82610548565b90508073ffffffffffffffffffffffffffffffffffffffff168373ffffffffffffffffffffffffffffffffffffffff1614156104ac576040517f08c379a00000000000000000000000000000000000000000000000000000000081526004016104a3906111a6565b60405180910390fd5b8073ffffffffffffffffffffffffffffffffffffffff166104cb610ad6565b73ffffffffffffffffffffffffffffffffffffffff1614806104fa57506104f9816104f4610ad6565b61096c565b5b610539576040517f08c379a000000000000000000000000000000000000000000000000000000000815260040161053090611106565b60405180910390fd5b6105438383610ade565b505050565b6000806002600084815260200190815260200160002060009054906101000a900473ffffffffffffffffffffffffffffffffffffffff169050600073ffffffffffffffffffffffffffffffffffffffff168173ffffffffffffffffffffffffffffffffffffffff1614156105f1576040517f08c379a00000000000000000000000000000000000000000000000000000000081526004016105e890611146565b60405180910390fd5b80915050919050565b60008073ffffffffffffffffffffffffffffffffffffffff168273ffffffffffffffffffffffffffffffffffffffff16141561066b576040517f08c379a000000000000000000000000000000000000000000000000000000000815260040161066290611126565b60405180910390fd5b600360008373ffffffffffffffffffffffffffffffffffffffff1673ffffffffffffffffffffffffffffffffffffffff168152602001908152602001600020549050919050565b6060600180546106c19061136a565b80601f01602080910402602001604051908101604052809291908181526020018280546106ed9061136a565b801561073a5780601f1061070f5761010080835404028352916020019161073a565b820191906000526020600020905b81548152906001019060200180831161071d57829003601f168201915b5050505050905090565b61074c610ad6565b73ffffffffffffffffffffffffffffffffffffffff168273ffffffffffffffffffffffffffffffffffffffff1614156107ba576040517f08c379a00000000000000000000000000000000000000000000000000000000081526004016107b1906110e6565b60405180910390fd5b80600560006107c7610ad6565b73ffffffffffffffffffffffffffffffffffffffff1673ffffffffffffffffffffffffffffffffffffffff16815260200190815260200160002060008473ffffffffffffffffffffffffffffffffffffffff1673ffffffffffffffffffffffffffffffffffffffff16815260200190815260200160002060006101000a81548160ff0219169083151502179055508173ffffffffffffffffffffffffffffffffffffffff16610874610ad6565b73ffffffffffffffffffffffffffffffffffffffff167f17307eab39ab6107e8899845ad3d59bd9653f200f220920489ca2b5937696c31836040516108b991906110a9565b60405180910390a35050565b60606108d082610a6a565b61090f576040517f08c379a000000000000000000000000000000000000000000000000000000000815260040161090690611186565b60405180910390fd5b6000610919610b97565b905060008151116109395760405180602001604052806000815250610964565b8061094384610bae565b60405160200161095492919061106a565b6040516020818303038152906040525b915050919050565b6000600560008473ffffffffffffffffffffffffffffffffffffffff1673ffffffffffffffffffffffffffffffffffffffff16815260200190815260200160002060008373ffffffffffffffffffffffffffffffffffffffff1673ffffffffffffffffffffffffffffffffffffffff16815260200190815260200160002060009054906101000a900460ff16905092915050565b60007f01ffc9a7000000000000000000000000000000000000000000000000000000007bffffffffffffffffffffffffffffffffffffffffffffffffffffffff1916827bffffffffffffffffffffffffffffffffffffffffffffffffffffffff1916149050919050565b60008073ffffffffffffffffffffffffffffffffffffffff166002600084815260200190815260200160002060009054906101000a900473ffffffffffffffffffffffffffffffffffffffff1673ffffffffffffffffffffffffffffffffffffffff1614159050919050565b600033905090565b816004600083815260200190815260200160002060006101000a81548173ffffffffffffffffffffffffffffffffffffffff021916908373ffffffffffffffffffffffffffffffffffffffff160217905550808273ffffffffffffffffffffffffffffffffffffffff16610b5183610548565b73ffffffffffffffffffffffffffffffffffffffff167f8c5be1e5ebec7d5bd14f71427d1e84f3dd0314c0f7b2291e5b200ac8c7c3b92560405160405180910390a45050565b606060405180602001604052806000815250905090565b60606000821415610bf6576040518060400160405280600181526020017f30000000000000000000000000000000000000000000000000000000000000008152509050610d56565b600082905060005b60008214610c28578080610c119061139c565b915050600a82610c21919061125e565b9150610bfe565b60008167ffffffffffffffff811115610c6a577f4e487b7100000000000000000000000000000000000000000000000000000000600052604160045260246000fd5b6040519080825280601f01601f191660200182016040528015610c9c5781602001600182028036833780820191505090505b5090505b60008514610d4f57600182610cb5919061128f565b9150600a85610cc491906113e5565b6030610cd09190611208565b60f81b818381518110610d0c577f4e487b7100000000000000000000000000000000000000000000000000000000600052603260045260246000fd5b60200101907effffffffffffffffffffffffffffffffffffffffffffffffffffffffffffff1916908160001a905350600a85610d48919061125e565b9450610ca0565b8093505050505b919050565b600081359050610d6a816116b7565b92915050565b600081359050610d7f816116ce565b92915050565b600081359050610d94816116e5565b92915050565b600081359050610da9816116fc565b92915050565b600060208284031215610dc157600080fd5b6000610dcf84828501610d5b565b91505092915050565b60008060408385031215610deb57600080fd5b6000610df985828601610d5b565b9250506020610e0a85828601610d5b565b9150509250929050565b60008060408385031215610e2757600080fd5b6000610e3585828601610d5b565b9250506020610e4685828601610d70565b9150509250929050565b60008060408385031215610e6357600080fd5b6000610e7185828601610d5b565b9250506020610e8285828601610d9a565b9150509250929050565b600060208284031215610e9e57600080fd5b6000610eac84828501610d85565b91505092915050565b600060208284031215610ec757600080fd5b6000610ed584828501610d9a565b91505092915050565b610ee7816112c3565b82525050565b610ef6816112d5565b82525050565b6000610f07826111e1565b610f1181856111ec565b9350610f21818560208601611337565b610f2a816114a3565b840191505092915050565b6000610f40826111e1565b610f4a81856111fd565b9350610f5a818560208601611337565b80840191505092915050565b6000610f736019836111ec565b9150610f7e826114b4565b602082019050919050565b6000610f966038836111ec565b9150610fa1826114dd565b604082019050919050565b6000610fb9602a836111ec565b9150610fc48261152c565b604082019050919050565b6000610fdc6029836111ec565b9150610fe78261157b565b604082019050919050565b6000610fff602c836111ec565b915061100a826115ca565b604082019050919050565b6000611022602f836111ec565b915061102d82611619565b604082019050919050565b60006110456021836111ec565b915061105082611668565b604082019050919050565b6110648161132d565b82525050565b60006110768285610f35565b91506110828284610f35565b91508190509392505050565b60006020820190506110a36000830184610ede565b92915050565b60006020820190506110be6000830184610eed565b92915050565b600060208201905081810360008301526110de8184610efc565b905092915050565b600060208201905081810360008301526110ff81610f66565b9050919050565b6000602082019050818103600083015261111f81610f89565b9050919050565b6000602082019050818103600083015261113f81610fac565b9050919050565b6000602082019050818103600083015261115f81610fcf565b9050919050565b6000602082019050818103600083015261117f81610ff2565b9050919050565b6000602082019050818103600083015261119f81611015565b9050919050565b600060208201905081810360008301526111bf81611038565b9050919050565b60006020820190506111db600083018461105b565b92915050565b600081519050919050565b600082825260208201905092915050565b600081905092915050565b60006112138261132d565b915061121e8361132d565b9250827fffffffffffffffffffffffffffffffffffffffffffffffffffffffffffffffff0382111561125357611252611416565b5b828201905092915050565b60006112698261132d565b91506112748361132d565b92508261128457611283611445565b5b828204905092915050565b600061129a8261132d565b91506112a58361132d565b9250828210156112b8576112b7611416565b5b828203905092915050565b60006112ce8261130d565b9050919050565b60008115159050919050565b60007fffffffff0000000000000000000000000000000000000000000000000000000082169050919050565b600073ffffffffffffffffffffffffffffffffffffffff82169050919050565b6000819050919050565b60005b8381101561135557808201518184015260208101905061133a565b83811115611364576000848401525b50505050565b6000600282049050600182168061138257607f821691505b6020821081141561139657611395611474565b5b50919050565b60006113a78261132d565b91507fffffffffffffffffffffffffffffffffffffffffffffffffffffffffffffffff8214156113da576113d9611416565b5b600182019050919050565b60006113f08261132d565b91506113fb8361132d565b92508261140b5761140a611445565b5b828206905092915050565b7f4e487b7100000000000000000000000000000000000000000000000000000000600052601160045260246000fd5b7f4e487b7100000000000000000000000000000000000000000000000000000000600052601260045260246000fd5b7f4e487b7100000000000000000000000000000000000000000000000000000000600052602260045260246000fd5b6000601f19601f8301169050919050565b7f4552433732313a20617070726f766520746f2063616c6c657200000000000000600082015250565b7f4552433732313a20617070726f76652063616c6c6572206973206e6f74206f7760008201527f6e6572206e6f7220617070726f76656420666f7220616c6c0000000000000000602082015250565b7f4552433732313a2062616c616e636520717565727920666f7220746865207a6560008201527f726f206164647265737300000000000000000000000000000000000000000000602082015250565b7f4552433732313a206f776e657220717565727920666f72206e6f6e657869737460008201527f656e7420746f6b656e0000000000000000000000000000000000000000000000602082015250565b7f4552433732313a20617070726f76656420717565727920666f72206e6f6e657860008201527f697374656e7420746f6b656e0000000000000000000000000000000000000000602082015250565b7f4552433732314d657461646174613a2055524920717565727920666f72206e6f60008201527f6e6578697374656e7420746f6b656e0000000000000000000000000000000000602082015250565b7f4552433732313a20617070726f76616c20746f2063757272656e74206f776e6560008201527f7200000000000000000000000000000000000000000000000000000000000000602082015250565b6116c0816112c3565b81146116cb57600080fd5b50565b6116d7816112d5565b81146116e257600080fd5b50565b6116ee816112e1565b81146116f957600080fd5b50565b6117058161132d565b811461171057600080fd5b5056fea2646970667358221220c6b980f7df4a725402b6b197745fb4e8e4902f5088cd7087d72c5e8f6dce8b4d64736f6c63430008030033",
  "linkReferences": {},
  "deployedLinkReferences": {}
}