{
  "_format": "hh-sol-artifact-1",
  "contractName": "MyToken",
  "sourceName": "contracts/Voting.sol",
  "abi": [
    {
      "inputs": [],
      "stateMutability": "nonpayable",
      "type": "constructor"
    },
    {
      "anonymous": false,
      "inputs": [
        {
          "indexed": true,
          "internalType": "address",
          "name": "owner",
          "type": "address"
        },
        {
          "indexed": true,
          "internalType": "address",
          "name": "approved",
          "type": "address"
        },
        {
          "indexed": true,
          "internalType": "uint256",
          "name": "tokenId",
          "type": "uint256"
        }
      ],
      "name": "Approval",
      "type": "event"
    },
    {
      "anonymous": false,
      "inputs": [
        {
          "indexed": true,
          "internalType": "address",
          "name": "owner",
          "type": "address"
        },
        {
          "indexed": true,
          "internalType": "address",
          "name": "operator",
          "type": "address"
        },
        {
          "indexed": false,
          "internalType": "bool",
          "name": "approved",
          "type": "bool"
        }
      ],
      "name": "ApprovalForAll",
      "type": "event"
    },
    {
      "anonymous": false,
      "inputs": [
        {
          "indexed": true,
          "internalType": "address",
          "name": "previousOwner",
          "type": "address"
        },
        {
          "indexed": true,
          "internalType": "address",
          "name": "newOwner",
          "type": "address"
        }
      ],
      "name": "OwnershipTransferred",
      "type": "event"
    },
    {
      "anonymous": false,
      "inputs": [
        {
          "indexed": true,
          "internalType": "address",
          "name": "from",
          "type": "address"
        },
        {
          "indexed": true,
          "internalType": "address",
          "name": "to",
          "type": "address"
        },
        {
          "indexed": true,
          "internalType": "uint256",
          "name": "tokenId",
          "type": "uint256"
        }
      ],
      "name": "Transfer",
      "type": "event"
    },
    {
      "anonymous": false,
      "inputs": [
        {
          "indexed": false,
          "internalType": "address",
          "name": "x",
          "type": "address"
        },
        {
          "indexed": false,
          "internalType": "uint256",
          "name": "y",
          "type": "uint256"
        }
      ],
      "name": "concluded",
      "type": "event"
    },
    {
      "inputs": [
        {
          "internalType": "address",
          "name": "_candidate",
          "type": "address"
        }
      ],
      "name": "addCandidates",
      "outputs": [],
      "stateMutability": "nonpayable",
      "type": "function"
    },
    {
      "inputs": [
        {
          "internalType": "address",
          "name": "to",
          "type": "address"
        },
        {
          "internalType": "uint256",
          "name": "tokenId",
          "type": "uint256"
        }
      ],
      "name": "approve",
      "outputs": [],
      "stateMutability": "nonpayable",
      "type": "function"
    },
    {
      "inputs": [
        {
          "internalType": "address",
          "name": "owner",
          "type": "address"
        }
      ],
      "name": "balanceOf",
      "outputs": [
        {
          "internalType": "uint256",
          "name": "",
          "type": "uint256"
        }
      ],
      "stateMutability": "view",
      "type": "function"
    },
    {
      "inputs": [
        {
          "internalType": "uint256",
          "name": "tokenId",
          "type": "uint256"
        }
      ],
      "name": "burn",
      "outputs": [],
      "stateMutability": "nonpayable",
      "type": "function"
    },
    {
      "inputs": [
        {
          "internalType": "uint256",
          "name": "",
          "type": "uint256"
        }
      ],
      "name": "candidates",
      "outputs": [
        {
          "internalType": "address",
          "name": "",
          "type": "address"
        }
      ],
      "stateMutability": "view",
      "type": "function"
    },
    {
      "inputs": [],
      "name": "conclude",
      "outputs": [],
      "stateMutability": "nonpayable",
      "type": "function"
    },
    {
      "inputs": [
        {
          "internalType": "uint256",
          "name": "tokenId",
          "type": "uint256"
        }
      ],
      "name": "getApproved",
      "outputs": [
        {
          "internalType": "address",
          "name": "",
          "type": "address"
        }
      ],
      "stateMutability": "view",
      "type": "function"
    },
    {
      "inputs": [],
      "name": "highestVotes",
      "outputs": [
        {
          "internalType": "address",
          "name": "",
          "type": "address"
        },
        {
          "internalType": "uint256",
          "name": "",
          "type": "uint256"
        }
      ],
      "stateMutability": "view",
      "type": "function"
    },
    {
      "inputs": [
        {
          "internalType": "address",
          "name": "owner",
          "type": "address"
        },
        {
          "internalType": "address",
          "name": "operator",
          "type": "address"
        }
      ],
      "name": "isApprovedForAll",
      "outputs": [
        {
          "internalType": "bool",
          "name": "",
          "type": "bool"
        }
      ],
      "stateMutability": "view",
      "type": "function"
    },
    {
      "inputs": [],
      "name": "name",
      "outputs": [
        {
          "internalType": "string",
          "name": "",
          "type": "string"
        }
      ],
      "stateMutability": "view",
      "type": "function"
    },
    {
      "inputs": [],
      "name": "owner",
      "outputs": [
        {
          "internalType": "address",
          "name": "",
          "type": "address"
        }
      ],
      "stateMutability": "view",
      "type": "function"
    },
    {
      "inputs": [
        {
          "internalType": "uint256",
          "name": "tokenId",
          "type": "uint256"
        }
      ],
      "name": "ownerOf",
      "outputs": [
        {
          "internalType": "address",
          "name": "",
          "type": "address"
        }
      ],
      "stateMutability": "view",
      "type": "function"
    },
    {
      "inputs": [],
      "name": "renounceOwnership",
      "outputs": [],
      "stateMutability": "nonpayable",
      "type": "function"
    },
    {
      "inputs": [
        {
          "internalType": "address",
          "name": "to",
          "type": "address"
        }
      ],
      "name": "safeMint",
      "outputs": [],
      "stateMutability": "nonpayable",
      "type": "function"
    },
    {
      "inputs": [
        {
          "internalType": "address",
          "name": "from",
          "type": "address"
        },
        {
          "internalType": "address",
          "name": "to",
          "type": "address"
        },
        {
          "internalType": "uint256",
          "name": "tokenId",
          "type": "uint256"
        }
      ],
      "name": "safeTransferFrom",
      "outputs": [],
      "stateMutability": "nonpayable",
      "type": "function"
    },
    {
      "inputs": [
        {
          "internalType": "address",
          "name": "from",
          "type": "address"
        },
        {
          "internalType": "address",
          "name": "to",
          "type": "address"
        },
        {
          "internalType": "uint256",
          "name": "tokenId",
          "type": "uint256"
        },
        {
          "internalType": "bytes",
          "name": "_data",
          "type": "bytes"
        }
      ],
      "name": "safeTransferFrom",
      "outputs": [],
      "stateMutability": "nonpayable",
      "type": "function"
    },
    {
      "inputs": [
        {
          "internalType": "address",
          "name": "operator",
          "type": "address"
        },
        {
          "internalType": "bool",
          "name": "approved",
          "type": "bool"
        }
      ],
      "name": "setApprovalForAll",
      "outputs": [],
      "stateMutability": "nonpayable",
      "type": "function"
    },
    {
      "inputs": [
        {
          "internalType": "bytes4",
          "name": "interfaceId",
          "type": "bytes4"
        }
      ],
      "name": "supportsInterface",
      "outputs": [
        {
          "internalType": "bool",
          "name": "",
          "type": "bool"
        }
      ],
      "stateMutability": "view",
      "type": "function"
    },
    {
      "inputs": [],
      "name": "symbol",
      "outputs": [
        {
          "internalType": "string",
          "name": "",
          "type": "string"
        }
      ],
      "stateMutability": "view",
      "type": "function"
    },
    {
      "inputs": [
        {
          "internalType": "uint256",
          "name": "tokenId",
          "type": "uint256"
        }
      ],
      "name": "tokenURI",
      "outputs": [
        {
          "internalType": "string",
          "name": "",
          "type": "string"
        }
      ],
      "stateMutability": "view",
      "type": "function"
    },
    {
      "inputs": [
        {
          "internalType": "address",
          "name": "from",
          "type": "address"
        },
        {
          "internalType": "address",
          "name": "to",
          "type": "address"
        },
        {
          "internalType": "uint256",
          "name": "tokenId",
          "type": "uint256"
        }
      ],
      "name": "transferFrom",
      "outputs": [],
      "stateMutability": "nonpayable",
      "type": "function"
    },
    {
      "inputs": [
        {
          "internalType": "address",
          "name": "newOwner",
          "type": "address"
        }
      ],
      "name": "transferOwnership",
      "outputs": [],
      "stateMutability": "nonpayable",
      "type": "function"
    },
    {
      "inputs": [
        {
          "internalType": "address",
          "name": "_candidateAddress",
          "type": "address"
        }
      ],
      "name": "votesForCandidate",
      "outputs": [
        {
          "internalType": "uint256",
          "name": "",
          "type": "uint256"
        }
      ],
      "stateMutability": "view",
      "type": "function"
    },
    {
      "inputs": [],
      "name": "winner",
      "outputs": [
        {
          "internalType": "address",
          "name": "",
          "type": "address"
        }
      ],
      "stateMutability": "view",
      "type": "function"
    }
  ],
  "bytecode": "0x60806040526001600960146101000a81548160ff0219169083151502179055503480156200002c57600080fd5b506040518060400160405280600681526020017f42616c6c6f7400000000000000000000000000000000000000000000000000008152506040518060400160405280600381526020017f42414c00000000000000000000000000000000000000000000000000000000008152508160009080519060200190620000b1929190620001c1565b508060019080519060200190620000ca929190620001c1565b505050620000ed620000e1620000f360201b60201c565b620000fb60201b60201c565b620002d6565b600033905090565b6000600660009054906101000a900473ffffffffffffffffffffffffffffffffffffffff16905081600660006101000a81548173ffffffffffffffffffffffffffffffffffffffff021916908373ffffffffffffffffffffffffffffffffffffffff1602179055508173ffffffffffffffffffffffffffffffffffffffff168173ffffffffffffffffffffffffffffffffffffffff167f8be0079c531659141344cd1fd0a4f28419497f9722a3daafe3b4186f6b6457e060405160405180910390a35050565b828054620001cf9062000271565b90600052602060002090601f016020900481019282620001f357600085556200023f565b82601f106200020e57805160ff19168380011785556200023f565b828001600101855582156200023f579182015b828111156200023e57825182559160200191906001019062000221565b5b5090506200024e919062000252565b5090565b5b808211156200026d57600081600090555060010162000253565b5090565b600060028204905060018216806200028a57607f821691505b60208210811415620002a157620002a0620002a7565b5b50919050565b7f4e487b7100000000000000000000000000000000000000000000000000000000600052602260045260246000fd5b61367d80620002e66000396000f3fe608060405234801561001057600080fd5b50600436106101585760003560e01c80636456cb0a116100c3578063b88d4fde1161007c578063b88d4fde146103c4578063c87b56dd146103e0578063dfbf53ae14610410578063e5f929731461042e578063e985e9c514610438578063f2fde38b1461046857610158565b80636456cb0a1461031357806370a0823114610332578063715018a6146103625780638da5cb5b1461036c57806395d89b411461038a578063a22cb465146103a857610158565b80633477ee2e116101155780633477ee2e1461022f5780633bc565341461025f57806340d097c31461028f57806342842e0e146102ab57806342966c68146102c75780636352211e146102e357610158565b806301ffc9a71461015d57806306fdde031461018d578063081812fc146101ab57806308e49a88146101db578063095ea7b3146101f757806323b872dd14610213575b600080fd5b610177600480360381019061017291906125b7565b610484565b6040516101849190612a4f565b60405180910390f35b610195610566565b6040516101a29190612a6a565b60405180910390f35b6101c560048036038101906101c09190612609565b6105f8565b6040516101d291906129bf565b60405180910390f35b6101f560048036038101906101f09190612410565b61067d565b005b610211600480360381019061020c919061257b565b6107ae565b005b61022d60048036038101906102289190612475565b6108c6565b005b61024960048036038101906102449190612609565b610926565b60405161025691906129bf565b60405180910390f35b61027960048036038101906102749190612410565b610965565b6040516102869190612cec565b60405180910390f35b6102a960048036038101906102a49190612410565b6109c6565b005b6102c560048036038101906102c09190612475565b610a62565b005b6102e160048036038101906102dc9190612609565b610a82565b005b6102fd60048036038101906102f89190612609565b610ade565b60405161030a91906129bf565b60405180910390f35b61031b610b90565b604051610329929190612a26565b60405180910390f35b61034c60048036038101906103479190612410565b610e03565b6040516103599190612cec565b60405180910390f35b61036a610ebb565b005b610374610f43565b60405161038191906129bf565b60405180910390f35b610392610f6d565b60405161039f9190612a6a565b60405180910390f35b6103c260048036038101906103bd919061253f565b610fff565b005b6103de60048036038101906103d991906124c4565b611180565b005b6103fa60048036038101906103f59190612609565b6111e2565b6040516104079190612a6a565b60405180910390f35b610418611289565b60405161042591906129bf565b60405180910390f35b6104366112af565b005b610452600480360381019061044d9190612439565b6113f6565b60405161045f9190612a4f565b60405180910390f35b610482600480360381019061047d9190612410565b61148a565b005b60007f80ac58cd000000000000000000000000000000000000000000000000000000007bffffffffffffffffffffffffffffffffffffffffffffffffffffffff1916827bffffffffffffffffffffffffffffffffffffffffffffffffffffffff1916148061054f57507f5b5e139f000000000000000000000000000000000000000000000000000000007bffffffffffffffffffffffffffffffffffffffffffffffffffffffff1916827bffffffffffffffffffffffffffffffffffffffffffffffffffffffff1916145b8061055f575061055e82611582565b5b9050919050565b60606000805461057590612f1e565b80601f01602080910402602001604051908101604052809291908181526020018280546105a190612f1e565b80156105ee5780601f106105c3576101008083540402835291602001916105ee565b820191906000526020600020905b8154815290600101906020018083116105d157829003601f168201915b5050505050905090565b6000610603826115ec565b610642576040517f08c379a000000000000000000000000000000000000000000000000000000000815260040161063990612bec565b60405180910390fd5b6004600083815260200190815260200160002060009054906101000a900473ffffffffffffffffffffffffffffffffffffffff169050919050565b610685611658565b73ffffffffffffffffffffffffffffffffffffffff166106a3610f43565b73ffffffffffffffffffffffffffffffffffffffff16146106f9576040517f08c379a00000000000000000000000000000000000000000000000000000000081526004016106f090612c0c565b60405180910390fd5b6000151561070682611660565b151514610748576040517f08c379a000000000000000000000000000000000000000000000000000000000815260040161073f90612bcc565b60405180910390fd5b6008819080600181540180825580915050600190039060005260206000200160009091909190916101000a81548173ffffffffffffffffffffffffffffffffffffffff021916908373ffffffffffffffffffffffffffffffffffffffff16021790555050565b60006107b982610ade565b90508073ffffffffffffffffffffffffffffffffffffffff168373ffffffffffffffffffffffffffffffffffffffff16141561082a576040517f08c379a000000000000000000000000000000000000000000000000000000000815260040161082190612c6c565b60405180910390fd5b8073ffffffffffffffffffffffffffffffffffffffff16610849611658565b73ffffffffffffffffffffffffffffffffffffffff161480610878575061087781610872611658565b6113f6565b5b6108b7576040517f08c379a00000000000000000000000000000000000000000000000000000000081526004016108ae90612b4c565b60405180910390fd5b6108c1838361173b565b505050565b6108d76108d1611658565b826117f4565b610916576040517f08c379a000000000000000000000000000000000000000000000000000000000815260040161090d90612cac565b60405180910390fd5b6109218383836118d2565b505050565b6008818154811061093657600080fd5b906000526020600020016000915054906101000a900473ffffffffffffffffffffffffffffffffffffffff1681565b60006001151561097483611660565b1515146109b6576040517f08c379a00000000000000000000000000000000000000000000000000000000081526004016109ad90612c8c565b60405180910390fd5b6109bf82610e03565b9050919050565b6109ce611658565b73ffffffffffffffffffffffffffffffffffffffff166109ec610f43565b73ffffffffffffffffffffffffffffffffffffffff1614610a42576040517f08c379a0000000000000000000000000000000000000000000000000000000008152600401610a3990612c0c565b60405180910390fd5b610a5581610a506007611b2e565b611b3c565b610a5f6007611b5a565b50565b610a7d83838360405180602001604052806000815250611180565b505050565b610a93610a8d611658565b826117f4565b610ad2576040517f08c379a0000000000000000000000000000000000000000000000000000000008152600401610ac990612ccc565b60405180910390fd5b610adb81611b70565b50565b6000806002600084815260200190815260200160002060009054906101000a900473ffffffffffffffffffffffffffffffffffffffff169050600073ffffffffffffffffffffffffffffffffffffffff168173ffffffffffffffffffffffffffffffffffffffff161415610b87576040517f08c379a0000000000000000000000000000000000000000000000000000000008152600401610b7e90612b8c565b60405180910390fd5b80915050919050565b600080600060088054905090506000610c0d6008600081548110610bdd577f4e487b7100000000000000000000000000000000000000000000000000000000600052603260045260246000fd5b9060005260206000200160009054906101000a900473ffffffffffffffffffffffffffffffffffffffff16610e03565b9050600080600190505b8360ff168160ff161015610cbc576000610c9760088360ff1681548110610c67577f4e487b7100000000000000000000000000000000000000000000000000000000600052603260045260246000fd5b9060005260206000200160009054906101000a900473ffffffffffffffffffffffffffffffffffffffff16610e03565b905083811115610ca8578192508093505b508080610cb490612fca565b915050610c17565b506000805b8460ff168160ff161015610d8c576000610d4160088360ff1681548110610d11577f4e487b7100000000000000000000000000000000000000000000000000000000600052603260045260246000fd5b9060005260206000200160009054906101000a900473ffffffffffffffffffffffffffffffffffffffff16610e03565b905084811415610d5a578280610d5690612fca565b9350505b60018360ff161115610d785760008597509750505050505050610dff565b508080610d8490612fca565b915050610cc1565b5060088260ff1681548110610dca577f4e487b7100000000000000000000000000000000000000000000000000000000600052603260045260246000fd5b9060005260206000200160009054906101000a900473ffffffffffffffffffffffffffffffffffffffff168395509550505050505b9091565b60008073ffffffffffffffffffffffffffffffffffffffff168273ffffffffffffffffffffffffffffffffffffffff161415610e74576040517f08c379a0000000000000000000000000000000000000000000000000000000008152600401610e6b90612b6c565b60405180910390fd5b600360008373ffffffffffffffffffffffffffffffffffffffff1673ffffffffffffffffffffffffffffffffffffffff168152602001908152602001600020549050919050565b610ec3611658565b73ffffffffffffffffffffffffffffffffffffffff16610ee1610f43565b73ffffffffffffffffffffffffffffffffffffffff1614610f37576040517f08c379a0000000000000000000000000000000000000000000000000000000008152600401610f2e90612c0c565b60405180910390fd5b610f416000611c81565b565b6000600660009054906101000a900473ffffffffffffffffffffffffffffffffffffffff16905090565b606060018054610f7c90612f1e565b80601f0160208091040260200160405190810160405280929190818152602001828054610fa890612f1e565b8015610ff55780601f10610fca57610100808354040283529160200191610ff5565b820191906000526020600020905b815481529060010190602001808311610fd857829003601f168201915b5050505050905090565b611007611658565b73ffffffffffffffffffffffffffffffffffffffff168273ffffffffffffffffffffffffffffffffffffffff161415611075576040517f08c379a000000000000000000000000000000000000000000000000000000000815260040161106c90612b0c565b60405180910390fd5b8060056000611082611658565b73ffffffffffffffffffffffffffffffffffffffff1673ffffffffffffffffffffffffffffffffffffffff16815260200190815260200160002060008473ffffffffffffffffffffffffffffffffffffffff1673ffffffffffffffffffffffffffffffffffffffff16815260200190815260200160002060006101000a81548160ff0219169083151502179055508173ffffffffffffffffffffffffffffffffffffffff1661112f611658565b73ffffffffffffffffffffffffffffffffffffffff167f17307eab39ab6107e8899845ad3d59bd9653f200f220920489ca2b5937696c31836040516111749190612a4f565b60405180910390a35050565b61119161118b611658565b836117f4565b6111d0576040517f08c379a00000000000000000000000000000000000000000000000000000000081526004016111c790612cac565b60405180910390fd5b6111dc84848484611d47565b50505050565b60606111ed826115ec565b61122c576040517f08c379a000000000000000000000000000000000000000000000000000000000815260040161122390612c4c565b60405180910390fd5b6000611236611da3565b905060008151116112565760405180602001604052806000815250611281565b8061126084611dba565b60405160200161127192919061299b565b6040516020818303038152906040525b915050919050565b600960009054906101000a900473ffffffffffffffffffffffffffffffffffffffff1681565b6112b7611658565b73ffffffffffffffffffffffffffffffffffffffff166112d5610f43565b73ffffffffffffffffffffffffffffffffffffffff161461132b576040517f08c379a000000000000000000000000000000000000000000000000000000000815260040161132290612c0c565b60405180910390fd5b6000600960146101000a81548160ff0219169083151502179055506000611350610b90565b600960008294508391906101000a81548173ffffffffffffffffffffffffffffffffffffffff021916908373ffffffffffffffffffffffffffffffffffffffff16021790555050507ff264144310cc722e9c5878f1409aaa6a459e675ca4726380887865e00d34d2fa600960009054906101000a900473ffffffffffffffffffffffffffffffffffffffff16826040516113eb929190612a26565b60405180910390a150565b6000600560008473ffffffffffffffffffffffffffffffffffffffff1673ffffffffffffffffffffffffffffffffffffffff16815260200190815260200160002060008373ffffffffffffffffffffffffffffffffffffffff1673ffffffffffffffffffffffffffffffffffffffff16815260200190815260200160002060009054906101000a900460ff16905092915050565b611492611658565b73ffffffffffffffffffffffffffffffffffffffff166114b0610f43565b73ffffffffffffffffffffffffffffffffffffffff1614611506576040517f08c379a00000000000000000000000000000000000000000000000000000000081526004016114fd90612c0c565b60405180910390fd5b600073ffffffffffffffffffffffffffffffffffffffff168173ffffffffffffffffffffffffffffffffffffffff161415611576576040517f08c379a000000000000000000000000000000000000000000000000000000000815260040161156d90612aac565b60405180910390fd5b61157f81611c81565b50565b60007f01ffc9a7000000000000000000000000000000000000000000000000000000007bffffffffffffffffffffffffffffffffffffffffffffffffffffffff1916827bffffffffffffffffffffffffffffffffffffffffffffffffffffffff1916149050919050565b60008073ffffffffffffffffffffffffffffffffffffffff166002600084815260200190815260200160002060009054906101000a900473ffffffffffffffffffffffffffffffffffffffff1673ffffffffffffffffffffffffffffffffffffffff1614159050919050565b600033905090565b600080600880549050905060005b8160ff1681101561172f57600881815481106116b3577f4e487b7100000000000000000000000000000000000000000000000000000000600052603260045260246000fd5b9060005260206000200160009054906101000a900473ffffffffffffffffffffffffffffffffffffffff1673ffffffffffffffffffffffffffffffffffffffff168473ffffffffffffffffffffffffffffffffffffffff16141561171c57600192505050611736565b808061172790612f81565b91505061166e565b5060009150505b919050565b816004600083815260200190815260200160002060006101000a81548173ffffffffffffffffffffffffffffffffffffffff021916908373ffffffffffffffffffffffffffffffffffffffff160217905550808273ffffffffffffffffffffffffffffffffffffffff166117ae83610ade565b73ffffffffffffffffffffffffffffffffffffffff167f8c5be1e5ebec7d5bd14f71427d1e84f3dd0314c0f7b2291e5b200ac8c7c3b92560405160405180910390a45050565b60006117ff826115ec565b61183e576040517f08c379a000000000000000000000000000000000000000000000000000000000815260040161183590612b2c565b60405180910390fd5b600061184983610ade565b90508073ffffffffffffffffffffffffffffffffffffffff168473ffffffffffffffffffffffffffffffffffffffff1614806118b857508373ffffffffffffffffffffffffffffffffffffffff166118a0846105f8565b73ffffffffffffffffffffffffffffffffffffffff16145b806118c957506118c881856113f6565b5b91505092915050565b8273ffffffffffffffffffffffffffffffffffffffff166118f282610ade565b73ffffffffffffffffffffffffffffffffffffffff1614611948576040517f08c379a000000000000000000000000000000000000000000000000000000000815260040161193f90612c2c565b60405180910390fd5b600073ffffffffffffffffffffffffffffffffffffffff168273ffffffffffffffffffffffffffffffffffffffff1614156119b8576040517f08c379a00000000000000000000000000000000000000000000000000000000081526004016119af90612aec565b60405180910390fd5b6119c3838383611f67565b6119ce60008261173b565b6001600360008573ffffffffffffffffffffffffffffffffffffffff1673ffffffffffffffffffffffffffffffffffffffff1681526020019081526020016000206000828254611a1e9190612e27565b925050819055506001600360008473ffffffffffffffffffffffffffffffffffffffff1673ffffffffffffffffffffffffffffffffffffffff1681526020019081526020016000206000828254611a759190612da0565b92505081905550816002600083815260200190815260200160002060006101000a81548173ffffffffffffffffffffffffffffffffffffffff021916908373ffffffffffffffffffffffffffffffffffffffff160217905550808273ffffffffffffffffffffffffffffffffffffffff168473ffffffffffffffffffffffffffffffffffffffff167fddf252ad1be2c89b69c2b068fc378daa952ba7f163c4a11628f55a4df523b3ef60405160405180910390a4505050565b600081600001549050919050565b611b56828260405180602001604052806000815250611f6c565b5050565b6001816000016000828254019250508190555050565b6000611b7b82610ade565b9050611b8981600084611f67565b611b9460008361173b565b6001600360008373ffffffffffffffffffffffffffffffffffffffff1673ffffffffffffffffffffffffffffffffffffffff1681526020019081526020016000206000828254611be49190612e27565b925050819055506002600083815260200190815260200160002060006101000a81549073ffffffffffffffffffffffffffffffffffffffff021916905581600073ffffffffffffffffffffffffffffffffffffffff168273ffffffffffffffffffffffffffffffffffffffff167fddf252ad1be2c89b69c2b068fc378daa952ba7f163c4a11628f55a4df523b3ef60405160405180910390a45050565b6000600660009054906101000a900473ffffffffffffffffffffffffffffffffffffffff16905081600660006101000a81548173ffffffffffffffffffffffffffffffffffffffff021916908373ffffffffffffffffffffffffffffffffffffffff1602179055508173ffffffffffffffffffffffffffffffffffffffff168173ffffffffffffffffffffffffffffffffffffffff167f8be0079c531659141344cd1fd0a4f28419497f9722a3daafe3b4186f6b6457e060405160405180910390a35050565b611d528484846118d2565b611d5e84848484611fc7565b611d9d576040517f08c379a0000000000000000000000000000000000000000000000000000000008152600401611d9490612a8c565b60405180910390fd5b50505050565b606060405180602001604052806000815250905090565b60606000821415611e02576040518060400160405280600181526020017f30000000000000000000000000000000000000000000000000000000000000008152509050611f62565b600082905060005b60008214611e34578080611e1d90612f81565b915050600a82611e2d9190612df6565b9150611e0a565b60008167ffffffffffffffff811115611e76577f4e487b7100000000000000000000000000000000000000000000000000000000600052604160045260246000fd5b6040519080825280601f01601f191660200182016040528015611ea85781602001600182028036833780820191505090505b5090505b60008514611f5b57600182611ec19190612e27565b9150600a85611ed09190612ff4565b6030611edc9190612da0565b60f81b818381518110611f18577f4e487b7100000000000000000000000000000000000000000000000000000000600052603260045260246000fd5b60200101907effffffffffffffffffffffffffffffffffffffffffffffffffffffffffffff1916908160001a905350600a85611f549190612df6565b9450611eac565b8093505050505b919050565b505050565b611f76838361215e565b611f836000848484611fc7565b611fc2576040517f08c379a0000000000000000000000000000000000000000000000000000000008152600401611fb990612a8c565b60405180910390fd5b505050565b6000611fe88473ffffffffffffffffffffffffffffffffffffffff1661232c565b15612151578373ffffffffffffffffffffffffffffffffffffffff1663150b7a02612011611658565b8786866040518563ffffffff1660e01b815260040161203394939291906129da565b602060405180830381600087803b15801561204d57600080fd5b505af192505050801561207e57506040513d601f19601f8201168201806040525081019061207b91906125e0565b60015b612101573d80600081146120ae576040519150601f19603f3d011682016040523d82523d6000602084013e6120b3565b606091505b506000815114156120f9576040517f08c379a00000000000000000000000000000000000000000000000000000000081526004016120f090612a8c565b60405180910390fd5b805181602001fd5b63150b7a0260e01b7bffffffffffffffffffffffffffffffffffffffffffffffffffffffff1916817bffffffffffffffffffffffffffffffffffffffffffffffffffffffff191614915050612156565b600190505b949350505050565b600073ffffffffffffffffffffffffffffffffffffffff168273ffffffffffffffffffffffffffffffffffffffff1614156121ce576040517f08c379a00000000000000000000000000000000000000000000000000000000081526004016121c590612bac565b60405180910390fd5b6121d7816115ec565b15612217576040517f08c379a000000000000000000000000000000000000000000000000000000000815260040161220e90612acc565b60405180910390fd5b61222360008383611f67565b6001600360008473ffffffffffffffffffffffffffffffffffffffff1673ffffffffffffffffffffffffffffffffffffffff16815260200190815260200160002060008282546122739190612da0565b92505081905550816002600083815260200190815260200160002060006101000a81548173ffffffffffffffffffffffffffffffffffffffff021916908373ffffffffffffffffffffffffffffffffffffffff160217905550808273ffffffffffffffffffffffffffffffffffffffff16600073ffffffffffffffffffffffffffffffffffffffff167fddf252ad1be2c89b69c2b068fc378daa952ba7f163c4a11628f55a4df523b3ef60405160405180910390a45050565b600080823b905060008111915050919050565b600061235261234d84612d2c565b612d07565b90508281526020810184848401111561236a57600080fd5b612375848285612edc565b509392505050565b60008135905061238c816135eb565b92915050565b6000813590506123a181613602565b92915050565b6000813590506123b681613619565b92915050565b6000815190506123cb81613619565b92915050565b600082601f8301126123e257600080fd5b81356123f284826020860161233f565b91505092915050565b60008135905061240a81613630565b92915050565b60006020828403121561242257600080fd5b60006124308482850161237d565b91505092915050565b6000806040838503121561244c57600080fd5b600061245a8582860161237d565b925050602061246b8582860161237d565b9150509250929050565b60008060006060848603121561248a57600080fd5b60006124988682870161237d565b93505060206124a98682870161237d565b92505060406124ba868287016123fb565b9150509250925092565b600080600080608085870312156124da57600080fd5b60006124e88782880161237d565b94505060206124f98782880161237d565b935050604061250a878288016123fb565b925050606085013567ffffffffffffffff81111561252757600080fd5b612533878288016123d1565b91505092959194509250565b6000806040838503121561255257600080fd5b60006125608582860161237d565b925050602061257185828601612392565b9150509250929050565b6000806040838503121561258e57600080fd5b600061259c8582860161237d565b92505060206125ad858286016123fb565b9150509250929050565b6000602082840312156125c957600080fd5b60006125d7848285016123a7565b91505092915050565b6000602082840312156125f257600080fd5b6000612600848285016123bc565b91505092915050565b60006020828403121561261b57600080fd5b6000612629848285016123fb565b91505092915050565b61263b81612e5b565b82525050565b61264a81612e6d565b82525050565b600061265b82612d5d565b6126658185612d73565b9350612675818560208601612eeb565b61267e816130e1565b840191505092915050565b600061269482612d68565b61269e8185612d84565b93506126ae818560208601612eeb565b6126b7816130e1565b840191505092915050565b60006126cd82612d68565b6126d78185612d95565b93506126e7818560208601612eeb565b80840191505092915050565b6000612700603283612d84565b915061270b826130f2565b604082019050919050565b6000612723602683612d84565b915061272e82613141565b604082019050919050565b6000612746601c83612d84565b915061275182613190565b602082019050919050565b6000612769602483612d84565b9150612774826131b9565b604082019050919050565b600061278c601983612d84565b915061279782613208565b602082019050919050565b60006127af602c83612d84565b91506127ba82613231565b604082019050919050565b60006127d2603883612d84565b91506127dd82613280565b604082019050919050565b60006127f5602a83612d84565b9150612800826132cf565b604082019050919050565b6000612818602983612d84565b91506128238261331e565b604082019050919050565b600061283b602083612d84565b91506128468261336d565b602082019050919050565b600061285e601083612d84565b915061286982613396565b602082019050919050565b6000612881602c83612d84565b915061288c826133bf565b604082019050919050565b60006128a4602083612d84565b91506128af8261340e565b602082019050919050565b60006128c7602983612d84565b91506128d282613437565b604082019050919050565b60006128ea602f83612d84565b91506128f582613486565b604082019050919050565b600061290d602183612d84565b9150612918826134d5565b604082019050919050565b6000612930601783612d84565b915061293b82613524565b602082019050919050565b6000612953603183612d84565b915061295e8261354d565b604082019050919050565b6000612976603083612d84565b91506129818261359c565b604082019050919050565b61299581612ec5565b82525050565b60006129a782856126c2565b91506129b382846126c2565b91508190509392505050565b60006020820190506129d46000830184612632565b92915050565b60006080820190506129ef6000830187612632565b6129fc6020830186612632565b612a09604083018561298c565b8181036060830152612a1b8184612650565b905095945050505050565b6000604082019050612a3b6000830185612632565b612a48602083018461298c565b9392505050565b6000602082019050612a646000830184612641565b92915050565b60006020820190508181036000830152612a848184612689565b905092915050565b60006020820190508181036000830152612aa5816126f3565b9050919050565b60006020820190508181036000830152612ac581612716565b9050919050565b60006020820190508181036000830152612ae581612739565b9050919050565b60006020820190508181036000830152612b058161275c565b9050919050565b60006020820190508181036000830152612b258161277f565b9050919050565b60006020820190508181036000830152612b45816127a2565b9050919050565b60006020820190508181036000830152612b65816127c5565b9050919050565b60006020820190508181036000830152612b85816127e8565b9050919050565b60006020820190508181036000830152612ba58161280b565b9050919050565b60006020820190508181036000830152612bc58161282e565b9050919050565b60006020820190508181036000830152612be581612851565b9050919050565b60006020820190508181036000830152612c0581612874565b9050919050565b60006020820190508181036000830152612c2581612897565b9050919050565b60006020820190508181036000830152612c45816128ba565b9050919050565b60006020820190508181036000830152612c65816128dd565b9050919050565b60006020820190508181036000830152612c8581612900565b9050919050565b60006020820190508181036000830152612ca581612923565b9050919050565b60006020820190508181036000830152612cc581612946565b9050919050565b60006020820190508181036000830152612ce581612969565b9050919050565b6000602082019050612d01600083018461298c565b92915050565b6000612d11612d22565b9050612d1d8282612f50565b919050565b6000604051905090565b600067ffffffffffffffff821115612d4757612d466130b2565b5b612d50826130e1565b9050602081019050919050565b600081519050919050565b600081519050919050565b600082825260208201905092915050565b600082825260208201905092915050565b600081905092915050565b6000612dab82612ec5565b9150612db683612ec5565b9250827fffffffffffffffffffffffffffffffffffffffffffffffffffffffffffffffff03821115612deb57612dea613025565b5b828201905092915050565b6000612e0182612ec5565b9150612e0c83612ec5565b925082612e1c57612e1b613054565b5b828204905092915050565b6000612e3282612ec5565b9150612e3d83612ec5565b925082821015612e5057612e4f613025565b5b828203905092915050565b6000612e6682612ea5565b9050919050565b60008115159050919050565b60007fffffffff0000000000000000000000000000000000000000000000000000000082169050919050565b600073ffffffffffffffffffffffffffffffffffffffff82169050919050565b6000819050919050565b600060ff82169050919050565b82818337600083830152505050565b60005b83811015612f09578082015181840152602081019050612eee565b83811115612f18576000848401525b50505050565b60006002820490506001821680612f3657607f821691505b60208210811415612f4a57612f49613083565b5b50919050565b612f59826130e1565b810181811067ffffffffffffffff82111715612f7857612f776130b2565b5b80604052505050565b6000612f8c82612ec5565b91507fffffffffffffffffffffffffffffffffffffffffffffffffffffffffffffffff821415612fbf57612fbe613025565b5b600182019050919050565b6000612fd582612ecf565b915060ff821415612fe957612fe8613025565b5b600182019050919050565b6000612fff82612ec5565b915061300a83612ec5565b92508261301a57613019613054565b5b828206905092915050565b7f4e487b7100000000000000000000000000000000000000000000000000000000600052601160045260246000fd5b7f4e487b7100000000000000000000000000000000000000000000000000000000600052601260045260246000fd5b7f4e487b7100000000000000000000000000000000000000000000000000000000600052602260045260246000fd5b7f4e487b7100000000000000000000000000000000000000000000000000000000600052604160045260246000fd5b6000601f19601f8301169050919050565b7f4552433732313a207472616e7366657220746f206e6f6e20455243373231526560008201527f63656976657220696d706c656d656e7465720000000000000000000000000000602082015250565b7f4f776e61626c653a206e6577206f776e657220697320746865207a65726f206160008201527f6464726573730000000000000000000000000000000000000000000000000000602082015250565b7f4552433732313a20746f6b656e20616c7265616479206d696e74656400000000600082015250565b7f4552433732313a207472616e7366657220746f20746865207a65726f2061646460008201527f7265737300000000000000000000000000000000000000000000000000000000602082015250565b7f4552433732313a20617070726f766520746f2063616c6c657200000000000000600082015250565b7f4552433732313a206f70657261746f7220717565727920666f72206e6f6e657860008201527f697374656e7420746f6b656e0000000000000000000000000000000000000000602082015250565b7f4552433732313a20617070726f76652063616c6c6572206973206e6f74206f7760008201527f6e6572206e6f7220617070726f76656420666f7220616c6c0000000000000000602082015250565b7f4552433732313a2062616c616e636520717565727920666f7220746865207a6560008201527f726f206164647265737300000000000000000000000000000000000000000000602082015250565b7f4552433732313a206f776e657220717565727920666f72206e6f6e657869737460008201527f656e7420746f6b656e0000000000000000000000000000000000000000000000602082015250565b7f4552433732313a206d696e7420746f20746865207a65726f2061646472657373600082015250565b7f43616e6469646174652045786973747300000000000000000000000000000000600082015250565b7f4552433732313a20617070726f76656420717565727920666f72206e6f6e657860008201527f697374656e7420746f6b656e0000000000000000000000000000000000000000602082015250565b7f4f776e61626c653a2063616c6c6572206973206e6f7420746865206f776e6572600082015250565b7f4552433732313a207472616e73666572206f6620746f6b656e2074686174206960008201527f73206e6f74206f776e0000000000000000000000000000000000000000000000602082015250565b7f4552433732314d657461646174613a2055524920717565727920666f72206e6f60008201527f6e6578697374656e7420746f6b656e0000000000000000000000000000000000602082015250565b7f4552433732313a20617070726f76616c20746f2063757272656e74206f776e6560008201527f7200000000000000000000000000000000000000000000000000000000000000602082015250565b7f43616e64696461746520446f65736e2774204578697374000000000000000000600082015250565b7f4552433732313a207472616e736665722063616c6c6572206973206e6f74206f60008201527f776e6572206e6f7220617070726f766564000000000000000000000000000000602082015250565b7f4552433732314275726e61626c653a2063616c6c6572206973206e6f74206f7760008201527f6e6572206e6f7220617070726f76656400000000000000000000000000000000602082015250565b6135f481612e5b565b81146135ff57600080fd5b50565b61360b81612e6d565b811461361657600080fd5b50565b61362281612e79565b811461362d57600080fd5b50565b61363981612ec5565b811461364457600080fd5b5056fea2646970667358221220c806b428f4206a7a4ac03f723b2b0148c02ac874c340f96883a2eb51397700ff64736f6c63430008030033",
  "linkReferences": {},
  "deployedLinkReferences": {}
}