{
  "_format": "hh-sol-artifact-1",
  "contractName": "MyToken",
  "sourceName": "contracts/Voting.sol",
  "abi": [
    {
      "inputs": [],
      "stateMutability": "nonpayable",
      "type": "constructor"
    },
    {
      "anonymous": false,
      "inputs": [
        {
          "indexed": true,
          "internalType": "address",
          "name": "owner",
          "type": "address"
        },
        {
          "indexed": true,
          "internalType": "address",
          "name": "approved",
          "type": "address"
        },
        {
          "indexed": true,
          "internalType": "uint256",
          "name": "tokenId",
          "type": "uint256"
        }
      ],
      "name": "Approval",
      "type": "event"
    },
    {
      "anonymous": false,
      "inputs": [
        {
          "indexed": true,
          "internalType": "address",
          "name": "owner",
          "type": "address"
        },
        {
          "indexed": true,
          "internalType": "address",
          "name": "operator",
          "type": "address"
        },
        {
          "indexed": false,
          "internalType": "bool",
          "name": "approved",
          "type": "bool"
        }
      ],
      "name": "ApprovalForAll",
      "type": "event"
    },
    {
      "anonymous": false,
      "inputs": [
        {
          "indexed": true,
          "internalType": "address",
          "name": "previousOwner",
          "type": "address"
        },
        {
          "indexed": true,
          "internalType": "address",
          "name": "newOwner",
          "type": "address"
        }
      ],
      "name": "OwnershipTransferred",
      "type": "event"
    },
    {
      "anonymous": false,
      "inputs": [
        {
          "indexed": true,
          "internalType": "address",
          "name": "from",
          "type": "address"
        },
        {
          "indexed": true,
          "internalType": "address",
          "name": "to",
          "type": "address"
        },
        {
          "indexed": true,
          "internalType": "uint256",
          "name": "tokenId",
          "type": "uint256"
        }
      ],
      "name": "Transfer",
      "type": "event"
    },
    {
      "anonymous": false,
      "inputs": [
        {
          "indexed": false,
          "internalType": "address",
          "name": "x",
          "type": "address"
        },
        {
          "indexed": false,
          "internalType": "uint256",
          "name": "y",
          "type": "uint256"
        }
      ],
      "name": "concluded",
      "type": "event"
    },
    {
      "inputs": [
        {
          "internalType": "address",
          "name": "_candidate",
          "type": "address"
        }
      ],
      "name": "addCandidates",
      "outputs": [],
      "stateMutability": "nonpayable",
      "type": "function"
    },
    {
      "inputs": [
        {
          "internalType": "address",
          "name": "to",
          "type": "address"
        },
        {
          "internalType": "uint256",
          "name": "tokenId",
          "type": "uint256"
        }
      ],
      "name": "approve",
      "outputs": [],
      "stateMutability": "nonpayable",
      "type": "function"
    },
    {
      "inputs": [
        {
          "internalType": "address",
          "name": "owner",
          "type": "address"
        }
      ],
      "name": "balanceOf",
      "outputs": [
        {
          "internalType": "uint256",
          "name": "",
          "type": "uint256"
        }
      ],
      "stateMutability": "view",
      "type": "function"
    },
    {
      "inputs": [
        {
          "internalType": "uint256",
          "name": "tokenId",
          "type": "uint256"
        }
      ],
      "name": "burn",
      "outputs": [],
      "stateMutability": "nonpayable",
      "type": "function"
    },
    {
      "inputs": [
        {
          "internalType": "uint256",
          "name": "",
          "type": "uint256"
        }
      ],
      "name": "candidates",
      "outputs": [
        {
          "internalType": "address",
          "name": "",
          "type": "address"
        }
      ],
      "stateMutability": "view",
      "type": "function"
    },
    {
      "inputs": [],
      "name": "conclude",
      "outputs": [],
      "stateMutability": "nonpayable",
      "type": "function"
    },
    {
      "inputs": [
        {
          "internalType": "uint256",
          "name": "tokenId",
          "type": "uint256"
        }
      ],
      "name": "getApproved",
      "outputs": [
        {
          "internalType": "address",
          "name": "",
          "type": "address"
        }
      ],
      "stateMutability": "view",
      "type": "function"
    },
    {
      "inputs": [],
      "name": "highestVotes",
      "outputs": [
        {
          "internalType": "address",
          "name": "",
          "type": "address"
        },
        {
          "internalType": "uint256",
          "name": "",
          "type": "uint256"
        }
      ],
      "stateMutability": "view",
      "type": "function"
    },
    {
      "inputs": [
        {
          "internalType": "address",
          "name": "owner",
          "type": "address"
        },
        {
          "internalType": "address",
          "name": "operator",
          "type": "address"
        }
      ],
      "name": "isApprovedForAll",
      "outputs": [
        {
          "internalType": "bool",
          "name": "",
          "type": "bool"
        }
      ],
      "stateMutability": "view",
      "type": "function"
    },
    {
      "inputs": [],
      "name": "name",
      "outputs": [
        {
          "internalType": "string",
          "name": "",
          "type": "string"
        }
      ],
      "stateMutability": "view",
      "type": "function"
    },
    {
      "inputs": [],
      "name": "owner",
      "outputs": [
        {
          "internalType": "address",
          "name": "",
          "type": "address"
        }
      ],
      "stateMutability": "view",
      "type": "function"
    },
    {
      "inputs": [
        {
          "internalType": "uint256",
          "name": "tokenId",
          "type": "uint256"
        }
      ],
      "name": "ownerOf",
      "outputs": [
        {
          "internalType": "address",
          "name": "",
          "type": "address"
        }
      ],
      "stateMutability": "view",
      "type": "function"
    },
    {
      "inputs": [],
      "name": "renounceOwnership",
      "outputs": [],
      "stateMutability": "nonpayable",
      "type": "function"
    },
    {
      "inputs": [
        {
          "internalType": "address",
          "name": "to",
          "type": "address"
        }
      ],
      "name": "safeMint",
      "outputs": [],
      "stateMutability": "nonpayable",
      "type": "function"
    },
    {
      "inputs": [
        {
          "internalType": "address",
          "name": "from",
          "type": "address"
        },
        {
          "internalType": "address",
          "name": "to",
          "type": "address"
        },
        {
          "internalType": "uint256",
          "name": "tokenId",
          "type": "uint256"
        }
      ],
      "name": "safeTransferFrom",
      "outputs": [],
      "stateMutability": "nonpayable",
      "type": "function"
    },
    {
      "inputs": [
        {
          "internalType": "address",
          "name": "from",
          "type": "address"
        },
        {
          "internalType": "address",
          "name": "to",
          "type": "address"
        },
        {
          "internalType": "uint256",
          "name": "tokenId",
          "type": "uint256"
        },
        {
          "internalType": "bytes",
          "name": "_data",
          "type": "bytes"
        }
      ],
      "name": "safeTransferFrom",
      "outputs": [],
      "stateMutability": "nonpayable",
      "type": "function"
    },
    {
      "inputs": [
        {
          "internalType": "address",
          "name": "operator",
          "type": "address"
        },
        {
          "internalType": "bool",
          "name": "approved",
          "type": "bool"
        }
      ],
      "name": "setApprovalForAll",
      "outputs": [],
      "stateMutability": "nonpayable",
      "type": "function"
    },
    {
      "inputs": [
        {
          "internalType": "bytes4",
          "name": "interfaceId",
          "type": "bytes4"
        }
      ],
      "name": "supportsInterface",
      "outputs": [
        {
          "internalType": "bool",
          "name": "",
          "type": "bool"
        }
      ],
      "stateMutability": "view",
      "type": "function"
    },
    {
      "inputs": [],
      "name": "symbol",
      "outputs": [
        {
          "internalType": "string",
          "name": "",
          "type": "string"
        }
      ],
      "stateMutability": "view",
      "type": "function"
    },
    {
      "inputs": [
        {
          "internalType": "uint256",
          "name": "tokenId",
          "type": "uint256"
        }
      ],
      "name": "tokenURI",
      "outputs": [
        {
          "internalType": "string",
          "name": "",
          "type": "string"
        }
      ],
      "stateMutability": "view",
      "type": "function"
    },
    {
      "inputs": [
        {
          "internalType": "address",
          "name": "from",
          "type": "address"
        },
        {
          "internalType": "address",
          "name": "to",
          "type": "address"
        },
        {
          "internalType": "uint256",
          "name": "tokenId",
          "type": "uint256"
        }
      ],
      "name": "transferFrom",
      "outputs": [],
      "stateMutability": "nonpayable",
      "type": "function"
    },
    {
      "inputs": [
        {
          "internalType": "address",
          "name": "newOwner",
          "type": "address"
        }
      ],
      "name": "transferOwnership",
      "outputs": [],
      "stateMutability": "nonpayable",
      "type": "function"
    },
    {
      "inputs": [
        {
          "internalType": "address",
          "name": "_candidateAddress",
          "type": "address"
        }
      ],
      "name": "vote",
      "outputs": [],
      "stateMutability": "nonpayable",
      "type": "function"
    },
    {
      "inputs": [
        {
          "internalType": "address",
          "name": "_candidateAddress",
          "type": "address"
        }
      ],
      "name": "votesForCandidate",
      "outputs": [
        {
          "internalType": "uint256",
          "name": "",
          "type": "uint256"
        }
      ],
      "stateMutability": "view",
      "type": "function"
    },
    {
      "inputs": [],
      "name": "winner",
      "outputs": [
        {
          "internalType": "address",
          "name": "",
          "type": "address"
        }
      ],
      "stateMutability": "view",
      "type": "function"
    }
  ],
  "bytecode": "0x60806040526001600a60146101000a81548160ff0219169083151502179055503480156200002c57600080fd5b506040518060400160405280600681526020017f42616c6c6f7400000000000000000000000000000000000000000000000000008152506040518060400160405280600381526020017f42414c00000000000000000000000000000000000000000000000000000000008152508160009080519060200190620000b1929190620001c1565b508060019080519060200190620000ca929190620001c1565b505050620000ed620000e1620000f360201b60201c565b620000fb60201b60201c565b620002d6565b600033905090565b6000600660009054906101000a900473ffffffffffffffffffffffffffffffffffffffff16905081600660006101000a81548173ffffffffffffffffffffffffffffffffffffffff021916908373ffffffffffffffffffffffffffffffffffffffff1602179055508173ffffffffffffffffffffffffffffffffffffffff168173ffffffffffffffffffffffffffffffffffffffff167f8be0079c531659141344cd1fd0a4f28419497f9722a3daafe3b4186f6b6457e060405160405180910390a35050565b828054620001cf9062000271565b90600052602060002090601f016020900481019282620001f357600085556200023f565b82601f106200020e57805160ff19168380011785556200023f565b828001600101855582156200023f579182015b828111156200023e57825182559160200191906001019062000221565b5b5090506200024e919062000252565b5090565b5b808211156200026d57600081600090555060010162000253565b5090565b600060028204905060018216806200028a57607f821691505b60208210811415620002a157620002a0620002a7565b5b50919050565b7f4e487b7100000000000000000000000000000000000000000000000000000000600052602260045260246000fd5b613a3b80620002e66000396000f3fe608060405234801561001057600080fd5b50600436106101735760003560e01c80636456cb0a116100de578063a22cb46511610097578063dfbf53ae11610071578063dfbf53ae14610447578063e5f9297314610465578063e985e9c51461046f578063f2fde38b1461049f57610173565b8063a22cb465146103df578063b88d4fde146103fb578063c87b56dd1461041757610173565b80636456cb0a1461032e5780636dd7d8ea1461034d57806370a0823114610369578063715018a6146103995780638da5cb5b146103a357806395d89b41146103c157610173565b80633477ee2e116101305780633477ee2e1461024a5780633bc565341461027a57806340d097c3146102aa57806342842e0e146102c657806342966c68146102e25780636352211e146102fe57610173565b806301ffc9a71461017857806306fdde03146101a8578063081812fc146101c657806308e49a88146101f6578063095ea7b31461021257806323b872dd1461022e575b600080fd5b610192600480360381019061018d91906127c5565b6104bb565b60405161019f9190612ce9565b60405180910390f35b6101b061059d565b6040516101bd9190612d04565b60405180910390f35b6101e060048036038101906101db9190612817565b61062f565b6040516101ed9190612c59565b60405180910390f35b610210600480360381019061020b919061261e565b6106b4565b005b61022c60048036038101906102279190612789565b6107e5565b005b61024860048036038101906102439190612683565b6108fd565b005b610264600480360381019061025f9190612817565b61095d565b6040516102719190612c59565b60405180910390f35b610294600480360381019061028f919061261e565b61099c565b6040516102a19190613006565b60405180910390f35b6102c460048036038101906102bf919061261e565b6109fd565b005b6102e060048036038101906102db9190612683565b610b2e565b005b6102fc60048036038101906102f79190612817565b610b4e565b005b61031860048036038101906103139190612817565b610baa565b6040516103259190612c59565b60405180910390f35b610336610c5c565b604051610344929190612cc0565b60405180910390f35b6103676004803603810190610362919061261e565b610ecf565b005b610383600480360381019061037e919061261e565b61100b565b6040516103909190613006565b60405180910390f35b6103a16110c3565b005b6103ab61114b565b6040516103b89190612c59565b60405180910390f35b6103c9611175565b6040516103d69190612d04565b60405180910390f35b6103f960048036038101906103f4919061274d565b611207565b005b610415600480360381019061041091906126d2565b611388565b005b610431600480360381019061042c9190612817565b6113ea565b60405161043e9190612d04565b60405180910390f35b61044f611491565b60405161045c9190612c59565b60405180910390f35b61046d6114b7565b005b61048960048036038101906104849190612647565b6115fe565b6040516104969190612ce9565b60405180910390f35b6104b960048036038101906104b4919061261e565b611692565b005b60007f80ac58cd000000000000000000000000000000000000000000000000000000007bffffffffffffffffffffffffffffffffffffffffffffffffffffffff1916827bffffffffffffffffffffffffffffffffffffffffffffffffffffffff1916148061058657507f5b5e139f000000000000000000000000000000000000000000000000000000007bffffffffffffffffffffffffffffffffffffffffffffffffffffffff1916827bffffffffffffffffffffffffffffffffffffffffffffffffffffffff1916145b8061059657506105958261178a565b5b9050919050565b6060600080546105ac90613238565b80601f01602080910402602001604051908101604052809291908181526020018280546105d890613238565b80156106255780601f106105fa57610100808354040283529160200191610625565b820191906000526020600020905b81548152906001019060200180831161060857829003601f168201915b5050505050905090565b600061063a826117f4565b610679576040517f08c379a000000000000000000000000000000000000000000000000000000000815260040161067090612ee6565b60405180910390fd5b6004600083815260200190815260200160002060009054906101000a900473ffffffffffffffffffffffffffffffffffffffff169050919050565b6106bc611860565b73ffffffffffffffffffffffffffffffffffffffff166106da61114b565b73ffffffffffffffffffffffffffffffffffffffff1614610730576040517f08c379a000000000000000000000000000000000000000000000000000000000815260040161072790612f06565b60405180910390fd5b6000151561073d82611868565b15151461077f576040517f08c379a000000000000000000000000000000000000000000000000000000000815260040161077690612ec6565b60405180910390fd5b6009819080600181540180825580915050600190039060005260206000200160009091909190916101000a81548173ffffffffffffffffffffffffffffffffffffffff021916908373ffffffffffffffffffffffffffffffffffffffff16021790555050565b60006107f082610baa565b90508073ffffffffffffffffffffffffffffffffffffffff168373ffffffffffffffffffffffffffffffffffffffff161415610861576040517f08c379a000000000000000000000000000000000000000000000000000000000815260040161085890612f66565b60405180910390fd5b8073ffffffffffffffffffffffffffffffffffffffff16610880611860565b73ffffffffffffffffffffffffffffffffffffffff1614806108af57506108ae816108a9611860565b6115fe565b5b6108ee576040517f08c379a00000000000000000000000000000000000000000000000000000000081526004016108e590612e46565b60405180910390fd5b6108f88383611949565b505050565b61090e610908611860565b82611a02565b61094d576040517f08c379a000000000000000000000000000000000000000000000000000000000815260040161094490612fa6565b60405180910390fd5b610958838383611ae0565b505050565b6009818154811061096d57600080fd5b906000526020600020016000915054906101000a900473ffffffffffffffffffffffffffffffffffffffff1681565b6000600115156109ab83611868565b1515146109ed576040517f08c379a00000000000000000000000000000000000000000000000000000000081526004016109e490612f86565b60405180910390fd5b6109f68261100b565b9050919050565b610a05611860565b73ffffffffffffffffffffffffffffffffffffffff16610a2361114b565b73ffffffffffffffffffffffffffffffffffffffff1614610a79576040517f08c379a0000000000000000000000000000000000000000000000000000000008152600401610a7090612f06565b60405180910390fd5b6000610a848261100b565b14610ac4576040517f08c379a0000000000000000000000000000000000000000000000000000000008152600401610abb90612da6565b60405180910390fd5b6000610ad06007611d3c565b9050610adc8282611d4a565b80600860008473ffffffffffffffffffffffffffffffffffffffff1673ffffffffffffffffffffffffffffffffffffffff16815260200190815260200160002081905550610b2a6007611d68565b5050565b610b4983838360405180602001604052806000815250611388565b505050565b610b5f610b59611860565b82611a02565b610b9e576040517f08c379a0000000000000000000000000000000000000000000000000000000008152600401610b9590612fe6565b60405180910390fd5b610ba781611d7e565b50565b6000806002600084815260200190815260200160002060009054906101000a900473ffffffffffffffffffffffffffffffffffffffff169050600073ffffffffffffffffffffffffffffffffffffffff168173ffffffffffffffffffffffffffffffffffffffff161415610c53576040517f08c379a0000000000000000000000000000000000000000000000000000000008152600401610c4a90612e86565b60405180910390fd5b80915050919050565b600080600060098054905090506000610cd96009600081548110610ca9577f4e487b7100000000000000000000000000000000000000000000000000000000600052603260045260246000fd5b9060005260206000200160009054906101000a900473ffffffffffffffffffffffffffffffffffffffff1661100b565b9050600080600190505b8360ff168160ff161015610d88576000610d6360098360ff1681548110610d33577f4e487b7100000000000000000000000000000000000000000000000000000000600052603260045260246000fd5b9060005260206000200160009054906101000a900473ffffffffffffffffffffffffffffffffffffffff1661100b565b905083811115610d74578192508093505b508080610d80906132e4565b915050610ce3565b506000805b8460ff168160ff161015610e58576000610e0d60098360ff1681548110610ddd577f4e487b7100000000000000000000000000000000000000000000000000000000600052603260045260246000fd5b9060005260206000200160009054906101000a900473ffffffffffffffffffffffffffffffffffffffff1661100b565b905084811415610e26578280610e22906132e4565b9350505b60018360ff161115610e445760008597509750505050505050610ecb565b508080610e50906132e4565b915050610d8d565b5060098260ff1681548110610e96577f4e487b7100000000000000000000000000000000000000000000000000000000600052603260045260246000fd5b9060005260206000200160009054906101000a900473ffffffffffffffffffffffffffffffffffffffff168395509550505050505b9091565b60011515610edc82611868565b151514610f1e576040517f08c379a0000000000000000000000000000000000000000000000000000000008152600401610f1590612fc6565b60405180910390fd5b6000610f293361100b565b11610f69576040517f08c379a0000000000000000000000000000000000000000000000000000000008152600401610f6090612d26565b60405180910390fd5b60001515610f7633611868565b151514610fb8576040517f08c379a0000000000000000000000000000000000000000000000000000000008152600401610faf90612e26565b60405180910390fd5b6000600860003373ffffffffffffffffffffffffffffffffffffffff1673ffffffffffffffffffffffffffffffffffffffff168152602001908152602001600020549050611007338383610b2e565b5050565b60008073ffffffffffffffffffffffffffffffffffffffff168273ffffffffffffffffffffffffffffffffffffffff16141561107c576040517f08c379a000000000000000000000000000000000000000000000000000000000815260040161107390612e66565b60405180910390fd5b600360008373ffffffffffffffffffffffffffffffffffffffff1673ffffffffffffffffffffffffffffffffffffffff168152602001908152602001600020549050919050565b6110cb611860565b73ffffffffffffffffffffffffffffffffffffffff166110e961114b565b73ffffffffffffffffffffffffffffffffffffffff161461113f576040517f08c379a000000000000000000000000000000000000000000000000000000000815260040161113690612f06565b60405180910390fd5b6111496000611e8f565b565b6000600660009054906101000a900473ffffffffffffffffffffffffffffffffffffffff16905090565b60606001805461118490613238565b80601f01602080910402602001604051908101604052809291908181526020018280546111b090613238565b80156111fd5780601f106111d2576101008083540402835291602001916111fd565b820191906000526020600020905b8154815290600101906020018083116111e057829003601f168201915b5050505050905090565b61120f611860565b73ffffffffffffffffffffffffffffffffffffffff168273ffffffffffffffffffffffffffffffffffffffff16141561127d576040517f08c379a000000000000000000000000000000000000000000000000000000000815260040161127490612de6565b60405180910390fd5b806005600061128a611860565b73ffffffffffffffffffffffffffffffffffffffff1673ffffffffffffffffffffffffffffffffffffffff16815260200190815260200160002060008473ffffffffffffffffffffffffffffffffffffffff1673ffffffffffffffffffffffffffffffffffffffff16815260200190815260200160002060006101000a81548160ff0219169083151502179055508173ffffffffffffffffffffffffffffffffffffffff16611337611860565b73ffffffffffffffffffffffffffffffffffffffff167f17307eab39ab6107e8899845ad3d59bd9653f200f220920489ca2b5937696c318360405161137c9190612ce9565b60405180910390a35050565b611399611393611860565b83611a02565b6113d8576040517f08c379a00000000000000000000000000000000000000000000000000000000081526004016113cf90612fa6565b60405180910390fd5b6113e484848484611f55565b50505050565b60606113f5826117f4565b611434576040517f08c379a000000000000000000000000000000000000000000000000000000000815260040161142b90612f46565b60405180910390fd5b600061143e611fb1565b9050600081511161145e5760405180602001604052806000815250611489565b8061146884611fc8565b604051602001611479929190612c35565b6040516020818303038152906040525b915050919050565b600a60009054906101000a900473ffffffffffffffffffffffffffffffffffffffff1681565b6114bf611860565b73ffffffffffffffffffffffffffffffffffffffff166114dd61114b565b73ffffffffffffffffffffffffffffffffffffffff1614611533576040517f08c379a000000000000000000000000000000000000000000000000000000000815260040161152a90612f06565b60405180910390fd5b6000600a60146101000a81548160ff0219169083151502179055506000611558610c5c565b600a60008294508391906101000a81548173ffffffffffffffffffffffffffffffffffffffff021916908373ffffffffffffffffffffffffffffffffffffffff16021790555050507ff264144310cc722e9c5878f1409aaa6a459e675ca4726380887865e00d34d2fa600a60009054906101000a900473ffffffffffffffffffffffffffffffffffffffff16826040516115f3929190612cc0565b60405180910390a150565b6000600560008473ffffffffffffffffffffffffffffffffffffffff1673ffffffffffffffffffffffffffffffffffffffff16815260200190815260200160002060008373ffffffffffffffffffffffffffffffffffffffff1673ffffffffffffffffffffffffffffffffffffffff16815260200190815260200160002060009054906101000a900460ff16905092915050565b61169a611860565b73ffffffffffffffffffffffffffffffffffffffff166116b861114b565b73ffffffffffffffffffffffffffffffffffffffff161461170e576040517f08c379a000000000000000000000000000000000000000000000000000000000815260040161170590612f06565b60405180910390fd5b600073ffffffffffffffffffffffffffffffffffffffff168173ffffffffffffffffffffffffffffffffffffffff16141561177e576040517f08c379a000000000000000000000000000000000000000000000000000000000815260040161177590612d66565b60405180910390fd5b61178781611e8f565b50565b60007f01ffc9a7000000000000000000000000000000000000000000000000000000007bffffffffffffffffffffffffffffffffffffffffffffffffffffffff1916827bffffffffffffffffffffffffffffffffffffffffffffffffffffffff1916149050919050565b60008073ffffffffffffffffffffffffffffffffffffffff166002600084815260200190815260200160002060009054906101000a900473ffffffffffffffffffffffffffffffffffffffff1673ffffffffffffffffffffffffffffffffffffffff1614159050919050565b600033905090565b600080600980549050905060005b8160ff168160ff16101561193d5760098160ff16815481106118c1577f4e487b7100000000000000000000000000000000000000000000000000000000600052603260045260246000fd5b9060005260206000200160009054906101000a900473ffffffffffffffffffffffffffffffffffffffff1673ffffffffffffffffffffffffffffffffffffffff168473ffffffffffffffffffffffffffffffffffffffff16141561192a57600192505050611944565b8080611935906132e4565b915050611876565b5060009150505b919050565b816004600083815260200190815260200160002060006101000a81548173ffffffffffffffffffffffffffffffffffffffff021916908373ffffffffffffffffffffffffffffffffffffffff160217905550808273ffffffffffffffffffffffffffffffffffffffff166119bc83610baa565b73ffffffffffffffffffffffffffffffffffffffff167f8c5be1e5ebec7d5bd14f71427d1e84f3dd0314c0f7b2291e5b200ac8c7c3b92560405160405180910390a45050565b6000611a0d826117f4565b611a4c576040517f08c379a0000000000000000000000000000000000000000000000000000000008152600401611a4390612e06565b60405180910390fd5b6000611a5783610baa565b90508073ffffffffffffffffffffffffffffffffffffffff168473ffffffffffffffffffffffffffffffffffffffff161480611ac657508373ffffffffffffffffffffffffffffffffffffffff16611aae8461062f565b73ffffffffffffffffffffffffffffffffffffffff16145b80611ad75750611ad681856115fe565b5b91505092915050565b8273ffffffffffffffffffffffffffffffffffffffff16611b0082610baa565b73ffffffffffffffffffffffffffffffffffffffff1614611b56576040517f08c379a0000000000000000000000000000000000000000000000000000000008152600401611b4d90612f26565b60405180910390fd5b600073ffffffffffffffffffffffffffffffffffffffff168273ffffffffffffffffffffffffffffffffffffffff161415611bc6576040517f08c379a0000000000000000000000000000000000000000000000000000000008152600401611bbd90612dc6565b60405180910390fd5b611bd1838383612175565b611bdc600082611949565b6001600360008573ffffffffffffffffffffffffffffffffffffffff1673ffffffffffffffffffffffffffffffffffffffff1681526020019081526020016000206000828254611c2c9190613141565b925050819055506001600360008473ffffffffffffffffffffffffffffffffffffffff1673ffffffffffffffffffffffffffffffffffffffff1681526020019081526020016000206000828254611c8391906130ba565b92505081905550816002600083815260200190815260200160002060006101000a81548173ffffffffffffffffffffffffffffffffffffffff021916908373ffffffffffffffffffffffffffffffffffffffff160217905550808273ffffffffffffffffffffffffffffffffffffffff168473ffffffffffffffffffffffffffffffffffffffff167fddf252ad1be2c89b69c2b068fc378daa952ba7f163c4a11628f55a4df523b3ef60405160405180910390a4505050565b600081600001549050919050565b611d6482826040518060200160405280600081525061217a565b5050565b6001816000016000828254019250508190555050565b6000611d8982610baa565b9050611d9781600084612175565b611da2600083611949565b6001600360008373ffffffffffffffffffffffffffffffffffffffff1673ffffffffffffffffffffffffffffffffffffffff1681526020019081526020016000206000828254611df29190613141565b925050819055506002600083815260200190815260200160002060006101000a81549073ffffffffffffffffffffffffffffffffffffffff021916905581600073ffffffffffffffffffffffffffffffffffffffff168273ffffffffffffffffffffffffffffffffffffffff167fddf252ad1be2c89b69c2b068fc378daa952ba7f163c4a11628f55a4df523b3ef60405160405180910390a45050565b6000600660009054906101000a900473ffffffffffffffffffffffffffffffffffffffff16905081600660006101000a81548173ffffffffffffffffffffffffffffffffffffffff021916908373ffffffffffffffffffffffffffffffffffffffff1602179055508173ffffffffffffffffffffffffffffffffffffffff168173ffffffffffffffffffffffffffffffffffffffff167f8be0079c531659141344cd1fd0a4f28419497f9722a3daafe3b4186f6b6457e060405160405180910390a35050565b611f60848484611ae0565b611f6c848484846121d5565b611fab576040517f08c379a0000000000000000000000000000000000000000000000000000000008152600401611fa290612d46565b60405180910390fd5b50505050565b606060405180602001604052806000815250905090565b60606000821415612010576040518060400160405280600181526020017f30000000000000000000000000000000000000000000000000000000000000008152509050612170565b600082905060005b6000821461204257808061202b9061329b565b915050600a8261203b9190613110565b9150612018565b60008167ffffffffffffffff811115612084577f4e487b7100000000000000000000000000000000000000000000000000000000600052604160045260246000fd5b6040519080825280601f01601f1916602001820160405280156120b65781602001600182028036833780820191505090505b5090505b60008514612169576001826120cf9190613141565b9150600a856120de919061330e565b60306120ea91906130ba565b60f81b818381518110612126577f4e487b7100000000000000000000000000000000000000000000000000000000600052603260045260246000fd5b60200101907effffffffffffffffffffffffffffffffffffffffffffffffffffffffffffff1916908160001a905350600a856121629190613110565b94506120ba565b8093505050505b919050565b505050565b612184838361236c565b61219160008484846121d5565b6121d0576040517f08c379a00000000000000000000000000000000000000000000000000000000081526004016121c790612d46565b60405180910390fd5b505050565b60006121f68473ffffffffffffffffffffffffffffffffffffffff1661253a565b1561235f578373ffffffffffffffffffffffffffffffffffffffff1663150b7a0261221f611860565b8786866040518563ffffffff1660e01b81526004016122419493929190612c74565b602060405180830381600087803b15801561225b57600080fd5b505af192505050801561228c57506040513d601f19601f8201168201806040525081019061228991906127ee565b60015b61230f573d80600081146122bc576040519150601f19603f3d011682016040523d82523d6000602084013e6122c1565b606091505b50600081511415612307576040517f08c379a00000000000000000000000000000000000000000000000000000000081526004016122fe90612d46565b60405180910390fd5b805181602001fd5b63150b7a0260e01b7bffffffffffffffffffffffffffffffffffffffffffffffffffffffff1916817bffffffffffffffffffffffffffffffffffffffffffffffffffffffff191614915050612364565b600190505b949350505050565b600073ffffffffffffffffffffffffffffffffffffffff168273ffffffffffffffffffffffffffffffffffffffff1614156123dc576040517f08c379a00000000000000000000000000000000000000000000000000000000081526004016123d390612ea6565b60405180910390fd5b6123e5816117f4565b15612425576040517f08c379a000000000000000000000000000000000000000000000000000000000815260040161241c90612d86565b60405180910390fd5b61243160008383612175565b6001600360008473ffffffffffffffffffffffffffffffffffffffff1673ffffffffffffffffffffffffffffffffffffffff168152602001908152602001600020600082825461248191906130ba565b92505081905550816002600083815260200190815260200160002060006101000a81548173ffffffffffffffffffffffffffffffffffffffff021916908373ffffffffffffffffffffffffffffffffffffffff160217905550808273ffffffffffffffffffffffffffffffffffffffff16600073ffffffffffffffffffffffffffffffffffffffff167fddf252ad1be2c89b69c2b068fc378daa952ba7f163c4a11628f55a4df523b3ef60405160405180910390a45050565b600080823b905060008111915050919050565b600061256061255b84613046565b613021565b90508281526020810184848401111561257857600080fd5b6125838482856131f6565b509392505050565b60008135905061259a816139a9565b92915050565b6000813590506125af816139c0565b92915050565b6000813590506125c4816139d7565b92915050565b6000815190506125d9816139d7565b92915050565b600082601f8301126125f057600080fd5b813561260084826020860161254d565b91505092915050565b600081359050612618816139ee565b92915050565b60006020828403121561263057600080fd5b600061263e8482850161258b565b91505092915050565b6000806040838503121561265a57600080fd5b60006126688582860161258b565b92505060206126798582860161258b565b9150509250929050565b60008060006060848603121561269857600080fd5b60006126a68682870161258b565b93505060206126b78682870161258b565b92505060406126c886828701612609565b9150509250925092565b600080600080608085870312156126e857600080fd5b60006126f68782880161258b565b94505060206127078782880161258b565b935050604061271887828801612609565b925050606085013567ffffffffffffffff81111561273557600080fd5b612741878288016125df565b91505092959194509250565b6000806040838503121561276057600080fd5b600061276e8582860161258b565b925050602061277f858286016125a0565b9150509250929050565b6000806040838503121561279c57600080fd5b60006127aa8582860161258b565b92505060206127bb85828601612609565b9150509250929050565b6000602082840312156127d757600080fd5b60006127e5848285016125b5565b91505092915050565b60006020828403121561280057600080fd5b600061280e848285016125ca565b91505092915050565b60006020828403121561282957600080fd5b600061283784828501612609565b91505092915050565b61284981613175565b82525050565b61285881613187565b82525050565b600061286982613077565b612873818561308d565b9350612883818560208601613205565b61288c816133fb565b840191505092915050565b60006128a282613082565b6128ac818561309e565b93506128bc818560208601613205565b6128c5816133fb565b840191505092915050565b60006128db82613082565b6128e581856130af565b93506128f5818560208601613205565b80840191505092915050565b600061290e600a8361309e565b91506129198261340c565b602082019050919050565b600061293160328361309e565b915061293c82613435565b604082019050919050565b600061295460268361309e565b915061295f82613484565b604082019050919050565b6000612977601c8361309e565b9150612982826134d3565b602082019050919050565b600061299a600c8361309e565b91506129a5826134fc565b602082019050919050565b60006129bd60248361309e565b91506129c882613525565b604082019050919050565b60006129e060198361309e565b91506129eb82613574565b602082019050919050565b6000612a03602c8361309e565b9150612a0e8261359d565b604082019050919050565b6000612a2660168361309e565b9150612a31826135ec565b602082019050919050565b6000612a4960388361309e565b9150612a5482613615565b604082019050919050565b6000612a6c602a8361309e565b9150612a7782613664565b604082019050919050565b6000612a8f60298361309e565b9150612a9a826136b3565b604082019050919050565b6000612ab260208361309e565b9150612abd82613702565b602082019050919050565b6000612ad560108361309e565b9150612ae08261372b565b602082019050919050565b6000612af8602c8361309e565b9150612b0382613754565b604082019050919050565b6000612b1b60208361309e565b9150612b26826137a3565b602082019050919050565b6000612b3e60298361309e565b9150612b49826137cc565b604082019050919050565b6000612b61602f8361309e565b9150612b6c8261381b565b604082019050919050565b6000612b8460218361309e565b9150612b8f8261386a565b604082019050919050565b6000612ba760178361309e565b9150612bb2826138b9565b602082019050919050565b6000612bca60318361309e565b9150612bd5826138e2565b604082019050919050565b6000612bed60118361309e565b9150612bf882613931565b602082019050919050565b6000612c1060308361309e565b9150612c1b8261395a565b604082019050919050565b612c2f816131df565b82525050565b6000612c4182856128d0565b9150612c4d82846128d0565b91508190509392505050565b6000602082019050612c6e6000830184612840565b92915050565b6000608082019050612c896000830187612840565b612c966020830186612840565b612ca36040830185612c26565b8181036060830152612cb5818461285e565b905095945050505050565b6000604082019050612cd56000830185612840565b612ce26020830184612c26565b9392505050565b6000602082019050612cfe600083018461284f565b92915050565b60006020820190508181036000830152612d1e8184612897565b905092915050565b60006020820190508181036000830152612d3f81612901565b9050919050565b60006020820190508181036000830152612d5f81612924565b9050919050565b60006020820190508181036000830152612d7f81612947565b9050919050565b60006020820190508181036000830152612d9f8161296a565b9050919050565b60006020820190508181036000830152612dbf8161298d565b9050919050565b60006020820190508181036000830152612ddf816129b0565b9050919050565b60006020820190508181036000830152612dff816129d3565b9050919050565b60006020820190508181036000830152612e1f816129f6565b9050919050565b60006020820190508181036000830152612e3f81612a19565b9050919050565b60006020820190508181036000830152612e5f81612a3c565b9050919050565b60006020820190508181036000830152612e7f81612a5f565b9050919050565b60006020820190508181036000830152612e9f81612a82565b9050919050565b60006020820190508181036000830152612ebf81612aa5565b9050919050565b60006020820190508181036000830152612edf81612ac8565b9050919050565b60006020820190508181036000830152612eff81612aeb565b9050919050565b60006020820190508181036000830152612f1f81612b0e565b9050919050565b60006020820190508181036000830152612f3f81612b31565b9050919050565b60006020820190508181036000830152612f5f81612b54565b9050919050565b60006020820190508181036000830152612f7f81612b77565b9050919050565b60006020820190508181036000830152612f9f81612b9a565b9050919050565b60006020820190508181036000830152612fbf81612bbd565b9050919050565b60006020820190508181036000830152612fdf81612be0565b9050919050565b60006020820190508181036000830152612fff81612c03565b9050919050565b600060208201905061301b6000830184612c26565b92915050565b600061302b61303c565b9050613037828261326a565b919050565b6000604051905090565b600067ffffffffffffffff821115613061576130606133cc565b5b61306a826133fb565b9050602081019050919050565b600081519050919050565b600081519050919050565b600082825260208201905092915050565b600082825260208201905092915050565b600081905092915050565b60006130c5826131df565b91506130d0836131df565b9250827fffffffffffffffffffffffffffffffffffffffffffffffffffffffffffffffff038211156131055761310461333f565b5b828201905092915050565b600061311b826131df565b9150613126836131df565b9250826131365761313561336e565b5b828204905092915050565b600061314c826131df565b9150613157836131df565b92508282101561316a5761316961333f565b5b828203905092915050565b6000613180826131bf565b9050919050565b60008115159050919050565b60007fffffffff0000000000000000000000000000000000000000000000000000000082169050919050565b600073ffffffffffffffffffffffffffffffffffffffff82169050919050565b6000819050919050565b600060ff82169050919050565b82818337600083830152505050565b60005b83811015613223578082015181840152602081019050613208565b83811115613232576000848401525b50505050565b6000600282049050600182168061325057607f821691505b602082108114156132645761326361339d565b5b50919050565b613273826133fb565b810181811067ffffffffffffffff82111715613292576132916133cc565b5b80604052505050565b60006132a6826131df565b91507fffffffffffffffffffffffffffffffffffffffffffffffffffffffffffffffff8214156132d9576132d861333f565b5b600182019050919050565b60006132ef826131e9565b915060ff8214156133035761330261333f565b5b600182019050919050565b6000613319826131df565b9150613324836131df565b9250826133345761333361336e565b5b828206905092915050565b7f4e487b7100000000000000000000000000000000000000000000000000000000600052601160045260246000fd5b7f4e487b7100000000000000000000000000000000000000000000000000000000600052601260045260246000fd5b7f4e487b7100000000000000000000000000000000000000000000000000000000600052602260045260246000fd5b7f4e487b7100000000000000000000000000000000000000000000000000000000600052604160045260246000fd5b6000601f19601f8301169050919050565b7f4e6f2042616c6c6f747300000000000000000000000000000000000000000000600082015250565b7f4552433732313a207472616e7366657220746f206e6f6e20455243373231526560008201527f63656976657220696d706c656d656e7465720000000000000000000000000000602082015250565b7f4f776e61626c653a206e6577206f776e657220697320746865207a65726f206160008201527f6464726573730000000000000000000000000000000000000000000000000000602082015250565b7f4552433732313a20746f6b656e20616c7265616479206d696e74656400000000600082015250565b7f42616c6c6f7420466f756e640000000000000000000000000000000000000000600082015250565b7f4552433732313a207472616e7366657220746f20746865207a65726f2061646460008201527f7265737300000000000000000000000000000000000000000000000000000000602082015250565b7f4552433732313a20617070726f766520746f2063616c6c657200000000000000600082015250565b7f4552433732313a206f70657261746f7220717565727920666f72206e6f6e657860008201527f697374656e7420746f6b656e0000000000000000000000000000000000000000602082015250565b7f43616e646964617465732043616e6e6f7420566f746500000000000000000000600082015250565b7f4552433732313a20617070726f76652063616c6c6572206973206e6f74206f7760008201527f6e6572206e6f7220617070726f76656420666f7220616c6c0000000000000000602082015250565b7f4552433732313a2062616c616e636520717565727920666f7220746865207a6560008201527f726f206164647265737300000000000000000000000000000000000000000000602082015250565b7f4552433732313a206f776e657220717565727920666f72206e6f6e657869737460008201527f656e7420746f6b656e0000000000000000000000000000000000000000000000602082015250565b7f4552433732313a206d696e7420746f20746865207a65726f2061646472657373600082015250565b7f43616e6469646174652045786973747300000000000000000000000000000000600082015250565b7f4552433732313a20617070726f76656420717565727920666f72206e6f6e657860008201527f697374656e7420746f6b656e0000000000000000000000000000000000000000602082015250565b7f4f776e61626c653a2063616c6c6572206973206e6f7420746865206f776e6572600082015250565b7f4552433732313a207472616e73666572206f6620746f6b656e2074686174206960008201527f73206e6f74206f776e0000000000000000000000000000000000000000000000602082015250565b7f4552433732314d657461646174613a2055524920717565727920666f72206e6f60008201527f6e6578697374656e7420746f6b656e0000000000000000000000000000000000602082015250565b7f4552433732313a20617070726f76616c20746f2063757272656e74206f776e6560008201527f7200000000000000000000000000000000000000000000000000000000000000602082015250565b7f43616e64696461746520446f65736e2774204578697374000000000000000000600082015250565b7f4552433732313a207472616e736665722063616c6c6572206973206e6f74206f60008201527f776e6572206e6f7220617070726f766564000000000000000000000000000000602082015250565b7f496e76616c69642043616e646964617465000000000000000000000000000000600082015250565b7f4552433732314275726e61626c653a2063616c6c6572206973206e6f74206f7760008201527f6e6572206e6f7220617070726f76656400000000000000000000000000000000602082015250565b6139b281613175565b81146139bd57600080fd5b50565b6139c981613187565b81146139d457600080fd5b50565b6139e081613193565b81146139eb57600080fd5b50565b6139f7816131df565b8114613a0257600080fd5b5056fea2646970667358221220965d0ba75ec56b19d4c8eb9a8ef947bfb813020fd6c11ed4d63e122bdef8c6d164736f6c63430008030033",
  "linkReferences": {},
  "deployedLinkReferences": {}
}