{
  "_format": "hh-sol-artifact-1",
  "contractName": "MyToken",
  "sourceName": "contracts/Voting.sol",
  "abi": [
    {
      "inputs": [],
      "stateMutability": "nonpayable",
      "type": "constructor"
    },
    {
      "anonymous": false,
      "inputs": [
        {
          "indexed": true,
          "internalType": "address",
          "name": "owner",
          "type": "address"
        },
        {
          "indexed": true,
          "internalType": "address",
          "name": "approved",
          "type": "address"
        },
        {
          "indexed": true,
          "internalType": "uint256",
          "name": "tokenId",
          "type": "uint256"
        }
      ],
      "name": "Approval",
      "type": "event"
    },
    {
      "anonymous": false,
      "inputs": [
        {
          "indexed": true,
          "internalType": "address",
          "name": "owner",
          "type": "address"
        },
        {
          "indexed": true,
          "internalType": "address",
          "name": "operator",
          "type": "address"
        },
        {
          "indexed": false,
          "internalType": "bool",
          "name": "approved",
          "type": "bool"
        }
      ],
      "name": "ApprovalForAll",
      "type": "event"
    },
    {
      "anonymous": false,
      "inputs": [
        {
          "indexed": true,
          "internalType": "address",
          "name": "previousOwner",
          "type": "address"
        },
        {
          "indexed": true,
          "internalType": "address",
          "name": "newOwner",
          "type": "address"
        }
      ],
      "name": "OwnershipTransferred",
      "type": "event"
    },
    {
      "anonymous": false,
      "inputs": [
        {
          "indexed": true,
          "internalType": "address",
          "name": "from",
          "type": "address"
        },
        {
          "indexed": true,
          "internalType": "address",
          "name": "to",
          "type": "address"
        },
        {
          "indexed": true,
          "internalType": "uint256",
          "name": "tokenId",
          "type": "uint256"
        }
      ],
      "name": "Transfer",
      "type": "event"
    },
    {
      "anonymous": false,
      "inputs": [
        {
          "indexed": false,
          "internalType": "address",
          "name": "x",
          "type": "address"
        },
        {
          "indexed": false,
          "internalType": "uint256",
          "name": "y",
          "type": "uint256"
        }
      ],
      "name": "concluded",
      "type": "event"
    },
    {
      "inputs": [],
      "name": "active",
      "outputs": [
        {
          "internalType": "bool",
          "name": "",
          "type": "bool"
        }
      ],
      "stateMutability": "view",
      "type": "function"
    },
    {
      "inputs": [
        {
          "internalType": "address",
          "name": "_candidate",
          "type": "address"
        }
      ],
      "name": "addCandidates",
      "outputs": [],
      "stateMutability": "nonpayable",
      "type": "function"
    },
    {
      "inputs": [
        {
          "internalType": "address",
          "name": "to",
          "type": "address"
        },
        {
          "internalType": "uint256",
          "name": "tokenId",
          "type": "uint256"
        }
      ],
      "name": "approve",
      "outputs": [],
      "stateMutability": "nonpayable",
      "type": "function"
    },
    {
      "inputs": [
        {
          "internalType": "address",
          "name": "owner",
          "type": "address"
        }
      ],
      "name": "balanceOf",
      "outputs": [
        {
          "internalType": "uint256",
          "name": "",
          "type": "uint256"
        }
      ],
      "stateMutability": "view",
      "type": "function"
    },
    {
      "inputs": [
        {
          "internalType": "uint256",
          "name": "tokenId",
          "type": "uint256"
        }
      ],
      "name": "burn",
      "outputs": [],
      "stateMutability": "nonpayable",
      "type": "function"
    },
    {
      "inputs": [
        {
          "internalType": "uint256",
          "name": "",
          "type": "uint256"
        }
      ],
      "name": "candidates",
      "outputs": [
        {
          "internalType": "address",
          "name": "",
          "type": "address"
        }
      ],
      "stateMutability": "view",
      "type": "function"
    },
    {
      "inputs": [],
      "name": "conclude",
      "outputs": [],
      "stateMutability": "nonpayable",
      "type": "function"
    },
    {
      "inputs": [
        {
          "internalType": "uint256",
          "name": "tokenId",
          "type": "uint256"
        }
      ],
      "name": "getApproved",
      "outputs": [
        {
          "internalType": "address",
          "name": "",
          "type": "address"
        }
      ],
      "stateMutability": "view",
      "type": "function"
    },
    {
      "inputs": [],
      "name": "highestVotes",
      "outputs": [
        {
          "internalType": "address",
          "name": "",
          "type": "address"
        },
        {
          "internalType": "uint256",
          "name": "",
          "type": "uint256"
        }
      ],
      "stateMutability": "view",
      "type": "function"
    },
    {
      "inputs": [
        {
          "internalType": "address",
          "name": "owner",
          "type": "address"
        },
        {
          "internalType": "address",
          "name": "operator",
          "type": "address"
        }
      ],
      "name": "isApprovedForAll",
      "outputs": [
        {
          "internalType": "bool",
          "name": "",
          "type": "bool"
        }
      ],
      "stateMutability": "view",
      "type": "function"
    },
    {
      "inputs": [],
      "name": "name",
      "outputs": [
        {
          "internalType": "string",
          "name": "",
          "type": "string"
        }
      ],
      "stateMutability": "view",
      "type": "function"
    },
    {
      "inputs": [],
      "name": "owner",
      "outputs": [
        {
          "internalType": "address",
          "name": "",
          "type": "address"
        }
      ],
      "stateMutability": "view",
      "type": "function"
    },
    {
      "inputs": [
        {
          "internalType": "uint256",
          "name": "tokenId",
          "type": "uint256"
        }
      ],
      "name": "ownerOf",
      "outputs": [
        {
          "internalType": "address",
          "name": "",
          "type": "address"
        }
      ],
      "stateMutability": "view",
      "type": "function"
    },
    {
      "inputs": [],
      "name": "renounceOwnership",
      "outputs": [],
      "stateMutability": "nonpayable",
      "type": "function"
    },
    {
      "inputs": [
        {
          "internalType": "address",
          "name": "to",
          "type": "address"
        }
      ],
      "name": "safeMint",
      "outputs": [],
      "stateMutability": "nonpayable",
      "type": "function"
    },
    {
      "inputs": [
        {
          "internalType": "address",
          "name": "from",
          "type": "address"
        },
        {
          "internalType": "address",
          "name": "to",
          "type": "address"
        },
        {
          "internalType": "uint256",
          "name": "tokenId",
          "type": "uint256"
        }
      ],
      "name": "safeTransferFrom",
      "outputs": [],
      "stateMutability": "nonpayable",
      "type": "function"
    },
    {
      "inputs": [
        {
          "internalType": "address",
          "name": "from",
          "type": "address"
        },
        {
          "internalType": "address",
          "name": "to",
          "type": "address"
        },
        {
          "internalType": "uint256",
          "name": "tokenId",
          "type": "uint256"
        },
        {
          "internalType": "bytes",
          "name": "_data",
          "type": "bytes"
        }
      ],
      "name": "safeTransferFrom",
      "outputs": [],
      "stateMutability": "nonpayable",
      "type": "function"
    },
    {
      "inputs": [
        {
          "internalType": "address",
          "name": "operator",
          "type": "address"
        },
        {
          "internalType": "bool",
          "name": "approved",
          "type": "bool"
        }
      ],
      "name": "setApprovalForAll",
      "outputs": [],
      "stateMutability": "nonpayable",
      "type": "function"
    },
    {
      "inputs": [
        {
          "internalType": "bytes4",
          "name": "interfaceId",
          "type": "bytes4"
        }
      ],
      "name": "supportsInterface",
      "outputs": [
        {
          "internalType": "bool",
          "name": "",
          "type": "bool"
        }
      ],
      "stateMutability": "view",
      "type": "function"
    },
    {
      "inputs": [],
      "name": "symbol",
      "outputs": [
        {
          "internalType": "string",
          "name": "",
          "type": "string"
        }
      ],
      "stateMutability": "view",
      "type": "function"
    },
    {
      "inputs": [
        {
          "internalType": "uint256",
          "name": "tokenId",
          "type": "uint256"
        }
      ],
      "name": "tokenURI",
      "outputs": [
        {
          "internalType": "string",
          "name": "",
          "type": "string"
        }
      ],
      "stateMutability": "view",
      "type": "function"
    },
    {
      "inputs": [
        {
          "internalType": "address",
          "name": "from",
          "type": "address"
        },
        {
          "internalType": "address",
          "name": "to",
          "type": "address"
        },
        {
          "internalType": "uint256",
          "name": "tokenId",
          "type": "uint256"
        }
      ],
      "name": "transferFrom",
      "outputs": [],
      "stateMutability": "nonpayable",
      "type": "function"
    },
    {
      "inputs": [
        {
          "internalType": "address",
          "name": "newOwner",
          "type": "address"
        }
      ],
      "name": "transferOwnership",
      "outputs": [],
      "stateMutability": "nonpayable",
      "type": "function"
    },
    {
      "inputs": [
        {
          "internalType": "address",
          "name": "_candidateAddress",
          "type": "address"
        }
      ],
      "name": "vote",
      "outputs": [],
      "stateMutability": "nonpayable",
      "type": "function"
    },
    {
      "inputs": [
        {
          "internalType": "address",
          "name": "_candidateAddress",
          "type": "address"
        }
      ],
      "name": "votesForCandidate",
      "outputs": [
        {
          "internalType": "uint256",
          "name": "",
          "type": "uint256"
        }
      ],
      "stateMutability": "view",
      "type": "function"
    },
    {
      "inputs": [],
      "name": "winner",
      "outputs": [
        {
          "internalType": "address",
          "name": "",
          "type": "address"
        }
      ],
      "stateMutability": "view",
      "type": "function"
    }
  ],
  "bytecode": "0x60806040526001600860006101000a81548160ff0219169083151502179055503480156200002c57600080fd5b506040518060400160405280600681526020017f42616c6c6f7400000000000000000000000000000000000000000000000000008152506040518060400160405280600381526020017f42414c00000000000000000000000000000000000000000000000000000000008152508160009080519060200190620000b1929190620001c1565b508060019080519060200190620000ca929190620001c1565b505050620000ed620000e1620000f360201b60201c565b620000fb60201b60201c565b620002d6565b600033905090565b6000600660009054906101000a900473ffffffffffffffffffffffffffffffffffffffff16905081600660006101000a81548173ffffffffffffffffffffffffffffffffffffffff021916908373ffffffffffffffffffffffffffffffffffffffff1602179055508173ffffffffffffffffffffffffffffffffffffffff168173ffffffffffffffffffffffffffffffffffffffff167f8be0079c531659141344cd1fd0a4f28419497f9722a3daafe3b4186f6b6457e060405160405180910390a35050565b828054620001cf9062000271565b90600052602060002090601f016020900481019282620001f357600085556200023f565b82601f106200020e57805160ff19168380011785556200023f565b828001600101855582156200023f579182015b828111156200023e57825182559160200191906001019062000221565b5b5090506200024e919062000252565b5090565b5b808211156200026d57600081600090555060010162000253565b5090565b600060028204905060018216806200028a57607f821691505b60208210811415620002a157620002a0620002a7565b5b50919050565b7f4e487b7100000000000000000000000000000000000000000000000000000000600052602260045260246000fd5b613b4980620002e66000396000f3fe608060405234801561001057600080fd5b506004361061018e5760003560e01c80636456cb0a116100de578063a22cb46511610097578063dfbf53ae11610071578063dfbf53ae14610480578063e5f929731461049e578063e985e9c5146104a8578063f2fde38b146104d85761018e565b8063a22cb46514610418578063b88d4fde14610434578063c87b56dd146104505761018e565b80636456cb0a146103675780636dd7d8ea1461038657806370a08231146103a2578063715018a6146103d25780638da5cb5b146103dc57806395d89b41146103fa5761018e565b806323b872dd1161014b57806340d097c31161012557806340d097c3146102e357806342842e0e146102ff57806342966c681461031b5780636352211e146103375761018e565b806323b872dd146102675780633477ee2e146102835780633bc56534146102b35761018e565b806301ffc9a71461019357806302fb0c5e146101c357806306fdde03146101e1578063081812fc146101ff57806308e49a881461022f578063095ea7b31461024b575b600080fd5b6101ad60048036038101906101a89190612867565b6104f4565b6040516101ba9190612dae565b60405180910390f35b6101cb6105d6565b6040516101d89190612dae565b60405180910390f35b6101e96105e9565b6040516101f69190612dc9565b60405180910390f35b610219600480360381019061021491906128b9565b61067b565b6040516102269190612d1e565b60405180910390f35b610249600480360381019061024491906126c0565b610700565b005b6102656004803603810190610260919061282b565b610831565b005b610281600480360381019061027c9190612725565b610949565b005b61029d600480360381019061029891906128b9565b6109a9565b6040516102aa9190612d1e565b60405180910390f35b6102cd60048036038101906102c891906126c0565b6109e8565b6040516102da91906130eb565b60405180910390f35b6102fd60048036038101906102f891906126c0565b610a49565b005b61031960048036038101906103149190612725565b610b7a565b005b610335600480360381019061033091906128b9565b610b9a565b005b610351600480360381019061034c91906128b9565b610bf6565b60405161035e9190612d1e565b60405180910390f35b61036f610ca8565b60405161037d929190612d85565b60405180910390f35b6103a0600480360381019061039b91906126c0565b610f1b565b005b6103bc60048036038101906103b791906126c0565b6110ad565b6040516103c991906130eb565b60405180910390f35b6103da611165565b005b6103e46111ed565b6040516103f19190612d1e565b60405180910390f35b610402611217565b60405161040f9190612dc9565b60405180910390f35b610432600480360381019061042d91906127ef565b6112a9565b005b61044e60048036038101906104499190612774565b61142a565b005b61046a600480360381019061046591906128b9565b61148c565b6040516104779190612dc9565b60405180910390f35b610488611533565b6040516104959190612d1e565b60405180910390f35b6104a6611559565b005b6104c260048036038101906104bd91906126e9565b6116a0565b6040516104cf9190612dae565b60405180910390f35b6104f260048036038101906104ed91906126c0565b611734565b005b60007f80ac58cd000000000000000000000000000000000000000000000000000000007bffffffffffffffffffffffffffffffffffffffffffffffffffffffff1916827bffffffffffffffffffffffffffffffffffffffffffffffffffffffff191614806105bf57507f5b5e139f000000000000000000000000000000000000000000000000000000007bffffffffffffffffffffffffffffffffffffffffffffffffffffffff1916827bffffffffffffffffffffffffffffffffffffffffffffffffffffffff1916145b806105cf57506105ce8261182c565b5b9050919050565b600860009054906101000a900460ff1681565b6060600080546105f89061331d565b80601f01602080910402602001604051908101604052809291908181526020018280546106249061331d565b80156106715780601f1061064657610100808354040283529160200191610671565b820191906000526020600020905b81548152906001019060200180831161065457829003601f168201915b5050505050905090565b600061068682611896565b6106c5576040517f08c379a00000000000000000000000000000000000000000000000000000000081526004016106bc90612fab565b60405180910390fd5b6004600083815260200190815260200160002060009054906101000a900473ffffffffffffffffffffffffffffffffffffffff169050919050565b610708611902565b73ffffffffffffffffffffffffffffffffffffffff166107266111ed565b73ffffffffffffffffffffffffffffffffffffffff161461077c576040517f08c379a000000000000000000000000000000000000000000000000000000000815260040161077390612fcb565b60405180910390fd5b600015156107898261190a565b1515146107cb576040517f08c379a00000000000000000000000000000000000000000000000000000000081526004016107c290612f8b565b60405180910390fd5b600a819080600181540180825580915050600190039060005260206000200160009091909190916101000a81548173ffffffffffffffffffffffffffffffffffffffff021916908373ffffffffffffffffffffffffffffffffffffffff16021790555050565b600061083c82610bf6565b90508073ffffffffffffffffffffffffffffffffffffffff168373ffffffffffffffffffffffffffffffffffffffff1614156108ad576040517f08c379a00000000000000000000000000000000000000000000000000000000081526004016108a49061302b565b60405180910390fd5b8073ffffffffffffffffffffffffffffffffffffffff166108cc611902565b73ffffffffffffffffffffffffffffffffffffffff1614806108fb57506108fa816108f5611902565b6116a0565b5b61093a576040517f08c379a000000000000000000000000000000000000000000000000000000000815260040161093190612f0b565b60405180910390fd5b61094483836119eb565b505050565b61095a610954611902565b82611aa4565b610999576040517f08c379a00000000000000000000000000000000000000000000000000000000081526004016109909061308b565b60405180910390fd5b6109a4838383611b82565b505050565b600a81815481106109b957600080fd5b906000526020600020016000915054906101000a900473ffffffffffffffffffffffffffffffffffffffff1681565b6000600115156109f78361190a565b151514610a39576040517f08c379a0000000000000000000000000000000000000000000000000000000008152600401610a309061304b565b60405180910390fd5b610a42826110ad565b9050919050565b610a51611902565b73ffffffffffffffffffffffffffffffffffffffff16610a6f6111ed565b73ffffffffffffffffffffffffffffffffffffffff1614610ac5576040517f08c379a0000000000000000000000000000000000000000000000000000000008152600401610abc90612fcb565b60405180910390fd5b6000610ad0826110ad565b14610b10576040517f08c379a0000000000000000000000000000000000000000000000000000000008152600401610b0790612e6b565b60405180910390fd5b6000610b1c6007611dde565b9050610b288282611dec565b80600960008473ffffffffffffffffffffffffffffffffffffffff1673ffffffffffffffffffffffffffffffffffffffff16815260200190815260200160002081905550610b766007611e0a565b5050565b610b958383836040518060200160405280600081525061142a565b505050565b610bab610ba5611902565b82611aa4565b610bea576040517f08c379a0000000000000000000000000000000000000000000000000000000008152600401610be1906130cb565b60405180910390fd5b610bf381611e20565b50565b6000806002600084815260200190815260200160002060009054906101000a900473ffffffffffffffffffffffffffffffffffffffff169050600073ffffffffffffffffffffffffffffffffffffffff168173ffffffffffffffffffffffffffffffffffffffff161415610c9f576040517f08c379a0000000000000000000000000000000000000000000000000000000008152600401610c9690612f4b565b60405180910390fd5b80915050919050565b6000806000600a8054905090506000610d25600a600081548110610cf5577f4e487b7100000000000000000000000000000000000000000000000000000000600052603260045260246000fd5b9060005260206000200160009054906101000a900473ffffffffffffffffffffffffffffffffffffffff166110ad565b9050600080600190505b8360ff168160ff161015610dd4576000610daf600a8360ff1681548110610d7f577f4e487b7100000000000000000000000000000000000000000000000000000000600052603260045260246000fd5b9060005260206000200160009054906101000a900473ffffffffffffffffffffffffffffffffffffffff166110ad565b905083811115610dc0578192508093505b508080610dcc906133c9565b915050610d2f565b506000805b8460ff168160ff161015610ea4576000610e59600a8360ff1681548110610e29577f4e487b7100000000000000000000000000000000000000000000000000000000600052603260045260246000fd5b9060005260206000200160009054906101000a900473ffffffffffffffffffffffffffffffffffffffff166110ad565b905084811415610e72578280610e6e906133c9565b9350505b60018360ff161115610e905760008597509750505050505050610f17565b508080610e9c906133c9565b915050610dd9565b50600a8260ff1681548110610ee2577f4e487b7100000000000000000000000000000000000000000000000000000000600052603260045260246000fd5b9060005260206000200160009054906101000a900473ffffffffffffffffffffffffffffffffffffffff168395509550505050505b9091565b60011515600860009054906101000a900460ff16151514610f71576040517f08c379a0000000000000000000000000000000000000000000000000000000008152600401610f689061306b565b60405180910390fd5b6000610f7c336110ad565b11610fbc576040517f08c379a0000000000000000000000000000000000000000000000000000000008152600401610fb390612deb565b60405180910390fd5b60011515610fc98261190a565b15151461100b576040517f08c379a0000000000000000000000000000000000000000000000000000000008152600401611002906130ab565b60405180910390fd5b600015156110183361190a565b15151461105a576040517f08c379a000000000000000000000000000000000000000000000000000000000815260040161105190612eeb565b60405180910390fd5b6000600960003373ffffffffffffffffffffffffffffffffffffffff1673ffffffffffffffffffffffffffffffffffffffff1681526020019081526020016000205490506110a9338383610b7a565b5050565b60008073ffffffffffffffffffffffffffffffffffffffff168273ffffffffffffffffffffffffffffffffffffffff16141561111e576040517f08c379a000000000000000000000000000000000000000000000000000000000815260040161111590612f2b565b60405180910390fd5b600360008373ffffffffffffffffffffffffffffffffffffffff1673ffffffffffffffffffffffffffffffffffffffff168152602001908152602001600020549050919050565b61116d611902565b73ffffffffffffffffffffffffffffffffffffffff1661118b6111ed565b73ffffffffffffffffffffffffffffffffffffffff16146111e1576040517f08c379a00000000000000000000000000000000000000000000000000000000081526004016111d890612fcb565b60405180910390fd5b6111eb6000611f31565b565b6000600660009054906101000a900473ffffffffffffffffffffffffffffffffffffffff16905090565b6060600180546112269061331d565b80601f01602080910402602001604051908101604052809291908181526020018280546112529061331d565b801561129f5780601f106112745761010080835404028352916020019161129f565b820191906000526020600020905b81548152906001019060200180831161128257829003601f168201915b5050505050905090565b6112b1611902565b73ffffffffffffffffffffffffffffffffffffffff168273ffffffffffffffffffffffffffffffffffffffff16141561131f576040517f08c379a000000000000000000000000000000000000000000000000000000000815260040161131690612eab565b60405180910390fd5b806005600061132c611902565b73ffffffffffffffffffffffffffffffffffffffff1673ffffffffffffffffffffffffffffffffffffffff16815260200190815260200160002060008473ffffffffffffffffffffffffffffffffffffffff1673ffffffffffffffffffffffffffffffffffffffff16815260200190815260200160002060006101000a81548160ff0219169083151502179055508173ffffffffffffffffffffffffffffffffffffffff166113d9611902565b73ffffffffffffffffffffffffffffffffffffffff167f17307eab39ab6107e8899845ad3d59bd9653f200f220920489ca2b5937696c318360405161141e9190612dae565b60405180910390a35050565b61143b611435611902565b83611aa4565b61147a576040517f08c379a00000000000000000000000000000000000000000000000000000000081526004016114719061308b565b60405180910390fd5b61148684848484611ff7565b50505050565b606061149782611896565b6114d6576040517f08c379a00000000000000000000000000000000000000000000000000000000081526004016114cd9061300b565b60405180910390fd5b60006114e0612053565b90506000815111611500576040518060200160405280600081525061152b565b8061150a8461206a565b60405160200161151b929190612cfa565b6040516020818303038152906040525b915050919050565b600b60009054906101000a900473ffffffffffffffffffffffffffffffffffffffff1681565b611561611902565b73ffffffffffffffffffffffffffffffffffffffff1661157f6111ed565b73ffffffffffffffffffffffffffffffffffffffff16146115d5576040517f08c379a00000000000000000000000000000000000000000000000000000000081526004016115cc90612fcb565b60405180910390fd5b6000600860006101000a81548160ff02191690831515021790555060006115fa610ca8565b600b60008294508391906101000a81548173ffffffffffffffffffffffffffffffffffffffff021916908373ffffffffffffffffffffffffffffffffffffffff16021790555050507ff264144310cc722e9c5878f1409aaa6a459e675ca4726380887865e00d34d2fa600b60009054906101000a900473ffffffffffffffffffffffffffffffffffffffff1682604051611695929190612d85565b60405180910390a150565b6000600560008473ffffffffffffffffffffffffffffffffffffffff1673ffffffffffffffffffffffffffffffffffffffff16815260200190815260200160002060008373ffffffffffffffffffffffffffffffffffffffff1673ffffffffffffffffffffffffffffffffffffffff16815260200190815260200160002060009054906101000a900460ff16905092915050565b61173c611902565b73ffffffffffffffffffffffffffffffffffffffff1661175a6111ed565b73ffffffffffffffffffffffffffffffffffffffff16146117b0576040517f08c379a00000000000000000000000000000000000000000000000000000000081526004016117a790612fcb565b60405180910390fd5b600073ffffffffffffffffffffffffffffffffffffffff168173ffffffffffffffffffffffffffffffffffffffff161415611820576040517f08c379a000000000000000000000000000000000000000000000000000000000815260040161181790612e2b565b60405180910390fd5b61182981611f31565b50565b60007f01ffc9a7000000000000000000000000000000000000000000000000000000007bffffffffffffffffffffffffffffffffffffffffffffffffffffffff1916827bffffffffffffffffffffffffffffffffffffffffffffffffffffffff1916149050919050565b60008073ffffffffffffffffffffffffffffffffffffffff166002600084815260200190815260200160002060009054906101000a900473ffffffffffffffffffffffffffffffffffffffff1673ffffffffffffffffffffffffffffffffffffffff1614159050919050565b600033905090565b600080600a80549050905060005b8160ff168160ff1610156119df57600a8160ff1681548110611963577f4e487b7100000000000000000000000000000000000000000000000000000000600052603260045260246000fd5b9060005260206000200160009054906101000a900473ffffffffffffffffffffffffffffffffffffffff1673ffffffffffffffffffffffffffffffffffffffff168473ffffffffffffffffffffffffffffffffffffffff1614156119cc576001925050506119e6565b80806119d7906133c9565b915050611918565b5060009150505b919050565b816004600083815260200190815260200160002060006101000a81548173ffffffffffffffffffffffffffffffffffffffff021916908373ffffffffffffffffffffffffffffffffffffffff160217905550808273ffffffffffffffffffffffffffffffffffffffff16611a5e83610bf6565b73ffffffffffffffffffffffffffffffffffffffff167f8c5be1e5ebec7d5bd14f71427d1e84f3dd0314c0f7b2291e5b200ac8c7c3b92560405160405180910390a45050565b6000611aaf82611896565b611aee576040517f08c379a0000000000000000000000000000000000000000000000000000000008152600401611ae590612ecb565b60405180910390fd5b6000611af983610bf6565b90508073ffffffffffffffffffffffffffffffffffffffff168473ffffffffffffffffffffffffffffffffffffffff161480611b6857508373ffffffffffffffffffffffffffffffffffffffff16611b508461067b565b73ffffffffffffffffffffffffffffffffffffffff16145b80611b795750611b7881856116a0565b5b91505092915050565b8273ffffffffffffffffffffffffffffffffffffffff16611ba282610bf6565b73ffffffffffffffffffffffffffffffffffffffff1614611bf8576040517f08c379a0000000000000000000000000000000000000000000000000000000008152600401611bef90612feb565b60405180910390fd5b600073ffffffffffffffffffffffffffffffffffffffff168273ffffffffffffffffffffffffffffffffffffffff161415611c68576040517f08c379a0000000000000000000000000000000000000000000000000000000008152600401611c5f90612e8b565b60405180910390fd5b611c73838383612217565b611c7e6000826119eb565b6001600360008573ffffffffffffffffffffffffffffffffffffffff1673ffffffffffffffffffffffffffffffffffffffff1681526020019081526020016000206000828254611cce9190613226565b925050819055506001600360008473ffffffffffffffffffffffffffffffffffffffff1673ffffffffffffffffffffffffffffffffffffffff1681526020019081526020016000206000828254611d25919061319f565b92505081905550816002600083815260200190815260200160002060006101000a81548173ffffffffffffffffffffffffffffffffffffffff021916908373ffffffffffffffffffffffffffffffffffffffff160217905550808273ffffffffffffffffffffffffffffffffffffffff168473ffffffffffffffffffffffffffffffffffffffff167fddf252ad1be2c89b69c2b068fc378daa952ba7f163c4a11628f55a4df523b3ef60405160405180910390a4505050565b600081600001549050919050565b611e0682826040518060200160405280600081525061221c565b5050565b6001816000016000828254019250508190555050565b6000611e2b82610bf6565b9050611e3981600084612217565b611e446000836119eb565b6001600360008373ffffffffffffffffffffffffffffffffffffffff1673ffffffffffffffffffffffffffffffffffffffff1681526020019081526020016000206000828254611e949190613226565b925050819055506002600083815260200190815260200160002060006101000a81549073ffffffffffffffffffffffffffffffffffffffff021916905581600073ffffffffffffffffffffffffffffffffffffffff168273ffffffffffffffffffffffffffffffffffffffff167fddf252ad1be2c89b69c2b068fc378daa952ba7f163c4a11628f55a4df523b3ef60405160405180910390a45050565b6000600660009054906101000a900473ffffffffffffffffffffffffffffffffffffffff16905081600660006101000a81548173ffffffffffffffffffffffffffffffffffffffff021916908373ffffffffffffffffffffffffffffffffffffffff1602179055508173ffffffffffffffffffffffffffffffffffffffff168173ffffffffffffffffffffffffffffffffffffffff167f8be0079c531659141344cd1fd0a4f28419497f9722a3daafe3b4186f6b6457e060405160405180910390a35050565b612002848484611b82565b61200e84848484612277565b61204d576040517f08c379a000000000000000000000000000000000000000000000000000000000815260040161204490612e0b565b60405180910390fd5b50505050565b606060405180602001604052806000815250905090565b606060008214156120b2576040518060400160405280600181526020017f30000000000000000000000000000000000000000000000000000000000000008152509050612212565b600082905060005b600082146120e45780806120cd90613380565b915050600a826120dd91906131f5565b91506120ba565b60008167ffffffffffffffff811115612126577f4e487b7100000000000000000000000000000000000000000000000000000000600052604160045260246000fd5b6040519080825280601f01601f1916602001820160405280156121585781602001600182028036833780820191505090505b5090505b6000851461220b576001826121719190613226565b9150600a8561218091906133f3565b603061218c919061319f565b60f81b8183815181106121c8577f4e487b7100000000000000000000000000000000000000000000000000000000600052603260045260246000fd5b60200101907effffffffffffffffffffffffffffffffffffffffffffffffffffffffffffff1916908160001a905350600a8561220491906131f5565b945061215c565b8093505050505b919050565b505050565b612226838361240e565b6122336000848484612277565b612272576040517f08c379a000000000000000000000000000000000000000000000000000000000815260040161226990612e0b565b60405180910390fd5b505050565b60006122988473ffffffffffffffffffffffffffffffffffffffff166125dc565b15612401578373ffffffffffffffffffffffffffffffffffffffff1663150b7a026122c1611902565b8786866040518563ffffffff1660e01b81526004016122e39493929190612d39565b602060405180830381600087803b1580156122fd57600080fd5b505af192505050801561232e57506040513d601f19601f8201168201806040525081019061232b9190612890565b60015b6123b1573d806000811461235e576040519150601f19603f3d011682016040523d82523d6000602084013e612363565b606091505b506000815114156123a9576040517f08c379a00000000000000000000000000000000000000000000000000000000081526004016123a090612e0b565b60405180910390fd5b805181602001fd5b63150b7a0260e01b7bffffffffffffffffffffffffffffffffffffffffffffffffffffffff1916817bffffffffffffffffffffffffffffffffffffffffffffffffffffffff191614915050612406565b600190505b949350505050565b600073ffffffffffffffffffffffffffffffffffffffff168273ffffffffffffffffffffffffffffffffffffffff16141561247e576040517f08c379a000000000000000000000000000000000000000000000000000000000815260040161247590612f6b565b60405180910390fd5b61248781611896565b156124c7576040517f08c379a00000000000000000000000000000000000000000000000000000000081526004016124be90612e4b565b60405180910390fd5b6124d360008383612217565b6001600360008473ffffffffffffffffffffffffffffffffffffffff1673ffffffffffffffffffffffffffffffffffffffff1681526020019081526020016000206000828254612523919061319f565b92505081905550816002600083815260200190815260200160002060006101000a81548173ffffffffffffffffffffffffffffffffffffffff021916908373ffffffffffffffffffffffffffffffffffffffff160217905550808273ffffffffffffffffffffffffffffffffffffffff16600073ffffffffffffffffffffffffffffffffffffffff167fddf252ad1be2c89b69c2b068fc378daa952ba7f163c4a11628f55a4df523b3ef60405160405180910390a45050565b600080823b905060008111915050919050565b60006126026125fd8461312b565b613106565b90508281526020810184848401111561261a57600080fd5b6126258482856132db565b509392505050565b60008135905061263c81613ab7565b92915050565b60008135905061265181613ace565b92915050565b60008135905061266681613ae5565b92915050565b60008151905061267b81613ae5565b92915050565b600082601f83011261269257600080fd5b81356126a28482602086016125ef565b91505092915050565b6000813590506126ba81613afc565b92915050565b6000602082840312156126d257600080fd5b60006126e08482850161262d565b91505092915050565b600080604083850312156126fc57600080fd5b600061270a8582860161262d565b925050602061271b8582860161262d565b9150509250929050565b60008060006060848603121561273a57600080fd5b60006127488682870161262d565b93505060206127598682870161262d565b925050604061276a868287016126ab565b9150509250925092565b6000806000806080858703121561278a57600080fd5b60006127988782880161262d565b94505060206127a98782880161262d565b93505060406127ba878288016126ab565b925050606085013567ffffffffffffffff8111156127d757600080fd5b6127e387828801612681565b91505092959194509250565b6000806040838503121561280257600080fd5b60006128108582860161262d565b925050602061282185828601612642565b9150509250929050565b6000806040838503121561283e57600080fd5b600061284c8582860161262d565b925050602061285d858286016126ab565b9150509250929050565b60006020828403121561287957600080fd5b600061288784828501612657565b91505092915050565b6000602082840312156128a257600080fd5b60006128b08482850161266c565b91505092915050565b6000602082840312156128cb57600080fd5b60006128d9848285016126ab565b91505092915050565b6128eb8161325a565b82525050565b6128fa8161326c565b82525050565b600061290b8261315c565b6129158185613172565b93506129258185602086016132ea565b61292e816134e0565b840191505092915050565b600061294482613167565b61294e8185613183565b935061295e8185602086016132ea565b612967816134e0565b840191505092915050565b600061297d82613167565b6129878185613194565b93506129978185602086016132ea565b80840191505092915050565b60006129b0600a83613183565b91506129bb826134f1565b602082019050919050565b60006129d3603283613183565b91506129de8261351a565b604082019050919050565b60006129f6602683613183565b9150612a0182613569565b604082019050919050565b6000612a19601c83613183565b9150612a24826135b8565b602082019050919050565b6000612a3c600c83613183565b9150612a47826135e1565b602082019050919050565b6000612a5f602483613183565b9150612a6a8261360a565b604082019050919050565b6000612a82601983613183565b9150612a8d82613659565b602082019050919050565b6000612aa5602c83613183565b9150612ab082613682565b604082019050919050565b6000612ac8601683613183565b9150612ad3826136d1565b602082019050919050565b6000612aeb603883613183565b9150612af6826136fa565b604082019050919050565b6000612b0e602a83613183565b9150612b1982613749565b604082019050919050565b6000612b31602983613183565b9150612b3c82613798565b604082019050919050565b6000612b54602083613183565b9150612b5f826137e7565b602082019050919050565b6000612b77601083613183565b9150612b8282613810565b602082019050919050565b6000612b9a602c83613183565b9150612ba582613839565b604082019050919050565b6000612bbd602083613183565b9150612bc882613888565b602082019050919050565b6000612be0602983613183565b9150612beb826138b1565b604082019050919050565b6000612c03602f83613183565b9150612c0e82613900565b604082019050919050565b6000612c26602183613183565b9150612c318261394f565b604082019050919050565b6000612c49601783613183565b9150612c548261399e565b602082019050919050565b6000612c6c600983613183565b9150612c77826139c7565b602082019050919050565b6000612c8f603183613183565b9150612c9a826139f0565b604082019050919050565b6000612cb2601183613183565b9150612cbd82613a3f565b602082019050919050565b6000612cd5603083613183565b9150612ce082613a68565b604082019050919050565b612cf4816132c4565b82525050565b6000612d068285612972565b9150612d128284612972565b91508190509392505050565b6000602082019050612d3360008301846128e2565b92915050565b6000608082019050612d4e60008301876128e2565b612d5b60208301866128e2565b612d686040830185612ceb565b8181036060830152612d7a8184612900565b905095945050505050565b6000604082019050612d9a60008301856128e2565b612da76020830184612ceb565b9392505050565b6000602082019050612dc360008301846128f1565b92915050565b60006020820190508181036000830152612de38184612939565b905092915050565b60006020820190508181036000830152612e04816129a3565b9050919050565b60006020820190508181036000830152612e24816129c6565b9050919050565b60006020820190508181036000830152612e44816129e9565b9050919050565b60006020820190508181036000830152612e6481612a0c565b9050919050565b60006020820190508181036000830152612e8481612a2f565b9050919050565b60006020820190508181036000830152612ea481612a52565b9050919050565b60006020820190508181036000830152612ec481612a75565b9050919050565b60006020820190508181036000830152612ee481612a98565b9050919050565b60006020820190508181036000830152612f0481612abb565b9050919050565b60006020820190508181036000830152612f2481612ade565b9050919050565b60006020820190508181036000830152612f4481612b01565b9050919050565b60006020820190508181036000830152612f6481612b24565b9050919050565b60006020820190508181036000830152612f8481612b47565b9050919050565b60006020820190508181036000830152612fa481612b6a565b9050919050565b60006020820190508181036000830152612fc481612b8d565b9050919050565b60006020820190508181036000830152612fe481612bb0565b9050919050565b6000602082019050818103600083015261300481612bd3565b9050919050565b6000602082019050818103600083015261302481612bf6565b9050919050565b6000602082019050818103600083015261304481612c19565b9050919050565b6000602082019050818103600083015261306481612c3c565b9050919050565b6000602082019050818103600083015261308481612c5f565b9050919050565b600060208201905081810360008301526130a481612c82565b9050919050565b600060208201905081810360008301526130c481612ca5565b9050919050565b600060208201905081810360008301526130e481612cc8565b9050919050565b60006020820190506131006000830184612ceb565b92915050565b6000613110613121565b905061311c828261334f565b919050565b6000604051905090565b600067ffffffffffffffff821115613146576131456134b1565b5b61314f826134e0565b9050602081019050919050565b600081519050919050565b600081519050919050565b600082825260208201905092915050565b600082825260208201905092915050565b600081905092915050565b60006131aa826132c4565b91506131b5836132c4565b9250827fffffffffffffffffffffffffffffffffffffffffffffffffffffffffffffffff038211156131ea576131e9613424565b5b828201905092915050565b6000613200826132c4565b915061320b836132c4565b92508261321b5761321a613453565b5b828204905092915050565b6000613231826132c4565b915061323c836132c4565b92508282101561324f5761324e613424565b5b828203905092915050565b6000613265826132a4565b9050919050565b60008115159050919050565b60007fffffffff0000000000000000000000000000000000000000000000000000000082169050919050565b600073ffffffffffffffffffffffffffffffffffffffff82169050919050565b6000819050919050565b600060ff82169050919050565b82818337600083830152505050565b60005b838110156133085780820151818401526020810190506132ed565b83811115613317576000848401525b50505050565b6000600282049050600182168061333557607f821691505b6020821081141561334957613348613482565b5b50919050565b613358826134e0565b810181811067ffffffffffffffff82111715613377576133766134b1565b5b80604052505050565b600061338b826132c4565b91507fffffffffffffffffffffffffffffffffffffffffffffffffffffffffffffffff8214156133be576133bd613424565b5b600182019050919050565b60006133d4826132ce565b915060ff8214156133e8576133e7613424565b5b600182019050919050565b60006133fe826132c4565b9150613409836132c4565b92508261341957613418613453565b5b828206905092915050565b7f4e487b7100000000000000000000000000000000000000000000000000000000600052601160045260246000fd5b7f4e487b7100000000000000000000000000000000000000000000000000000000600052601260045260246000fd5b7f4e487b7100000000000000000000000000000000000000000000000000000000600052602260045260246000fd5b7f4e487b7100000000000000000000000000000000000000000000000000000000600052604160045260246000fd5b6000601f19601f8301169050919050565b7f4e6f2042616c6c6f747300000000000000000000000000000000000000000000600082015250565b7f4552433732313a207472616e7366657220746f206e6f6e20455243373231526560008201527f63656976657220696d706c656d656e7465720000000000000000000000000000602082015250565b7f4f776e61626c653a206e6577206f776e657220697320746865207a65726f206160008201527f6464726573730000000000000000000000000000000000000000000000000000602082015250565b7f4552433732313a20746f6b656e20616c7265616479206d696e74656400000000600082015250565b7f42616c6c6f7420466f756e640000000000000000000000000000000000000000600082015250565b7f4552433732313a207472616e7366657220746f20746865207a65726f2061646460008201527f7265737300000000000000000000000000000000000000000000000000000000602082015250565b7f4552433732313a20617070726f766520746f2063616c6c657200000000000000600082015250565b7f4552433732313a206f70657261746f7220717565727920666f72206e6f6e657860008201527f697374656e7420746f6b656e0000000000000000000000000000000000000000602082015250565b7f43616e646964617465732043616e6e6f7420566f746500000000000000000000600082015250565b7f4552433732313a20617070726f76652063616c6c6572206973206e6f74206f7760008201527f6e6572206e6f7220617070726f76656420666f7220616c6c0000000000000000602082015250565b7f4552433732313a2062616c616e636520717565727920666f7220746865207a6560008201527f726f206164647265737300000000000000000000000000000000000000000000602082015250565b7f4552433732313a206f776e657220717565727920666f72206e6f6e657869737460008201527f656e7420746f6b656e0000000000000000000000000000000000000000000000602082015250565b7f4552433732313a206d696e7420746f20746865207a65726f2061646472657373600082015250565b7f43616e6469646174652045786973747300000000000000000000000000000000600082015250565b7f4552433732313a20617070726f76656420717565727920666f72206e6f6e657860008201527f697374656e7420746f6b656e0000000000000000000000000000000000000000602082015250565b7f4f776e61626c653a2063616c6c6572206973206e6f7420746865206f776e6572600082015250565b7f4552433732313a207472616e73666572206f6620746f6b656e2074686174206960008201527f73206e6f74206f776e0000000000000000000000000000000000000000000000602082015250565b7f4552433732314d657461646174613a2055524920717565727920666f72206e6f60008201527f6e6578697374656e7420746f6b656e0000000000000000000000000000000000602082015250565b7f4552433732313a20617070726f76616c20746f2063757272656e74206f776e6560008201527f7200000000000000000000000000000000000000000000000000000000000000602082015250565b7f43616e64696461746520446f65736e2774204578697374000000000000000000600082015250565b7f436f6e636c756465640000000000000000000000000000000000000000000000600082015250565b7f4552433732313a207472616e736665722063616c6c6572206973206e6f74206f60008201527f776e6572206e6f7220617070726f766564000000000000000000000000000000602082015250565b7f496e76616c69642043616e646964617465000000000000000000000000000000600082015250565b7f4552433732314275726e61626c653a2063616c6c6572206973206e6f74206f7760008201527f6e6572206e6f7220617070726f76656400000000000000000000000000000000602082015250565b613ac08161325a565b8114613acb57600080fd5b50565b613ad78161326c565b8114613ae257600080fd5b50565b613aee81613278565b8114613af957600080fd5b50565b613b05816132c4565b8114613b1057600080fd5b5056fea264697066735822122039527f8373059cd9bf3779cd9af2dc59d2da5f129ebe0ecb2f9dc5843f9b252564736f6c63430008030033",
  "linkReferences": {},
  "deployedLinkReferences": {}
}