{
  "_format": "hh-sol-artifact-1",
  "contractName": "NFTVoting",
  "sourceName": "contracts/Voting.sol",
  "abi": [
    {
      "inputs": [],
      "stateMutability": "nonpayable",
      "type": "constructor"
    },
    {
      "anonymous": false,
      "inputs": [
        {
          "indexed": true,
          "internalType": "address",
          "name": "owner",
          "type": "address"
        },
        {
          "indexed": true,
          "internalType": "address",
          "name": "approved",
          "type": "address"
        },
        {
          "indexed": true,
          "internalType": "uint256",
          "name": "tokenId",
          "type": "uint256"
        }
      ],
      "name": "Approval",
      "type": "event"
    },
    {
      "anonymous": false,
      "inputs": [
        {
          "indexed": true,
          "internalType": "address",
          "name": "owner",
          "type": "address"
        },
        {
          "indexed": true,
          "internalType": "address",
          "name": "operator",
          "type": "address"
        },
        {
          "indexed": false,
          "internalType": "bool",
          "name": "approved",
          "type": "bool"
        }
      ],
      "name": "ApprovalForAll",
      "type": "event"
    },
    {
      "anonymous": false,
      "inputs": [
        {
          "indexed": true,
          "internalType": "address",
          "name": "previousOwner",
          "type": "address"
        },
        {
          "indexed": true,
          "internalType": "address",
          "name": "newOwner",
          "type": "address"
        }
      ],
      "name": "OwnershipTransferred",
      "type": "event"
    },
    {
      "anonymous": false,
      "inputs": [
        {
          "indexed": true,
          "internalType": "address",
          "name": "from",
          "type": "address"
        },
        {
          "indexed": true,
          "internalType": "address",
          "name": "to",
          "type": "address"
        },
        {
          "indexed": true,
          "internalType": "uint256",
          "name": "tokenId",
          "type": "uint256"
        }
      ],
      "name": "Transfer",
      "type": "event"
    },
    {
      "anonymous": false,
      "inputs": [
        {
          "indexed": false,
          "internalType": "address",
          "name": "x",
          "type": "address"
        },
        {
          "indexed": false,
          "internalType": "uint256",
          "name": "y",
          "type": "uint256"
        }
      ],
      "name": "concluded",
      "type": "event"
    },
    {
      "inputs": [],
      "name": "active",
      "outputs": [
        {
          "internalType": "bool",
          "name": "",
          "type": "bool"
        }
      ],
      "stateMutability": "view",
      "type": "function"
    },
    {
      "inputs": [
        {
          "internalType": "address",
          "name": "_candidate",
          "type": "address"
        }
      ],
      "name": "addCandidates",
      "outputs": [],
      "stateMutability": "nonpayable",
      "type": "function"
    },
    {
      "inputs": [],
      "name": "allCandidates",
      "outputs": [
        {
          "internalType": "address[]",
          "name": "",
          "type": "address[]"
        }
      ],
      "stateMutability": "view",
      "type": "function"
    },
    {
      "inputs": [
        {
          "internalType": "address",
          "name": "to",
          "type": "address"
        },
        {
          "internalType": "uint256",
          "name": "tokenId",
          "type": "uint256"
        }
      ],
      "name": "approve",
      "outputs": [],
      "stateMutability": "nonpayable",
      "type": "function"
    },
    {
      "inputs": [
        {
          "internalType": "address",
          "name": "owner",
          "type": "address"
        }
      ],
      "name": "balanceOf",
      "outputs": [
        {
          "internalType": "uint256",
          "name": "",
          "type": "uint256"
        }
      ],
      "stateMutability": "view",
      "type": "function"
    },
    {
      "inputs": [
        {
          "internalType": "uint256",
          "name": "",
          "type": "uint256"
        }
      ],
      "name": "candidates",
      "outputs": [
        {
          "internalType": "address",
          "name": "",
          "type": "address"
        }
      ],
      "stateMutability": "view",
      "type": "function"
    },
    {
      "inputs": [],
      "name": "conclude",
      "outputs": [],
      "stateMutability": "nonpayable",
      "type": "function"
    },
    {
      "inputs": [
        {
          "internalType": "uint256",
          "name": "tokenId",
          "type": "uint256"
        }
      ],
      "name": "getApproved",
      "outputs": [
        {
          "internalType": "address",
          "name": "",
          "type": "address"
        }
      ],
      "stateMutability": "view",
      "type": "function"
    },
    {
      "inputs": [],
      "name": "highestVotes",
      "outputs": [
        {
          "internalType": "address",
          "name": "",
          "type": "address"
        },
        {
          "internalType": "uint256",
          "name": "",
          "type": "uint256"
        }
      ],
      "stateMutability": "view",
      "type": "function"
    },
    {
      "inputs": [
        {
          "internalType": "address",
          "name": "owner",
          "type": "address"
        },
        {
          "internalType": "address",
          "name": "operator",
          "type": "address"
        }
      ],
      "name": "isApprovedForAll",
      "outputs": [
        {
          "internalType": "bool",
          "name": "",
          "type": "bool"
        }
      ],
      "stateMutability": "view",
      "type": "function"
    },
    {
      "inputs": [],
      "name": "name",
      "outputs": [
        {
          "internalType": "string",
          "name": "",
          "type": "string"
        }
      ],
      "stateMutability": "view",
      "type": "function"
    },
    {
      "inputs": [],
      "name": "owner",
      "outputs": [
        {
          "internalType": "address",
          "name": "",
          "type": "address"
        }
      ],
      "stateMutability": "view",
      "type": "function"
    },
    {
      "inputs": [
        {
          "internalType": "uint256",
          "name": "tokenId",
          "type": "uint256"
        }
      ],
      "name": "ownerOf",
      "outputs": [
        {
          "internalType": "address",
          "name": "",
          "type": "address"
        }
      ],
      "stateMutability": "view",
      "type": "function"
    },
    {
      "inputs": [],
      "name": "renounceOwnership",
      "outputs": [],
      "stateMutability": "nonpayable",
      "type": "function"
    },
    {
      "inputs": [
        {
          "internalType": "address",
          "name": "to",
          "type": "address"
        }
      ],
      "name": "safeMint",
      "outputs": [],
      "stateMutability": "nonpayable",
      "type": "function"
    },
    {
      "inputs": [
        {
          "internalType": "address",
          "name": "operator",
          "type": "address"
        },
        {
          "internalType": "bool",
          "name": "approved",
          "type": "bool"
        }
      ],
      "name": "setApprovalForAll",
      "outputs": [],
      "stateMutability": "nonpayable",
      "type": "function"
    },
    {
      "inputs": [
        {
          "internalType": "bytes4",
          "name": "interfaceId",
          "type": "bytes4"
        }
      ],
      "name": "supportsInterface",
      "outputs": [
        {
          "internalType": "bool",
          "name": "",
          "type": "bool"
        }
      ],
      "stateMutability": "view",
      "type": "function"
    },
    {
      "inputs": [],
      "name": "symbol",
      "outputs": [
        {
          "internalType": "string",
          "name": "",
          "type": "string"
        }
      ],
      "stateMutability": "view",
      "type": "function"
    },
    {
      "inputs": [
        {
          "internalType": "uint256",
          "name": "tokenId",
          "type": "uint256"
        }
      ],
      "name": "tokenURI",
      "outputs": [
        {
          "internalType": "string",
          "name": "",
          "type": "string"
        }
      ],
      "stateMutability": "view",
      "type": "function"
    },
    {
      "inputs": [],
      "name": "total",
      "outputs": [
        {
          "internalType": "uint256",
          "name": "",
          "type": "uint256"
        }
      ],
      "stateMutability": "view",
      "type": "function"
    },
    {
      "inputs": [],
      "name": "totalVotesCast",
      "outputs": [
        {
          "internalType": "uint256",
          "name": "",
          "type": "uint256"
        }
      ],
      "stateMutability": "view",
      "type": "function"
    },
    {
      "inputs": [
        {
          "internalType": "address",
          "name": "newOwner",
          "type": "address"
        }
      ],
      "name": "transferOwnership",
      "outputs": [],
      "stateMutability": "nonpayable",
      "type": "function"
    },
    {
      "inputs": [
        {
          "internalType": "address",
          "name": "_candidateAddress",
          "type": "address"
        }
      ],
      "name": "vote",
      "outputs": [],
      "stateMutability": "nonpayable",
      "type": "function"
    },
    {
      "inputs": [
        {
          "internalType": "address",
          "name": "_candidateAddress",
          "type": "address"
        }
      ],
      "name": "votesForCandidate",
      "outputs": [
        {
          "internalType": "uint256",
          "name": "",
          "type": "uint256"
        }
      ],
      "stateMutability": "view",
      "type": "function"
    },
    {
      "inputs": [],
      "name": "winner",
      "outputs": [
        {
          "internalType": "address",
          "name": "",
          "type": "address"
        }
      ],
      "stateMutability": "view",
      "type": "function"
    }
  ],
  "bytecode": "0x60806040526001600960006101000a81548160ff0219169083151502179055503480156200002c57600080fd5b506040518060400160405280600681526020017f42616c6c6f7400000000000000000000000000000000000000000000000000008152506040518060400160405280600381526020017f42414c00000000000000000000000000000000000000000000000000000000008152508160009080519060200190620000b1929190620001c1565b508060019080519060200190620000ca929190620001c1565b505050620000ed620000e1620000f360201b60201c565b620000fb60201b60201c565b620002d6565b600033905090565b6000600660009054906101000a900473ffffffffffffffffffffffffffffffffffffffff16905081600660006101000a81548173ffffffffffffffffffffffffffffffffffffffff021916908373ffffffffffffffffffffffffffffffffffffffff1602179055508173ffffffffffffffffffffffffffffffffffffffff168173ffffffffffffffffffffffffffffffffffffffff167f8be0079c531659141344cd1fd0a4f28419497f9722a3daafe3b4186f6b6457e060405160405180910390a35050565b828054620001cf9062000271565b90600052602060002090601f016020900481019282620001f357600085556200023f565b82601f106200020e57805160ff19168380011785556200023f565b828001600101855582156200023f579182015b828111156200023e57825182559160200191906001019062000221565b5b5090506200024e919062000252565b5090565b5b808211156200026d57600081600090555060010162000253565b5090565b600060028204905060018216806200028a57607f821691505b60208210811415620002a157620002a0620002a7565b5b50919050565b7f4e487b7100000000000000000000000000000000000000000000000000000000600052602260045260246000fd5b61367180620002e66000396000f3fe608060405234801561001057600080fd5b50600436106101735760003560e01c80636dd7d8ea116100de57806395d89b4111610097578063dfbf53ae11610071578063dfbf53ae1461044f578063e5f929731461046d578063e985e9c514610477578063f2fde38b146104a757610173565b806395d89b41146103e5578063a22cb46514610403578063c87b56dd1461041f57610173565b80636dd7d8ea1461033557806370a0823114610351578063715018a6146103815780637de418d51461038b57806381c40715146103a95780638da5cb5b146103c757610173565b80632ddbd13a116101305780632ddbd13a1461024c5780633477ee2e1461026a5780633bc565341461029a57806340d097c3146102ca5780636352211e146102e65780636456cb0a1461031657610173565b806301ffc9a71461017857806302fb0c5e146101a857806306fdde03146101c6578063081812fc146101e457806308e49a8814610214578063095ea7b314610230575b600080fd5b610192600480360381019061018d919061252a565b6104c3565b60405161019f9190612aaf565b60405180910390f35b6101b06105a5565b6040516101bd9190612aaf565b60405180910390f35b6101ce6105b8565b6040516101db9190612aca565b60405180910390f35b6101fe60048036038101906101f9919061257c565b61064a565b60405161020b91906129fd565b60405180910390f35b61022e6004803603810190610229919061244d565b6106cf565b005b61024a600480360381019061024591906124ee565b610800565b005b610254610918565b6040516102619190612d8c565b60405180910390f35b610284600480360381019061027f919061257c565b61091e565b60405161029191906129fd565b60405180910390f35b6102b460048036038101906102af919061244d565b61095d565b6040516102c19190612d8c565b60405180910390f35b6102e460048036038101906102df919061244d565b6109be565b005b61030060048036038101906102fb919061257c565b610af6565b60405161030d91906129fd565b60405180910390f35b61031e610ba8565b60405161032c929190612a64565b60405180910390f35b61034f600480360381019061034a919061244d565b610e1b565b005b61036b6004803603810190610366919061244d565b610fad565b6040516103789190612d8c565b60405180910390f35b610389611065565b005b6103936110ed565b6040516103a09190612d8c565b60405180910390f35b6103b16111a8565b6040516103be9190612a8d565b60405180910390f35b6103cf611236565b6040516103dc91906129fd565b60405180910390f35b6103ed611260565b6040516103fa9190612aca565b60405180910390f35b61041d600480360381019061041891906124b2565b6112f2565b005b6104396004803603810190610434919061257c565b611473565b6040516104469190612aca565b60405180910390f35b61045761151a565b60405161046491906129fd565b60405180910390f35b610475611540565b005b610491600480360381019061048c9190612476565b6116e0565b60405161049e9190612aaf565b60405180910390f35b6104c160048036038101906104bc919061244d565b611774565b005b60007f591d4bc0000000000000000000000000000000000000000000000000000000007bffffffffffffffffffffffffffffffffffffffffffffffffffffffff1916827bffffffffffffffffffffffffffffffffffffffffffffffffffffffff1916148061058e57507f5b5e139f000000000000000000000000000000000000000000000000000000007bffffffffffffffffffffffffffffffffffffffffffffffffffffffff1916827bffffffffffffffffffffffffffffffffffffffffffffffffffffffff1916145b8061059e575061059d8261186c565b5b9050919050565b600960009054906101000a900460ff1681565b6060600080546105c790612f92565b80601f01602080910402602001604051908101604052809291908181526020018280546105f390612f92565b80156106405780601f1061061557610100808354040283529160200191610640565b820191906000526020600020905b81548152906001019060200180831161062357829003601f168201915b5050505050905090565b6000610655826118d6565b610694576040517f08c379a000000000000000000000000000000000000000000000000000000000815260040161068b90612c8c565b60405180910390fd5b6004600083815260200190815260200160002060009054906101000a900473ffffffffffffffffffffffffffffffffffffffff169050919050565b6106d7611942565b73ffffffffffffffffffffffffffffffffffffffff166106f5611236565b73ffffffffffffffffffffffffffffffffffffffff161461074b576040517f08c379a000000000000000000000000000000000000000000000000000000000815260040161074290612cac565b60405180910390fd5b600015156107588261194a565b15151461079a576040517f08c379a000000000000000000000000000000000000000000000000000000000815260040161079190612c6c565b60405180910390fd5b600b819080600181540180825580915050600190039060005260206000200160009091909190916101000a81548173ffffffffffffffffffffffffffffffffffffffff021916908373ffffffffffffffffffffffffffffffffffffffff16021790555050565b600061080b82610af6565b90508073ffffffffffffffffffffffffffffffffffffffff168373ffffffffffffffffffffffffffffffffffffffff16141561087c576040517f08c379a000000000000000000000000000000000000000000000000000000000815260040161087390612d0c565b60405180910390fd5b8073ffffffffffffffffffffffffffffffffffffffff1661089b611942565b73ffffffffffffffffffffffffffffffffffffffff1614806108ca57506108c9816108c4611942565b6116e0565b5b610909576040517f08c379a000000000000000000000000000000000000000000000000000000000815260040161090090612bec565b60405180910390fd5b6109138383611a2b565b505050565b60085481565b600b818154811061092e57600080fd5b906000526020600020016000915054906101000a900473ffffffffffffffffffffffffffffffffffffffff1681565b60006001151561096c8361194a565b1515146109ae576040517f08c379a00000000000000000000000000000000000000000000000000000000081526004016109a590612d2c565b60405180910390fd5b6109b782610fad565b9050919050565b6109c6611942565b73ffffffffffffffffffffffffffffffffffffffff166109e4611236565b73ffffffffffffffffffffffffffffffffffffffff1614610a3a576040517f08c379a0000000000000000000000000000000000000000000000000000000008152600401610a3190612cac565b60405180910390fd5b6000610a4582610fad565b14610a85576040517f08c379a0000000000000000000000000000000000000000000000000000000008152600401610a7c90612b6c565b60405180910390fd5b6000610a916007611ae4565b9050610a9d8282611af2565b80600a60008473ffffffffffffffffffffffffffffffffffffffff1673ffffffffffffffffffffffffffffffffffffffff16815260200190815260200160002081905550610aeb6007611b10565b806008819055505050565b6000806002600084815260200190815260200160002060009054906101000a900473ffffffffffffffffffffffffffffffffffffffff169050600073ffffffffffffffffffffffffffffffffffffffff168173ffffffffffffffffffffffffffffffffffffffff161415610b9f576040517f08c379a0000000000000000000000000000000000000000000000000000000008152600401610b9690612c2c565b60405180910390fd5b80915050919050565b6000806000600b8054905090506000610c25600b600081548110610bf5577f4e487b7100000000000000000000000000000000000000000000000000000000600052603260045260246000fd5b9060005260206000200160009054906101000a900473ffffffffffffffffffffffffffffffffffffffff16610fad565b9050600080600190505b8360ff168160ff161015610cd4576000610caf600b8360ff1681548110610c7f577f4e487b7100000000000000000000000000000000000000000000000000000000600052603260045260246000fd5b9060005260206000200160009054906101000a900473ffffffffffffffffffffffffffffffffffffffff16610fad565b905083811115610cc0578192508093505b508080610ccc9061300d565b915050610c2f565b506000805b8460ff168160ff161015610da4576000610d59600b8360ff1681548110610d29577f4e487b7100000000000000000000000000000000000000000000000000000000600052603260045260246000fd5b9060005260206000200160009054906101000a900473ffffffffffffffffffffffffffffffffffffffff16610fad565b905084811415610d72578280610d6e9061300d565b9350505b60018360ff161115610d905760008597509750505050505050610e17565b508080610d9c9061300d565b915050610cd9565b50600b8260ff1681548110610de2577f4e487b7100000000000000000000000000000000000000000000000000000000600052603260045260246000fd5b9060005260206000200160009054906101000a900473ffffffffffffffffffffffffffffffffffffffff168395509550505050505b9091565b60011515600960009054906101000a900460ff16151514610e71576040517f08c379a0000000000000000000000000000000000000000000000000000000008152600401610e6890612d4c565b60405180910390fd5b6000610e7c33610fad565b11610ebc576040517f08c379a0000000000000000000000000000000000000000000000000000000008152600401610eb390612aec565b60405180910390fd5b60011515610ec98261194a565b151514610f0b576040517f08c379a0000000000000000000000000000000000000000000000000000000008152600401610f0290612d6c565b60405180910390fd5b60001515610f183361194a565b151514610f5a576040517f08c379a0000000000000000000000000000000000000000000000000000000008152600401610f5190612bcc565b60405180910390fd5b6000600a60003373ffffffffffffffffffffffffffffffffffffffff1673ffffffffffffffffffffffffffffffffffffffff168152602001908152602001600020549050610fa9338383611b26565b5050565b60008073ffffffffffffffffffffffffffffffffffffffff168273ffffffffffffffffffffffffffffffffffffffff16141561101e576040517f08c379a000000000000000000000000000000000000000000000000000000000815260040161101590612c0c565b60405180910390fd5b600360008373ffffffffffffffffffffffffffffffffffffffff1673ffffffffffffffffffffffffffffffffffffffff168152602001908152602001600020549050919050565b61106d611942565b73ffffffffffffffffffffffffffffffffffffffff1661108b611236565b73ffffffffffffffffffffffffffffffffffffffff16146110e1576040517f08c379a00000000000000000000000000000000000000000000000000000000081526004016110d890612cac565b60405180910390fd5b6110eb6000611d82565b565b600080600090506000600b80549050905060005b8160ff168160ff16101561119f5761117f600b8260ff168154811061114f577f4e487b7100000000000000000000000000000000000000000000000000000000600052603260045260246000fd5b9060005260206000200160009054906101000a900473ffffffffffffffffffffffffffffffffffffffff1661095d565b8361118a9190612e23565b925080806111979061300d565b915050611101565b50819250505090565b6060600b80548060200260200160405190810160405280929190818152602001828054801561122c57602002820191906000526020600020905b8160009054906101000a900473ffffffffffffffffffffffffffffffffffffffff1673ffffffffffffffffffffffffffffffffffffffff16815260200190600101908083116111e2575b5050505050905090565b6000600660009054906101000a900473ffffffffffffffffffffffffffffffffffffffff16905090565b60606001805461126f90612f92565b80601f016020809104026020016040519081016040528092919081815260200182805461129b90612f92565b80156112e85780601f106112bd576101008083540402835291602001916112e8565b820191906000526020600020905b8154815290600101906020018083116112cb57829003601f168201915b5050505050905090565b6112fa611942565b73ffffffffffffffffffffffffffffffffffffffff168273ffffffffffffffffffffffffffffffffffffffff161415611368576040517f08c379a000000000000000000000000000000000000000000000000000000000815260040161135f90612bac565b60405180910390fd5b8060056000611375611942565b73ffffffffffffffffffffffffffffffffffffffff1673ffffffffffffffffffffffffffffffffffffffff16815260200190815260200160002060008473ffffffffffffffffffffffffffffffffffffffff1673ffffffffffffffffffffffffffffffffffffffff16815260200190815260200160002060006101000a81548160ff0219169083151502179055508173ffffffffffffffffffffffffffffffffffffffff16611422611942565b73ffffffffffffffffffffffffffffffffffffffff167f17307eab39ab6107e8899845ad3d59bd9653f200f220920489ca2b5937696c31836040516114679190612aaf565b60405180910390a35050565b606061147e826118d6565b6114bd576040517f08c379a00000000000000000000000000000000000000000000000000000000081526004016114b490612cec565b60405180910390fd5b60006114c7611e48565b905060008151116114e75760405180602001604052806000815250611512565b806114f184611e5f565b6040516020016115029291906129d9565b6040516020818303038152906040525b915050919050565b600c60009054906101000a900473ffffffffffffffffffffffffffffffffffffffff1681565b611548611942565b73ffffffffffffffffffffffffffffffffffffffff16611566611236565b73ffffffffffffffffffffffffffffffffffffffff16146115bc576040517f08c379a00000000000000000000000000000000000000000000000000000000081526004016115b390612cac565b60405180910390fd5b6001600960006101000a81548160ff0219169083151502179055611615576040517f08c379a000000000000000000000000000000000000000000000000000000000815260040161160c90612d4c565b60405180910390fd5b6000600960006101000a81548160ff021916908315150217905550600061163a610ba8565b600c60008294508391906101000a81548173ffffffffffffffffffffffffffffffffffffffff021916908373ffffffffffffffffffffffffffffffffffffffff16021790555050507ff264144310cc722e9c5878f1409aaa6a459e675ca4726380887865e00d34d2fa600c60009054906101000a900473ffffffffffffffffffffffffffffffffffffffff16826040516116d5929190612a64565b60405180910390a150565b6000600560008473ffffffffffffffffffffffffffffffffffffffff1673ffffffffffffffffffffffffffffffffffffffff16815260200190815260200160002060008373ffffffffffffffffffffffffffffffffffffffff1673ffffffffffffffffffffffffffffffffffffffff16815260200190815260200160002060009054906101000a900460ff16905092915050565b61177c611942565b73ffffffffffffffffffffffffffffffffffffffff1661179a611236565b73ffffffffffffffffffffffffffffffffffffffff16146117f0576040517f08c379a00000000000000000000000000000000000000000000000000000000081526004016117e790612cac565b60405180910390fd5b600073ffffffffffffffffffffffffffffffffffffffff168173ffffffffffffffffffffffffffffffffffffffff161415611860576040517f08c379a000000000000000000000000000000000000000000000000000000000815260040161185790612b2c565b60405180910390fd5b61186981611d82565b50565b60007f01ffc9a7000000000000000000000000000000000000000000000000000000007bffffffffffffffffffffffffffffffffffffffffffffffffffffffff1916827bffffffffffffffffffffffffffffffffffffffffffffffffffffffff1916149050919050565b60008073ffffffffffffffffffffffffffffffffffffffff166002600084815260200190815260200160002060009054906101000a900473ffffffffffffffffffffffffffffffffffffffff1673ffffffffffffffffffffffffffffffffffffffff1614159050919050565b600033905090565b600080600b80549050905060005b8160ff168160ff161015611a1f57600b8160ff16815481106119a3577f4e487b7100000000000000000000000000000000000000000000000000000000600052603260045260246000fd5b9060005260206000200160009054906101000a900473ffffffffffffffffffffffffffffffffffffffff1673ffffffffffffffffffffffffffffffffffffffff168473ffffffffffffffffffffffffffffffffffffffff161415611a0c57600192505050611a26565b8080611a179061300d565b915050611958565b5060009150505b919050565b816004600083815260200190815260200160002060006101000a81548173ffffffffffffffffffffffffffffffffffffffff021916908373ffffffffffffffffffffffffffffffffffffffff160217905550808273ffffffffffffffffffffffffffffffffffffffff16611a9e83610af6565b73ffffffffffffffffffffffffffffffffffffffff167f8c5be1e5ebec7d5bd14f71427d1e84f3dd0314c0f7b2291e5b200ac8c7c3b92560405160405180910390a45050565b600081600001549050919050565b611b0c82826040518060200160405280600081525061200c565b5050565b6001816000016000828254019250508190555050565b8273ffffffffffffffffffffffffffffffffffffffff16611b4682610af6565b73ffffffffffffffffffffffffffffffffffffffff1614611b9c576040517f08c379a0000000000000000000000000000000000000000000000000000000008152600401611b9390612ccc565b60405180910390fd5b600073ffffffffffffffffffffffffffffffffffffffff168273ffffffffffffffffffffffffffffffffffffffff161415611c0c576040517f08c379a0000000000000000000000000000000000000000000000000000000008152600401611c0390612b8c565b60405180910390fd5b611c17838383612067565b611c22600082611a2b565b6001600360008573ffffffffffffffffffffffffffffffffffffffff1673ffffffffffffffffffffffffffffffffffffffff1681526020019081526020016000206000828254611c729190612eaa565b925050819055506001600360008473ffffffffffffffffffffffffffffffffffffffff1673ffffffffffffffffffffffffffffffffffffffff1681526020019081526020016000206000828254611cc99190612e23565b92505081905550816002600083815260200190815260200160002060006101000a81548173ffffffffffffffffffffffffffffffffffffffff021916908373ffffffffffffffffffffffffffffffffffffffff160217905550808273ffffffffffffffffffffffffffffffffffffffff168473ffffffffffffffffffffffffffffffffffffffff167fddf252ad1be2c89b69c2b068fc378daa952ba7f163c4a11628f55a4df523b3ef60405160405180910390a4505050565b6000600660009054906101000a900473ffffffffffffffffffffffffffffffffffffffff16905081600660006101000a81548173ffffffffffffffffffffffffffffffffffffffff021916908373ffffffffffffffffffffffffffffffffffffffff1602179055508173ffffffffffffffffffffffffffffffffffffffff168173ffffffffffffffffffffffffffffffffffffffff167f8be0079c531659141344cd1fd0a4f28419497f9722a3daafe3b4186f6b6457e060405160405180910390a35050565b606060405180602001604052806000815250905090565b60606000821415611ea7576040518060400160405280600181526020017f30000000000000000000000000000000000000000000000000000000000000008152509050612007565b600082905060005b60008214611ed9578080611ec290612fc4565b915050600a82611ed29190612e79565b9150611eaf565b60008167ffffffffffffffff811115611f1b577f4e487b7100000000000000000000000000000000000000000000000000000000600052604160045260246000fd5b6040519080825280601f01601f191660200182016040528015611f4d5781602001600182028036833780820191505090505b5090505b6000851461200057600182611f669190612eaa565b9150600a85611f759190613037565b6030611f819190612e23565b60f81b818381518110611fbd577f4e487b7100000000000000000000000000000000000000000000000000000000600052603260045260246000fd5b60200101907effffffffffffffffffffffffffffffffffffffffffffffffffffffffffffff1916908160001a905350600a85611ff99190612e79565b9450611f51565b8093505050505b919050565b612016838361206c565b612023600084848461223a565b612062576040517f08c379a000000000000000000000000000000000000000000000000000000000815260040161205990612b0c565b60405180910390fd5b505050565b505050565b600073ffffffffffffffffffffffffffffffffffffffff168273ffffffffffffffffffffffffffffffffffffffff1614156120dc576040517f08c379a00000000000000000000000000000000000000000000000000000000081526004016120d390612c4c565b60405180910390fd5b6120e5816118d6565b15612125576040517f08c379a000000000000000000000000000000000000000000000000000000000815260040161211c90612b4c565b60405180910390fd5b61213160008383612067565b6001600360008473ffffffffffffffffffffffffffffffffffffffff1673ffffffffffffffffffffffffffffffffffffffff16815260200190815260200160002060008282546121819190612e23565b92505081905550816002600083815260200190815260200160002060006101000a81548173ffffffffffffffffffffffffffffffffffffffff021916908373ffffffffffffffffffffffffffffffffffffffff160217905550808273ffffffffffffffffffffffffffffffffffffffff16600073ffffffffffffffffffffffffffffffffffffffff167fddf252ad1be2c89b69c2b068fc378daa952ba7f163c4a11628f55a4df523b3ef60405160405180910390a45050565b600061225b8473ffffffffffffffffffffffffffffffffffffffff166123d1565b156123c4578373ffffffffffffffffffffffffffffffffffffffff1663150b7a02612284611942565b8786866040518563ffffffff1660e01b81526004016122a69493929190612a18565b602060405180830381600087803b1580156122c057600080fd5b505af19250505080156122f157506040513d601f19601f820116820180604052508101906122ee9190612553565b60015b612374573d8060008114612321576040519150601f19603f3d011682016040523d82523d6000602084013e612326565b606091505b5060008151141561236c576040517f08c379a000000000000000000000000000000000000000000000000000000000815260040161236390612b0c565b60405180910390fd5b805181602001fd5b63150b7a0260e01b7bffffffffffffffffffffffffffffffffffffffffffffffffffffffff1916817bffffffffffffffffffffffffffffffffffffffffffffffffffffffff1916149150506123c9565b600190505b949350505050565b600080823b905060008111915050919050565b6000813590506123f3816135df565b92915050565b600081359050612408816135f6565b92915050565b60008135905061241d8161360d565b92915050565b6000815190506124328161360d565b92915050565b60008135905061244781613624565b92915050565b60006020828403121561245f57600080fd5b600061246d848285016123e4565b91505092915050565b6000806040838503121561248957600080fd5b6000612497858286016123e4565b92505060206124a8858286016123e4565b9150509250929050565b600080604083850312156124c557600080fd5b60006124d3858286016123e4565b92505060206124e4858286016123f9565b9150509250929050565b6000806040838503121561250157600080fd5b600061250f858286016123e4565b925050602061252085828601612438565b9150509250929050565b60006020828403121561253c57600080fd5b600061254a8482850161240e565b91505092915050565b60006020828403121561256557600080fd5b600061257384828501612423565b91505092915050565b60006020828403121561258e57600080fd5b600061259c84828501612438565b91505092915050565b60006125b183836125bd565b60208301905092915050565b6125c681612ede565b82525050565b6125d581612ede565b82525050565b60006125e682612db7565b6125f08185612de5565b93506125fb83612da7565b8060005b8381101561262c57815161261388826125a5565b975061261e83612dd8565b9250506001810190506125ff565b5085935050505092915050565b61264281612ef0565b82525050565b600061265382612dc2565b61265d8185612df6565b935061266d818560208601612f5f565b612676816130f5565b840191505092915050565b600061268c82612dcd565b6126968185612e07565b93506126a6818560208601612f5f565b6126af816130f5565b840191505092915050565b60006126c582612dcd565b6126cf8185612e18565b93506126df818560208601612f5f565b80840191505092915050565b60006126f8600a83612e07565b915061270382613106565b602082019050919050565b600061271b603283612e07565b91506127268261312f565b604082019050919050565b600061273e602683612e07565b91506127498261317e565b604082019050919050565b6000612761601c83612e07565b915061276c826131cd565b602082019050919050565b6000612784600c83612e07565b915061278f826131f6565b602082019050919050565b60006127a7602483612e07565b91506127b28261321f565b604082019050919050565b60006127ca601983612e07565b91506127d58261326e565b602082019050919050565b60006127ed601683612e07565b91506127f882613297565b602082019050919050565b6000612810603883612e07565b915061281b826132c0565b604082019050919050565b6000612833602a83612e07565b915061283e8261330f565b604082019050919050565b6000612856602983612e07565b91506128618261335e565b604082019050919050565b6000612879602083612e07565b9150612884826133ad565b602082019050919050565b600061289c601083612e07565b91506128a7826133d6565b602082019050919050565b60006128bf602c83612e07565b91506128ca826133ff565b604082019050919050565b60006128e2602083612e07565b91506128ed8261344e565b602082019050919050565b6000612905602983612e07565b915061291082613477565b604082019050919050565b6000612928602f83612e07565b9150612933826134c6565b604082019050919050565b600061294b602183612e07565b915061295682613515565b604082019050919050565b600061296e601783612e07565b915061297982613564565b602082019050919050565b6000612991600983612e07565b915061299c8261358d565b602082019050919050565b60006129b4601183612e07565b91506129bf826135b6565b602082019050919050565b6129d381612f48565b82525050565b60006129e582856126ba565b91506129f182846126ba565b91508190509392505050565b6000602082019050612a1260008301846125cc565b92915050565b6000608082019050612a2d60008301876125cc565b612a3a60208301866125cc565b612a4760408301856129ca565b8181036060830152612a598184612648565b905095945050505050565b6000604082019050612a7960008301856125cc565b612a8660208301846129ca565b9392505050565b60006020820190508181036000830152612aa781846125db565b905092915050565b6000602082019050612ac46000830184612639565b92915050565b60006020820190508181036000830152612ae48184612681565b905092915050565b60006020820190508181036000830152612b05816126eb565b9050919050565b60006020820190508181036000830152612b258161270e565b9050919050565b60006020820190508181036000830152612b4581612731565b9050919050565b60006020820190508181036000830152612b6581612754565b9050919050565b60006020820190508181036000830152612b8581612777565b9050919050565b60006020820190508181036000830152612ba58161279a565b9050919050565b60006020820190508181036000830152612bc5816127bd565b9050919050565b60006020820190508181036000830152612be5816127e0565b9050919050565b60006020820190508181036000830152612c0581612803565b9050919050565b60006020820190508181036000830152612c2581612826565b9050919050565b60006020820190508181036000830152612c4581612849565b9050919050565b60006020820190508181036000830152612c658161286c565b9050919050565b60006020820190508181036000830152612c858161288f565b9050919050565b60006020820190508181036000830152612ca5816128b2565b9050919050565b60006020820190508181036000830152612cc5816128d5565b9050919050565b60006020820190508181036000830152612ce5816128f8565b9050919050565b60006020820190508181036000830152612d058161291b565b9050919050565b60006020820190508181036000830152612d258161293e565b9050919050565b60006020820190508181036000830152612d4581612961565b9050919050565b60006020820190508181036000830152612d6581612984565b9050919050565b60006020820190508181036000830152612d85816129a7565b9050919050565b6000602082019050612da160008301846129ca565b92915050565b6000819050602082019050919050565b600081519050919050565b600081519050919050565b600081519050919050565b6000602082019050919050565b600082825260208201905092915050565b600082825260208201905092915050565b600082825260208201905092915050565b600081905092915050565b6000612e2e82612f48565b9150612e3983612f48565b9250827fffffffffffffffffffffffffffffffffffffffffffffffffffffffffffffffff03821115612e6e57612e6d613068565b5b828201905092915050565b6000612e8482612f48565b9150612e8f83612f48565b925082612e9f57612e9e613097565b5b828204905092915050565b6000612eb582612f48565b9150612ec083612f48565b925082821015612ed357612ed2613068565b5b828203905092915050565b6000612ee982612f28565b9050919050565b60008115159050919050565b60007fffffffff0000000000000000000000000000000000000000000000000000000082169050919050565b600073ffffffffffffffffffffffffffffffffffffffff82169050919050565b6000819050919050565b600060ff82169050919050565b60005b83811015612f7d578082015181840152602081019050612f62565b83811115612f8c576000848401525b50505050565b60006002820490506001821680612faa57607f821691505b60208210811415612fbe57612fbd6130c6565b5b50919050565b6000612fcf82612f48565b91507fffffffffffffffffffffffffffffffffffffffffffffffffffffffffffffffff82141561300257613001613068565b5b600182019050919050565b600061301882612f52565b915060ff82141561302c5761302b613068565b5b600182019050919050565b600061304282612f48565b915061304d83612f48565b92508261305d5761305c613097565b5b828206905092915050565b7f4e487b7100000000000000000000000000000000000000000000000000000000600052601160045260246000fd5b7f4e487b7100000000000000000000000000000000000000000000000000000000600052601260045260246000fd5b7f4e487b7100000000000000000000000000000000000000000000000000000000600052602260045260246000fd5b6000601f19601f8301169050919050565b7f4e6f2042616c6c6f747300000000000000000000000000000000000000000000600082015250565b7f4552433732313a207472616e7366657220746f206e6f6e20455243373231526560008201527f63656976657220696d706c656d656e7465720000000000000000000000000000602082015250565b7f4f776e61626c653a206e6577206f776e657220697320746865207a65726f206160008201527f6464726573730000000000000000000000000000000000000000000000000000602082015250565b7f4552433732313a20746f6b656e20616c7265616479206d696e74656400000000600082015250565b7f42616c6c6f7420466f756e640000000000000000000000000000000000000000600082015250565b7f4552433732313a207472616e7366657220746f20746865207a65726f2061646460008201527f7265737300000000000000000000000000000000000000000000000000000000602082015250565b7f4552433732313a20617070726f766520746f2063616c6c657200000000000000600082015250565b7f43616e646964617465732043616e6e6f7420566f746500000000000000000000600082015250565b7f4552433732313a20617070726f76652063616c6c6572206973206e6f74206f7760008201527f6e6572206e6f7220617070726f76656420666f7220616c6c0000000000000000602082015250565b7f4552433732313a2062616c616e636520717565727920666f7220746865207a6560008201527f726f206164647265737300000000000000000000000000000000000000000000602082015250565b7f4552433732313a206f776e657220717565727920666f72206e6f6e657869737460008201527f656e7420746f6b656e0000000000000000000000000000000000000000000000602082015250565b7f4552433732313a206d696e7420746f20746865207a65726f2061646472657373600082015250565b7f43616e6469646174652045786973747300000000000000000000000000000000600082015250565b7f4552433732313a20617070726f76656420717565727920666f72206e6f6e657860008201527f697374656e7420746f6b656e0000000000000000000000000000000000000000602082015250565b7f4f776e61626c653a2063616c6c6572206973206e6f7420746865206f776e6572600082015250565b7f4552433732313a207472616e73666572206f6620746f6b656e2074686174206960008201527f73206e6f74206f776e0000000000000000000000000000000000000000000000602082015250565b7f4552433732314d657461646174613a2055524920717565727920666f72206e6f60008201527f6e6578697374656e7420746f6b656e0000000000000000000000000000000000602082015250565b7f4552433732313a20617070726f76616c20746f2063757272656e74206f776e6560008201527f7200000000000000000000000000000000000000000000000000000000000000602082015250565b7f43616e64696461746520446f65736e2774204578697374000000000000000000600082015250565b7f436f6e636c756465640000000000000000000000000000000000000000000000600082015250565b7f496e76616c69642043616e646964617465000000000000000000000000000000600082015250565b6135e881612ede565b81146135f357600080fd5b50565b6135ff81612ef0565b811461360a57600080fd5b50565b61361681612efc565b811461362157600080fd5b50565b61362d81612f48565b811461363857600080fd5b5056fea2646970667358221220b77a085662f89c50f7c65d7bf4c1fb1d08d9be5ae12d0b0eb2e8ec9d588565ef64736f6c63430008030033",
  "linkReferences": {},
  "deployedLinkReferences": {}
}