{
  "_format": "hh-sol-artifact-1",
  "contractName": "NFTVoting",
  "sourceName": "contracts/Voting.sol",
  "abi": [
    {
      "inputs": [],
      "stateMutability": "nonpayable",
      "type": "constructor"
    },
    {
      "anonymous": false,
      "inputs": [
        {
          "indexed": true,
          "internalType": "address",
          "name": "owner",
          "type": "address"
        },
        {
          "indexed": true,
          "internalType": "address",
          "name": "approved",
          "type": "address"
        },
        {
          "indexed": true,
          "internalType": "uint256",
          "name": "tokenId",
          "type": "uint256"
        }
      ],
      "name": "Approval",
      "type": "event"
    },
    {
      "anonymous": false,
      "inputs": [
        {
          "indexed": true,
          "internalType": "address",
          "name": "owner",
          "type": "address"
        },
        {
          "indexed": true,
          "internalType": "address",
          "name": "operator",
          "type": "address"
        },
        {
          "indexed": false,
          "internalType": "bool",
          "name": "approved",
          "type": "bool"
        }
      ],
      "name": "ApprovalForAll",
      "type": "event"
    },
    {
      "anonymous": false,
      "inputs": [
        {
          "indexed": true,
          "internalType": "address",
          "name": "previousOwner",
          "type": "address"
        },
        {
          "indexed": true,
          "internalType": "address",
          "name": "newOwner",
          "type": "address"
        }
      ],
      "name": "OwnershipTransferred",
      "type": "event"
    },
    {
      "anonymous": false,
      "inputs": [
        {
          "indexed": true,
          "internalType": "address",
          "name": "from",
          "type": "address"
        },
        {
          "indexed": true,
          "internalType": "address",
          "name": "to",
          "type": "address"
        },
        {
          "indexed": true,
          "internalType": "uint256",
          "name": "tokenId",
          "type": "uint256"
        }
      ],
      "name": "Transfer",
      "type": "event"
    },
    {
      "anonymous": false,
      "inputs": [
        {
          "indexed": false,
          "internalType": "address",
          "name": "winner",
          "type": "address"
        },
        {
          "indexed": false,
          "internalType": "uint256",
          "name": "votes",
          "type": "uint256"
        }
      ],
      "name": "concluded",
      "type": "event"
    },
    {
      "inputs": [],
      "name": "active",
      "outputs": [
        {
          "internalType": "bool",
          "name": "",
          "type": "bool"
        }
      ],
      "stateMutability": "view",
      "type": "function"
    },
    {
      "inputs": [
        {
          "internalType": "address",
          "name": "_candidate",
          "type": "address"
        }
      ],
      "name": "addCandidates",
      "outputs": [],
      "stateMutability": "nonpayable",
      "type": "function"
    },
    {
      "inputs": [],
      "name": "allCandidates",
      "outputs": [
        {
          "internalType": "address[]",
          "name": "",
          "type": "address[]"
        }
      ],
      "stateMutability": "view",
      "type": "function"
    },
    {
      "inputs": [
        {
          "internalType": "address",
          "name": "to",
          "type": "address"
        },
        {
          "internalType": "uint256",
          "name": "tokenId",
          "type": "uint256"
        }
      ],
      "name": "approve",
      "outputs": [],
      "stateMutability": "nonpayable",
      "type": "function"
    },
    {
      "inputs": [
        {
          "internalType": "address",
          "name": "owner",
          "type": "address"
        }
      ],
      "name": "balanceOf",
      "outputs": [
        {
          "internalType": "uint256",
          "name": "",
          "type": "uint256"
        }
      ],
      "stateMutability": "view",
      "type": "function"
    },
    {
      "inputs": [
        {
          "internalType": "uint256",
          "name": "",
          "type": "uint256"
        }
      ],
      "name": "candidates",
      "outputs": [
        {
          "internalType": "address",
          "name": "",
          "type": "address"
        }
      ],
      "stateMutability": "view",
      "type": "function"
    },
    {
      "inputs": [],
      "name": "conclude",
      "outputs": [],
      "stateMutability": "nonpayable",
      "type": "function"
    },
    {
      "inputs": [
        {
          "internalType": "uint256",
          "name": "tokenId",
          "type": "uint256"
        }
      ],
      "name": "getApproved",
      "outputs": [
        {
          "internalType": "address",
          "name": "",
          "type": "address"
        }
      ],
      "stateMutability": "view",
      "type": "function"
    },
    {
      "inputs": [],
      "name": "highestVotes",
      "outputs": [
        {
          "internalType": "address",
          "name": "",
          "type": "address"
        },
        {
          "internalType": "uint256",
          "name": "",
          "type": "uint256"
        }
      ],
      "stateMutability": "view",
      "type": "function"
    },
    {
      "inputs": [
        {
          "internalType": "address",
          "name": "owner",
          "type": "address"
        },
        {
          "internalType": "address",
          "name": "operator",
          "type": "address"
        }
      ],
      "name": "isApprovedForAll",
      "outputs": [
        {
          "internalType": "bool",
          "name": "",
          "type": "bool"
        }
      ],
      "stateMutability": "view",
      "type": "function"
    },
    {
      "inputs": [],
      "name": "name",
      "outputs": [
        {
          "internalType": "string",
          "name": "",
          "type": "string"
        }
      ],
      "stateMutability": "view",
      "type": "function"
    },
    {
      "inputs": [],
      "name": "owner",
      "outputs": [
        {
          "internalType": "address",
          "name": "",
          "type": "address"
        }
      ],
      "stateMutability": "view",
      "type": "function"
    },
    {
      "inputs": [
        {
          "internalType": "uint256",
          "name": "tokenId",
          "type": "uint256"
        }
      ],
      "name": "ownerOf",
      "outputs": [
        {
          "internalType": "address",
          "name": "",
          "type": "address"
        }
      ],
      "stateMutability": "view",
      "type": "function"
    },
    {
      "inputs": [],
      "name": "renounceOwnership",
      "outputs": [],
      "stateMutability": "nonpayable",
      "type": "function"
    },
    {
      "inputs": [
        {
          "internalType": "address",
          "name": "to",
          "type": "address"
        }
      ],
      "name": "safeMint",
      "outputs": [],
      "stateMutability": "nonpayable",
      "type": "function"
    },
    {
      "inputs": [
        {
          "internalType": "address[]",
          "name": "_addresses",
          "type": "address[]"
        }
      ],
      "name": "safeMintMany",
      "outputs": [],
      "stateMutability": "nonpayable",
      "type": "function"
    },
    {
      "inputs": [
        {
          "internalType": "address",
          "name": "operator",
          "type": "address"
        },
        {
          "internalType": "bool",
          "name": "approved",
          "type": "bool"
        }
      ],
      "name": "setApprovalForAll",
      "outputs": [],
      "stateMutability": "nonpayable",
      "type": "function"
    },
    {
      "inputs": [
        {
          "internalType": "bytes4",
          "name": "interfaceId",
          "type": "bytes4"
        }
      ],
      "name": "supportsInterface",
      "outputs": [
        {
          "internalType": "bool",
          "name": "",
          "type": "bool"
        }
      ],
      "stateMutability": "view",
      "type": "function"
    },
    {
      "inputs": [],
      "name": "symbol",
      "outputs": [
        {
          "internalType": "string",
          "name": "",
          "type": "string"
        }
      ],
      "stateMutability": "view",
      "type": "function"
    },
    {
      "inputs": [
        {
          "internalType": "uint256",
          "name": "tokenId",
          "type": "uint256"
        }
      ],
      "name": "tokenURI",
      "outputs": [
        {
          "internalType": "string",
          "name": "",
          "type": "string"
        }
      ],
      "stateMutability": "view",
      "type": "function"
    },
    {
      "inputs": [],
      "name": "total",
      "outputs": [
        {
          "internalType": "uint256",
          "name": "",
          "type": "uint256"
        }
      ],
      "stateMutability": "view",
      "type": "function"
    },
    {
      "inputs": [],
      "name": "totalVotesCast",
      "outputs": [
        {
          "internalType": "uint256",
          "name": "",
          "type": "uint256"
        }
      ],
      "stateMutability": "view",
      "type": "function"
    },
    {
      "inputs": [
        {
          "internalType": "address",
          "name": "newOwner",
          "type": "address"
        }
      ],
      "name": "transferOwnership",
      "outputs": [],
      "stateMutability": "nonpayable",
      "type": "function"
    },
    {
      "inputs": [
        {
          "internalType": "address",
          "name": "_candidateAddress",
          "type": "address"
        }
      ],
      "name": "vote",
      "outputs": [],
      "stateMutability": "nonpayable",
      "type": "function"
    },
    {
      "inputs": [
        {
          "internalType": "address",
          "name": "_candidateAddress",
          "type": "address"
        }
      ],
      "name": "votesForCandidate",
      "outputs": [
        {
          "internalType": "uint256",
          "name": "",
          "type": "uint256"
        }
      ],
      "stateMutability": "view",
      "type": "function"
    },
    {
      "inputs": [],
      "name": "winner",
      "outputs": [
        {
          "internalType": "address",
          "name": "",
          "type": "address"
        }
      ],
      "stateMutability": "view",
      "type": "function"
    }
  ],
  "bytecode": "0x60806040526001600960006101000a81548160ff0219169083151502179055503480156200002c57600080fd5b506040518060400160405280600681526020017f42616c6c6f7400000000000000000000000000000000000000000000000000008152506040518060400160405280600381526020017f42414c00000000000000000000000000000000000000000000000000000000008152508160009080519060200190620000b1929190620001c1565b508060019080519060200190620000ca929190620001c1565b505050620000ed620000e1620000f360201b60201c565b620000fb60201b60201c565b620002d6565b600033905090565b6000600660009054906101000a900473ffffffffffffffffffffffffffffffffffffffff16905081600660006101000a81548173ffffffffffffffffffffffffffffffffffffffff021916908373ffffffffffffffffffffffffffffffffffffffff1602179055508173ffffffffffffffffffffffffffffffffffffffff168173ffffffffffffffffffffffffffffffffffffffff167f8be0079c531659141344cd1fd0a4f28419497f9722a3daafe3b4186f6b6457e060405160405180910390a35050565b828054620001cf9062000271565b90600052602060002090601f016020900481019282620001f357600085556200023f565b82601f106200020e57805160ff19168380011785556200023f565b828001600101855582156200023f579182015b828111156200023e57825182559160200191906001019062000221565b5b5090506200024e919062000252565b5090565b5b808211156200026d57600081600090555060010162000253565b5090565b600060028204905060018216806200028a57607f821691505b60208210811415620002a157620002a0620002a7565b5b50919050565b7f4e487b7100000000000000000000000000000000000000000000000000000000600052602260045260246000fd5b61392480620002e66000396000f3fe608060405234801561001057600080fd5b506004361061018e5760003560e01c80636dd7d8ea116100de57806395d89b4111610097578063dfbf53ae11610071578063dfbf53ae14610486578063e5f92973146104a4578063e985e9c5146104ae578063f2fde38b146104de5761018e565b806395d89b411461041c578063a22cb4651461043a578063c87b56dd146104565761018e565b80636dd7d8ea1461036c57806370a0823114610388578063715018a6146103b85780637de418d5146103c257806381c40715146103e05780638da5cb5b146103fe5761018e565b8063249e7c121161014b5780633bc56534116101255780633bc56534146102d157806340d097c3146103015780636352211e1461031d5780636456cb0a1461034d5761018e565b8063249e7c12146102675780632ddbd13a146102835780633477ee2e146102a15761018e565b806301ffc9a71461019357806302fb0c5e146101c357806306fdde03146101e1578063081812fc146101ff57806308e49a881461022f578063095ea7b31461024b575b600080fd5b6101ad60048036038101906101a8919061272c565b6104fa565b6040516101ba9190612cb1565b60405180910390f35b6101cb6105dc565b6040516101d89190612cb1565b60405180910390f35b6101e96105ef565b6040516101f69190612ccc565b60405180910390f35b6102196004803603810190610214919061277e565b610681565b6040516102269190612bff565b60405180910390f35b6102496004803603810190610244919061260e565b610706565b005b610265600480360381019061026091906126af565b610837565b005b610281600480360381019061027c91906126eb565b61094f565b005b61028b610a43565b6040516102989190612f8e565b60405180910390f35b6102bb60048036038101906102b6919061277e565b610a49565b6040516102c89190612bff565b60405180910390f35b6102eb60048036038101906102e6919061260e565b610a88565b6040516102f89190612f8e565b60405180910390f35b61031b6004803603810190610316919061260e565b610ae9565b005b6103376004803603810190610332919061277e565b610c21565b6040516103449190612bff565b60405180910390f35b610355610cd3565b604051610363929190612c66565b60405180910390f35b6103866004803603810190610381919061260e565b610f46565b005b6103a2600480360381019061039d919061260e565b6110d8565b6040516103af9190612f8e565b60405180910390f35b6103c0611190565b005b6103ca611218565b6040516103d79190612f8e565b60405180910390f35b6103e86112d3565b6040516103f59190612c8f565b60405180910390f35b610406611361565b6040516104139190612bff565b60405180910390f35b61042461138b565b6040516104319190612ccc565b60405180910390f35b610454600480360381019061044f9190612673565b61141d565b005b610470600480360381019061046b919061277e565b61159e565b60405161047d9190612ccc565b60405180910390f35b61048e611645565b60405161049b9190612bff565b60405180910390f35b6104ac61166b565b005b6104c860048036038101906104c39190612637565b61180b565b6040516104d59190612cb1565b60405180910390f35b6104f860048036038101906104f3919061260e565b61189f565b005b60007f591d4bc0000000000000000000000000000000000000000000000000000000007bffffffffffffffffffffffffffffffffffffffffffffffffffffffff1916827bffffffffffffffffffffffffffffffffffffffffffffffffffffffff191614806105c557507f5b5e139f000000000000000000000000000000000000000000000000000000007bffffffffffffffffffffffffffffffffffffffffffffffffffffffff1916827bffffffffffffffffffffffffffffffffffffffffffffffffffffffff1916145b806105d557506105d482611997565b5b9050919050565b600960009054906101000a900460ff1681565b6060600080546105fe906131e5565b80601f016020809104026020016040519081016040528092919081815260200182805461062a906131e5565b80156106775780601f1061064c57610100808354040283529160200191610677565b820191906000526020600020905b81548152906001019060200180831161065a57829003601f168201915b5050505050905090565b600061068c82611a01565b6106cb576040517f08c379a00000000000000000000000000000000000000000000000000000000081526004016106c290612e8e565b60405180910390fd5b6004600083815260200190815260200160002060009054906101000a900473ffffffffffffffffffffffffffffffffffffffff169050919050565b61070e611a6d565b73ffffffffffffffffffffffffffffffffffffffff1661072c611361565b73ffffffffffffffffffffffffffffffffffffffff1614610782576040517f08c379a000000000000000000000000000000000000000000000000000000000815260040161077990612eae565b60405180910390fd5b6000151561078f82611a75565b1515146107d1576040517f08c379a00000000000000000000000000000000000000000000000000000000081526004016107c890612e6e565b60405180910390fd5b600b819080600181540180825580915050600190039060005260206000200160009091909190916101000a81548173ffffffffffffffffffffffffffffffffffffffff021916908373ffffffffffffffffffffffffffffffffffffffff16021790555050565b600061084282610c21565b90508073ffffffffffffffffffffffffffffffffffffffff168373ffffffffffffffffffffffffffffffffffffffff1614156108b3576040517f08c379a00000000000000000000000000000000000000000000000000000000081526004016108aa90612f0e565b60405180910390fd5b8073ffffffffffffffffffffffffffffffffffffffff166108d2611a6d565b73ffffffffffffffffffffffffffffffffffffffff1614806109015750610900816108fb611a6d565b61180b565b5b610940576040517f08c379a000000000000000000000000000000000000000000000000000000000815260040161093790612dee565b60405180910390fd5b61094a8383611b56565b505050565b610957611a6d565b73ffffffffffffffffffffffffffffffffffffffff16610975611361565b73ffffffffffffffffffffffffffffffffffffffff16146109cb576040517f08c379a00000000000000000000000000000000000000000000000000000000081526004016109c290612eae565b60405180910390fd5b60008151905060005b818160ff161015610a3e57610a2b838260ff1681518110610a1e577f4e487b7100000000000000000000000000000000000000000000000000000000600052603260045260246000fd5b6020026020010151610ae9565b8080610a3690613291565b9150506109d4565b505050565b60085481565b600b8181548110610a5957600080fd5b906000526020600020016000915054906101000a900473ffffffffffffffffffffffffffffffffffffffff1681565b600060011515610a9783611a75565b151514610ad9576040517f08c379a0000000000000000000000000000000000000000000000000000000008152600401610ad090612f2e565b60405180910390fd5b610ae2826110d8565b9050919050565b610af1611a6d565b73ffffffffffffffffffffffffffffffffffffffff16610b0f611361565b73ffffffffffffffffffffffffffffffffffffffff1614610b65576040517f08c379a0000000000000000000000000000000000000000000000000000000008152600401610b5c90612eae565b60405180910390fd5b6000610b70826110d8565b14610bb0576040517f08c379a0000000000000000000000000000000000000000000000000000000008152600401610ba790612d6e565b60405180910390fd5b6000610bbc6007611c0f565b9050610bc88282611c1d565b80600a60008473ffffffffffffffffffffffffffffffffffffffff1673ffffffffffffffffffffffffffffffffffffffff16815260200190815260200160002081905550610c166007611c3b565b806008819055505050565b6000806002600084815260200190815260200160002060009054906101000a900473ffffffffffffffffffffffffffffffffffffffff169050600073ffffffffffffffffffffffffffffffffffffffff168173ffffffffffffffffffffffffffffffffffffffff161415610cca576040517f08c379a0000000000000000000000000000000000000000000000000000000008152600401610cc190612e2e565b60405180910390fd5b80915050919050565b6000806000600b8054905090506000610d50600b600081548110610d20577f4e487b7100000000000000000000000000000000000000000000000000000000600052603260045260246000fd5b9060005260206000200160009054906101000a900473ffffffffffffffffffffffffffffffffffffffff166110d8565b9050600080600190505b8360ff168160ff161015610dff576000610dda600b8360ff1681548110610daa577f4e487b7100000000000000000000000000000000000000000000000000000000600052603260045260246000fd5b9060005260206000200160009054906101000a900473ffffffffffffffffffffffffffffffffffffffff166110d8565b905083811115610deb578192508093505b508080610df790613291565b915050610d5a565b506000805b8460ff168160ff161015610ecf576000610e84600b8360ff1681548110610e54577f4e487b7100000000000000000000000000000000000000000000000000000000600052603260045260246000fd5b9060005260206000200160009054906101000a900473ffffffffffffffffffffffffffffffffffffffff166110d8565b905084811415610e9d578280610e9990613291565b9350505b60018360ff161115610ebb5760008597509750505050505050610f42565b508080610ec790613291565b915050610e04565b50600b8260ff1681548110610f0d577f4e487b7100000000000000000000000000000000000000000000000000000000600052603260045260246000fd5b9060005260206000200160009054906101000a900473ffffffffffffffffffffffffffffffffffffffff168395509550505050505b9091565b60011515600960009054906101000a900460ff16151514610f9c576040517f08c379a0000000000000000000000000000000000000000000000000000000008152600401610f9390612f4e565b60405180910390fd5b6000610fa7336110d8565b11610fe7576040517f08c379a0000000000000000000000000000000000000000000000000000000008152600401610fde90612cee565b60405180910390fd5b60011515610ff482611a75565b151514611036576040517f08c379a000000000000000000000000000000000000000000000000000000000815260040161102d90612f6e565b60405180910390fd5b6000151561104333611a75565b151514611085576040517f08c379a000000000000000000000000000000000000000000000000000000000815260040161107c90612dce565b60405180910390fd5b6000600a60003373ffffffffffffffffffffffffffffffffffffffff1673ffffffffffffffffffffffffffffffffffffffff1681526020019081526020016000205490506110d4338383611c51565b5050565b60008073ffffffffffffffffffffffffffffffffffffffff168273ffffffffffffffffffffffffffffffffffffffff161415611149576040517f08c379a000000000000000000000000000000000000000000000000000000000815260040161114090612e0e565b60405180910390fd5b600360008373ffffffffffffffffffffffffffffffffffffffff1673ffffffffffffffffffffffffffffffffffffffff168152602001908152602001600020549050919050565b611198611a6d565b73ffffffffffffffffffffffffffffffffffffffff166111b6611361565b73ffffffffffffffffffffffffffffffffffffffff161461120c576040517f08c379a000000000000000000000000000000000000000000000000000000000815260040161120390612eae565b60405180910390fd5b6112166000611ead565b565b600080600090506000600b80549050905060005b8160ff168160ff1610156112ca576112aa600b8260ff168154811061127a577f4e487b7100000000000000000000000000000000000000000000000000000000600052603260045260246000fd5b9060005260206000200160009054906101000a900473ffffffffffffffffffffffffffffffffffffffff16610a88565b836112b59190613076565b925080806112c290613291565b91505061122c565b50819250505090565b6060600b80548060200260200160405190810160405280929190818152602001828054801561135757602002820191906000526020600020905b8160009054906101000a900473ffffffffffffffffffffffffffffffffffffffff1673ffffffffffffffffffffffffffffffffffffffff168152602001906001019080831161130d575b5050505050905090565b6000600660009054906101000a900473ffffffffffffffffffffffffffffffffffffffff16905090565b60606001805461139a906131e5565b80601f01602080910402602001604051908101604052809291908181526020018280546113c6906131e5565b80156114135780601f106113e857610100808354040283529160200191611413565b820191906000526020600020905b8154815290600101906020018083116113f657829003601f168201915b5050505050905090565b611425611a6d565b73ffffffffffffffffffffffffffffffffffffffff168273ffffffffffffffffffffffffffffffffffffffff161415611493576040517f08c379a000000000000000000000000000000000000000000000000000000000815260040161148a90612dae565b60405180910390fd5b80600560006114a0611a6d565b73ffffffffffffffffffffffffffffffffffffffff1673ffffffffffffffffffffffffffffffffffffffff16815260200190815260200160002060008473ffffffffffffffffffffffffffffffffffffffff1673ffffffffffffffffffffffffffffffffffffffff16815260200190815260200160002060006101000a81548160ff0219169083151502179055508173ffffffffffffffffffffffffffffffffffffffff1661154d611a6d565b73ffffffffffffffffffffffffffffffffffffffff167f17307eab39ab6107e8899845ad3d59bd9653f200f220920489ca2b5937696c31836040516115929190612cb1565b60405180910390a35050565b60606115a982611a01565b6115e8576040517f08c379a00000000000000000000000000000000000000000000000000000000081526004016115df90612eee565b60405180910390fd5b60006115f2611f73565b90506000815111611612576040518060200160405280600081525061163d565b8061161c84611f8a565b60405160200161162d929190612bdb565b6040516020818303038152906040525b915050919050565b600c60009054906101000a900473ffffffffffffffffffffffffffffffffffffffff1681565b611673611a6d565b73ffffffffffffffffffffffffffffffffffffffff16611691611361565b73ffffffffffffffffffffffffffffffffffffffff16146116e7576040517f08c379a00000000000000000000000000000000000000000000000000000000081526004016116de90612eae565b60405180910390fd5b6001600960006101000a81548160ff0219169083151502179055611740576040517f08c379a000000000000000000000000000000000000000000000000000000000815260040161173790612f4e565b60405180910390fd5b6000600960006101000a81548160ff0219169083151502179055506000611765610cd3565b600c60008294508391906101000a81548173ffffffffffffffffffffffffffffffffffffffff021916908373ffffffffffffffffffffffffffffffffffffffff16021790555050507ff264144310cc722e9c5878f1409aaa6a459e675ca4726380887865e00d34d2fa600c60009054906101000a900473ffffffffffffffffffffffffffffffffffffffff1682604051611800929190612c66565b60405180910390a150565b6000600560008473ffffffffffffffffffffffffffffffffffffffff1673ffffffffffffffffffffffffffffffffffffffff16815260200190815260200160002060008373ffffffffffffffffffffffffffffffffffffffff1673ffffffffffffffffffffffffffffffffffffffff16815260200190815260200160002060009054906101000a900460ff16905092915050565b6118a7611a6d565b73ffffffffffffffffffffffffffffffffffffffff166118c5611361565b73ffffffffffffffffffffffffffffffffffffffff161461191b576040517f08c379a000000000000000000000000000000000000000000000000000000000815260040161191290612eae565b60405180910390fd5b600073ffffffffffffffffffffffffffffffffffffffff168173ffffffffffffffffffffffffffffffffffffffff16141561198b576040517f08c379a000000000000000000000000000000000000000000000000000000000815260040161198290612d2e565b60405180910390fd5b61199481611ead565b50565b60007f01ffc9a7000000000000000000000000000000000000000000000000000000007bffffffffffffffffffffffffffffffffffffffffffffffffffffffff1916827bffffffffffffffffffffffffffffffffffffffffffffffffffffffff1916149050919050565b60008073ffffffffffffffffffffffffffffffffffffffff166002600084815260200190815260200160002060009054906101000a900473ffffffffffffffffffffffffffffffffffffffff1673ffffffffffffffffffffffffffffffffffffffff1614159050919050565b600033905090565b600080600b80549050905060005b8160ff168160ff161015611b4a57600b8160ff1681548110611ace577f4e487b7100000000000000000000000000000000000000000000000000000000600052603260045260246000fd5b9060005260206000200160009054906101000a900473ffffffffffffffffffffffffffffffffffffffff1673ffffffffffffffffffffffffffffffffffffffff168473ffffffffffffffffffffffffffffffffffffffff161415611b3757600192505050611b51565b8080611b4290613291565b915050611a83565b5060009150505b919050565b816004600083815260200190815260200160002060006101000a81548173ffffffffffffffffffffffffffffffffffffffff021916908373ffffffffffffffffffffffffffffffffffffffff160217905550808273ffffffffffffffffffffffffffffffffffffffff16611bc983610c21565b73ffffffffffffffffffffffffffffffffffffffff167f8c5be1e5ebec7d5bd14f71427d1e84f3dd0314c0f7b2291e5b200ac8c7c3b92560405160405180910390a45050565b600081600001549050919050565b611c37828260405180602001604052806000815250612137565b5050565b6001816000016000828254019250508190555050565b8273ffffffffffffffffffffffffffffffffffffffff16611c7182610c21565b73ffffffffffffffffffffffffffffffffffffffff1614611cc7576040517f08c379a0000000000000000000000000000000000000000000000000000000008152600401611cbe90612ece565b60405180910390fd5b600073ffffffffffffffffffffffffffffffffffffffff168273ffffffffffffffffffffffffffffffffffffffff161415611d37576040517f08c379a0000000000000000000000000000000000000000000000000000000008152600401611d2e90612d8e565b60405180910390fd5b611d42838383612192565b611d4d600082611b56565b6001600360008573ffffffffffffffffffffffffffffffffffffffff1673ffffffffffffffffffffffffffffffffffffffff1681526020019081526020016000206000828254611d9d91906130fd565b925050819055506001600360008473ffffffffffffffffffffffffffffffffffffffff1673ffffffffffffffffffffffffffffffffffffffff1681526020019081526020016000206000828254611df49190613076565b92505081905550816002600083815260200190815260200160002060006101000a81548173ffffffffffffffffffffffffffffffffffffffff021916908373ffffffffffffffffffffffffffffffffffffffff160217905550808273ffffffffffffffffffffffffffffffffffffffff168473ffffffffffffffffffffffffffffffffffffffff167fddf252ad1be2c89b69c2b068fc378daa952ba7f163c4a11628f55a4df523b3ef60405160405180910390a4505050565b6000600660009054906101000a900473ffffffffffffffffffffffffffffffffffffffff16905081600660006101000a81548173ffffffffffffffffffffffffffffffffffffffff021916908373ffffffffffffffffffffffffffffffffffffffff1602179055508173ffffffffffffffffffffffffffffffffffffffff168173ffffffffffffffffffffffffffffffffffffffff167f8be0079c531659141344cd1fd0a4f28419497f9722a3daafe3b4186f6b6457e060405160405180910390a35050565b606060405180602001604052806000815250905090565b60606000821415611fd2576040518060400160405280600181526020017f30000000000000000000000000000000000000000000000000000000000000008152509050612132565b600082905060005b60008214612004578080611fed90613248565b915050600a82611ffd91906130cc565b9150611fda565b60008167ffffffffffffffff811115612046577f4e487b7100000000000000000000000000000000000000000000000000000000600052604160045260246000fd5b6040519080825280601f01601f1916602001820160405280156120785781602001600182028036833780820191505090505b5090505b6000851461212b5760018261209191906130fd565b9150600a856120a091906132bb565b60306120ac9190613076565b60f81b8183815181106120e8577f4e487b7100000000000000000000000000000000000000000000000000000000600052603260045260246000fd5b60200101907effffffffffffffffffffffffffffffffffffffffffffffffffffffffffffff1916908160001a905350600a8561212491906130cc565b945061207c565b8093505050505b919050565b6121418383612197565b61214e6000848484612365565b61218d576040517f08c379a000000000000000000000000000000000000000000000000000000000815260040161218490612d0e565b60405180910390fd5b505050565b505050565b600073ffffffffffffffffffffffffffffffffffffffff168273ffffffffffffffffffffffffffffffffffffffff161415612207576040517f08c379a00000000000000000000000000000000000000000000000000000000081526004016121fe90612e4e565b60405180910390fd5b61221081611a01565b15612250576040517f08c379a000000000000000000000000000000000000000000000000000000000815260040161224790612d4e565b60405180910390fd5b61225c60008383612192565b6001600360008473ffffffffffffffffffffffffffffffffffffffff1673ffffffffffffffffffffffffffffffffffffffff16815260200190815260200160002060008282546122ac9190613076565b92505081905550816002600083815260200190815260200160002060006101000a81548173ffffffffffffffffffffffffffffffffffffffff021916908373ffffffffffffffffffffffffffffffffffffffff160217905550808273ffffffffffffffffffffffffffffffffffffffff16600073ffffffffffffffffffffffffffffffffffffffff167fddf252ad1be2c89b69c2b068fc378daa952ba7f163c4a11628f55a4df523b3ef60405160405180910390a45050565b60006123868473ffffffffffffffffffffffffffffffffffffffff166124fc565b156124ef578373ffffffffffffffffffffffffffffffffffffffff1663150b7a026123af611a6d565b8786866040518563ffffffff1660e01b81526004016123d19493929190612c1a565b602060405180830381600087803b1580156123eb57600080fd5b505af192505050801561241c57506040513d601f19601f820116820180604052508101906124199190612755565b60015b61249f573d806000811461244c576040519150601f19603f3d011682016040523d82523d6000602084013e612451565b606091505b50600081511415612497576040517f08c379a000000000000000000000000000000000000000000000000000000000815260040161248e90612d0e565b60405180910390fd5b805181602001fd5b63150b7a0260e01b7bffffffffffffffffffffffffffffffffffffffffffffffffffffffff1916817bffffffffffffffffffffffffffffffffffffffffffffffffffffffff1916149150506124f4565b600190505b949350505050565b600080823b905060008111915050919050565b600061252261251d84612fce565b612fa9565b9050808382526020820190508285602086028201111561254157600080fd5b60005b858110156125715781612557888261257b565b845260208401935060208301925050600181019050612544565b5050509392505050565b60008135905061258a81613892565b92915050565b600082601f8301126125a157600080fd5b81356125b184826020860161250f565b91505092915050565b6000813590506125c9816138a9565b92915050565b6000813590506125de816138c0565b92915050565b6000815190506125f3816138c0565b92915050565b600081359050612608816138d7565b92915050565b60006020828403121561262057600080fd5b600061262e8482850161257b565b91505092915050565b6000806040838503121561264a57600080fd5b60006126588582860161257b565b92505060206126698582860161257b565b9150509250929050565b6000806040838503121561268657600080fd5b60006126948582860161257b565b92505060206126a5858286016125ba565b9150509250929050565b600080604083850312156126c257600080fd5b60006126d08582860161257b565b92505060206126e1858286016125f9565b9150509250929050565b6000602082840312156126fd57600080fd5b600082013567ffffffffffffffff81111561271757600080fd5b61272384828501612590565b91505092915050565b60006020828403121561273e57600080fd5b600061274c848285016125cf565b91505092915050565b60006020828403121561276757600080fd5b6000612775848285016125e4565b91505092915050565b60006020828403121561279057600080fd5b600061279e848285016125f9565b91505092915050565b60006127b383836127bf565b60208301905092915050565b6127c881613131565b82525050565b6127d781613131565b82525050565b60006127e88261300a565b6127f28185613038565b93506127fd83612ffa565b8060005b8381101561282e57815161281588826127a7565b97506128208361302b565b925050600181019050612801565b5085935050505092915050565b61284481613143565b82525050565b600061285582613015565b61285f8185613049565b935061286f8185602086016131b2565b612878816133a8565b840191505092915050565b600061288e82613020565b612898818561305a565b93506128a88185602086016131b2565b6128b1816133a8565b840191505092915050565b60006128c782613020565b6128d1818561306b565b93506128e18185602086016131b2565b80840191505092915050565b60006128fa600a8361305a565b9150612905826133b9565b602082019050919050565b600061291d60328361305a565b9150612928826133e2565b604082019050919050565b600061294060268361305a565b915061294b82613431565b604082019050919050565b6000612963601c8361305a565b915061296e82613480565b602082019050919050565b6000612986600c8361305a565b9150612991826134a9565b602082019050919050565b60006129a960248361305a565b91506129b4826134d2565b604082019050919050565b60006129cc60198361305a565b91506129d782613521565b602082019050919050565b60006129ef60168361305a565b91506129fa8261354a565b602082019050919050565b6000612a1260388361305a565b9150612a1d82613573565b604082019050919050565b6000612a35602a8361305a565b9150612a40826135c2565b604082019050919050565b6000612a5860298361305a565b9150612a6382613611565b604082019050919050565b6000612a7b60208361305a565b9150612a8682613660565b602082019050919050565b6000612a9e60108361305a565b9150612aa982613689565b602082019050919050565b6000612ac1602c8361305a565b9150612acc826136b2565b604082019050919050565b6000612ae460208361305a565b9150612aef82613701565b602082019050919050565b6000612b0760298361305a565b9150612b128261372a565b604082019050919050565b6000612b2a602f8361305a565b9150612b3582613779565b604082019050919050565b6000612b4d60218361305a565b9150612b58826137c8565b604082019050919050565b6000612b7060178361305a565b9150612b7b82613817565b602082019050919050565b6000612b9360098361305a565b9150612b9e82613840565b602082019050919050565b6000612bb660118361305a565b9150612bc182613869565b602082019050919050565b612bd58161319b565b82525050565b6000612be782856128bc565b9150612bf382846128bc565b91508190509392505050565b6000602082019050612c1460008301846127ce565b92915050565b6000608082019050612c2f60008301876127ce565b612c3c60208301866127ce565b612c496040830185612bcc565b8181036060830152612c5b818461284a565b905095945050505050565b6000604082019050612c7b60008301856127ce565b612c886020830184612bcc565b9392505050565b60006020820190508181036000830152612ca981846127dd565b905092915050565b6000602082019050612cc6600083018461283b565b92915050565b60006020820190508181036000830152612ce68184612883565b905092915050565b60006020820190508181036000830152612d07816128ed565b9050919050565b60006020820190508181036000830152612d2781612910565b9050919050565b60006020820190508181036000830152612d4781612933565b9050919050565b60006020820190508181036000830152612d6781612956565b9050919050565b60006020820190508181036000830152612d8781612979565b9050919050565b60006020820190508181036000830152612da78161299c565b9050919050565b60006020820190508181036000830152612dc7816129bf565b9050919050565b60006020820190508181036000830152612de7816129e2565b9050919050565b60006020820190508181036000830152612e0781612a05565b9050919050565b60006020820190508181036000830152612e2781612a28565b9050919050565b60006020820190508181036000830152612e4781612a4b565b9050919050565b60006020820190508181036000830152612e6781612a6e565b9050919050565b60006020820190508181036000830152612e8781612a91565b9050919050565b60006020820190508181036000830152612ea781612ab4565b9050919050565b60006020820190508181036000830152612ec781612ad7565b9050919050565b60006020820190508181036000830152612ee781612afa565b9050919050565b60006020820190508181036000830152612f0781612b1d565b9050919050565b60006020820190508181036000830152612f2781612b40565b9050919050565b60006020820190508181036000830152612f4781612b63565b9050919050565b60006020820190508181036000830152612f6781612b86565b9050919050565b60006020820190508181036000830152612f8781612ba9565b9050919050565b6000602082019050612fa36000830184612bcc565b92915050565b6000612fb3612fc4565b9050612fbf8282613217565b919050565b6000604051905090565b600067ffffffffffffffff821115612fe957612fe8613379565b5b602082029050602081019050919050565b6000819050602082019050919050565b600081519050919050565b600081519050919050565b600081519050919050565b6000602082019050919050565b600082825260208201905092915050565b600082825260208201905092915050565b600082825260208201905092915050565b600081905092915050565b60006130818261319b565b915061308c8361319b565b9250827fffffffffffffffffffffffffffffffffffffffffffffffffffffffffffffffff038211156130c1576130c06132ec565b5b828201905092915050565b60006130d78261319b565b91506130e28361319b565b9250826130f2576130f161331b565b5b828204905092915050565b60006131088261319b565b91506131138361319b565b925082821015613126576131256132ec565b5b828203905092915050565b600061313c8261317b565b9050919050565b60008115159050919050565b60007fffffffff0000000000000000000000000000000000000000000000000000000082169050919050565b600073ffffffffffffffffffffffffffffffffffffffff82169050919050565b6000819050919050565b600060ff82169050919050565b60005b838110156131d05780820151818401526020810190506131b5565b838111156131df576000848401525b50505050565b600060028204905060018216806131fd57607f821691505b602082108114156132115761321061334a565b5b50919050565b613220826133a8565b810181811067ffffffffffffffff8211171561323f5761323e613379565b5b80604052505050565b60006132538261319b565b91507fffffffffffffffffffffffffffffffffffffffffffffffffffffffffffffffff821415613286576132856132ec565b5b600182019050919050565b600061329c826131a5565b915060ff8214156132b0576132af6132ec565b5b600182019050919050565b60006132c68261319b565b91506132d18361319b565b9250826132e1576132e061331b565b5b828206905092915050565b7f4e487b7100000000000000000000000000000000000000000000000000000000600052601160045260246000fd5b7f4e487b7100000000000000000000000000000000000000000000000000000000600052601260045260246000fd5b7f4e487b7100000000000000000000000000000000000000000000000000000000600052602260045260246000fd5b7f4e487b7100000000000000000000000000000000000000000000000000000000600052604160045260246000fd5b6000601f19601f8301169050919050565b7f4e6f2042616c6c6f747300000000000000000000000000000000000000000000600082015250565b7f4552433732313a207472616e7366657220746f206e6f6e20455243373231526560008201527f63656976657220696d706c656d656e7465720000000000000000000000000000602082015250565b7f4f776e61626c653a206e6577206f776e657220697320746865207a65726f206160008201527f6464726573730000000000000000000000000000000000000000000000000000602082015250565b7f4552433732313a20746f6b656e20616c7265616479206d696e74656400000000600082015250565b7f42616c6c6f7420466f756e640000000000000000000000000000000000000000600082015250565b7f4552433732313a207472616e7366657220746f20746865207a65726f2061646460008201527f7265737300000000000000000000000000000000000000000000000000000000602082015250565b7f4552433732313a20617070726f766520746f2063616c6c657200000000000000600082015250565b7f43616e646964617465732043616e6e6f7420566f746500000000000000000000600082015250565b7f4552433732313a20617070726f76652063616c6c6572206973206e6f74206f7760008201527f6e6572206e6f7220617070726f76656420666f7220616c6c0000000000000000602082015250565b7f4552433732313a2062616c616e636520717565727920666f7220746865207a6560008201527f726f206164647265737300000000000000000000000000000000000000000000602082015250565b7f4552433732313a206f776e657220717565727920666f72206e6f6e657869737460008201527f656e7420746f6b656e0000000000000000000000000000000000000000000000602082015250565b7f4552433732313a206d696e7420746f20746865207a65726f2061646472657373600082015250565b7f43616e6469646174652045786973747300000000000000000000000000000000600082015250565b7f4552433732313a20617070726f76656420717565727920666f72206e6f6e657860008201527f697374656e7420746f6b656e0000000000000000000000000000000000000000602082015250565b7f4f776e61626c653a2063616c6c6572206973206e6f7420746865206f776e6572600082015250565b7f4552433732313a207472616e73666572206f6620746f6b656e2074686174206960008201527f73206e6f74206f776e0000000000000000000000000000000000000000000000602082015250565b7f4552433732314d657461646174613a2055524920717565727920666f72206e6f60008201527f6e6578697374656e7420746f6b656e0000000000000000000000000000000000602082015250565b7f4552433732313a20617070726f76616c20746f2063757272656e74206f776e6560008201527f7200000000000000000000000000000000000000000000000000000000000000602082015250565b7f43616e64696461746520446f65736e2774204578697374000000000000000000600082015250565b7f436f6e636c756465640000000000000000000000000000000000000000000000600082015250565b7f496e76616c69642043616e646964617465000000000000000000000000000000600082015250565b61389b81613131565b81146138a657600080fd5b50565b6138b281613143565b81146138bd57600080fd5b50565b6138c98161314f565b81146138d457600080fd5b50565b6138e08161319b565b81146138eb57600080fd5b5056fea264697066735822122033e6cde3bbd4786ca0ba6c33fba7f4c037a41f8259fe08deaeea21731a061c8364736f6c63430008030033",
  "linkReferences": {},
  "deployedLinkReferences": {}
}