{
  "_format": "hh-sol-artifact-1",
  "contractName": "NFTVoting",
  "sourceName": "contracts/Voting.sol",
  "abi": [
    {
      "inputs": [],
      "stateMutability": "nonpayable",
      "type": "constructor"
    },
    {
      "anonymous": false,
      "inputs": [
        {
          "indexed": true,
          "internalType": "address",
          "name": "owner",
          "type": "address"
        },
        {
          "indexed": true,
          "internalType": "address",
          "name": "approved",
          "type": "address"
        },
        {
          "indexed": true,
          "internalType": "uint256",
          "name": "tokenId",
          "type": "uint256"
        }
      ],
      "name": "Approval",
      "type": "event"
    },
    {
      "anonymous": false,
      "inputs": [
        {
          "indexed": true,
          "internalType": "address",
          "name": "owner",
          "type": "address"
        },
        {
          "indexed": true,
          "internalType": "address",
          "name": "operator",
          "type": "address"
        },
        {
          "indexed": false,
          "internalType": "bool",
          "name": "approved",
          "type": "bool"
        }
      ],
      "name": "ApprovalForAll",
      "type": "event"
    },
    {
      "anonymous": false,
      "inputs": [
        {
          "indexed": true,
          "internalType": "address",
          "name": "previousOwner",
          "type": "address"
        },
        {
          "indexed": true,
          "internalType": "address",
          "name": "newOwner",
          "type": "address"
        }
      ],
      "name": "OwnershipTransferred",
      "type": "event"
    },
    {
      "anonymous": false,
      "inputs": [
        {
          "indexed": true,
          "internalType": "address",
          "name": "from",
          "type": "address"
        },
        {
          "indexed": true,
          "internalType": "address",
          "name": "to",
          "type": "address"
        },
        {
          "indexed": true,
          "internalType": "uint256",
          "name": "tokenId",
          "type": "uint256"
        }
      ],
      "name": "Transfer",
      "type": "event"
    },
    {
      "anonymous": false,
      "inputs": [
        {
          "indexed": false,
          "internalType": "address",
          "name": "x",
          "type": "address"
        },
        {
          "indexed": false,
          "internalType": "uint256",
          "name": "y",
          "type": "uint256"
        }
      ],
      "name": "concluded",
      "type": "event"
    },
    {
      "inputs": [],
      "name": "active",
      "outputs": [
        {
          "internalType": "bool",
          "name": "",
          "type": "bool"
        }
      ],
      "stateMutability": "view",
      "type": "function"
    },
    {
      "inputs": [
        {
          "internalType": "address",
          "name": "_candidate",
          "type": "address"
        }
      ],
      "name": "addCandidates",
      "outputs": [],
      "stateMutability": "nonpayable",
      "type": "function"
    },
    {
      "inputs": [],
      "name": "allCandidates",
      "outputs": [
        {
          "internalType": "address[]",
          "name": "",
          "type": "address[]"
        }
      ],
      "stateMutability": "view",
      "type": "function"
    },
    {
      "inputs": [
        {
          "internalType": "address",
          "name": "to",
          "type": "address"
        },
        {
          "internalType": "uint256",
          "name": "tokenId",
          "type": "uint256"
        }
      ],
      "name": "approve",
      "outputs": [],
      "stateMutability": "nonpayable",
      "type": "function"
    },
    {
      "inputs": [
        {
          "internalType": "address",
          "name": "owner",
          "type": "address"
        }
      ],
      "name": "balanceOf",
      "outputs": [
        {
          "internalType": "uint256",
          "name": "",
          "type": "uint256"
        }
      ],
      "stateMutability": "view",
      "type": "function"
    },
    {
      "inputs": [
        {
          "internalType": "uint256",
          "name": "",
          "type": "uint256"
        }
      ],
      "name": "candidates",
      "outputs": [
        {
          "internalType": "address",
          "name": "",
          "type": "address"
        }
      ],
      "stateMutability": "view",
      "type": "function"
    },
    {
      "inputs": [],
      "name": "conclude",
      "outputs": [],
      "stateMutability": "nonpayable",
      "type": "function"
    },
    {
      "inputs": [
        {
          "internalType": "uint256",
          "name": "tokenId",
          "type": "uint256"
        }
      ],
      "name": "getApproved",
      "outputs": [
        {
          "internalType": "address",
          "name": "",
          "type": "address"
        }
      ],
      "stateMutability": "view",
      "type": "function"
    },
    {
      "inputs": [],
      "name": "highestVotes",
      "outputs": [
        {
          "internalType": "address",
          "name": "",
          "type": "address"
        },
        {
          "internalType": "uint256",
          "name": "",
          "type": "uint256"
        }
      ],
      "stateMutability": "view",
      "type": "function"
    },
    {
      "inputs": [
        {
          "internalType": "address",
          "name": "owner",
          "type": "address"
        },
        {
          "internalType": "address",
          "name": "operator",
          "type": "address"
        }
      ],
      "name": "isApprovedForAll",
      "outputs": [
        {
          "internalType": "bool",
          "name": "",
          "type": "bool"
        }
      ],
      "stateMutability": "view",
      "type": "function"
    },
    {
      "inputs": [],
      "name": "name",
      "outputs": [
        {
          "internalType": "string",
          "name": "",
          "type": "string"
        }
      ],
      "stateMutability": "view",
      "type": "function"
    },
    {
      "inputs": [],
      "name": "owner",
      "outputs": [
        {
          "internalType": "address",
          "name": "",
          "type": "address"
        }
      ],
      "stateMutability": "view",
      "type": "function"
    },
    {
      "inputs": [
        {
          "internalType": "uint256",
          "name": "tokenId",
          "type": "uint256"
        }
      ],
      "name": "ownerOf",
      "outputs": [
        {
          "internalType": "address",
          "name": "",
          "type": "address"
        }
      ],
      "stateMutability": "view",
      "type": "function"
    },
    {
      "inputs": [],
      "name": "renounceOwnership",
      "outputs": [],
      "stateMutability": "nonpayable",
      "type": "function"
    },
    {
      "inputs": [
        {
          "internalType": "address",
          "name": "to",
          "type": "address"
        }
      ],
      "name": "safeMint",
      "outputs": [],
      "stateMutability": "nonpayable",
      "type": "function"
    },
    {
      "inputs": [
        {
          "internalType": "address",
          "name": "from",
          "type": "address"
        },
        {
          "internalType": "address",
          "name": "to",
          "type": "address"
        },
        {
          "internalType": "uint256",
          "name": "tokenId",
          "type": "uint256"
        }
      ],
      "name": "safeTransferFrom",
      "outputs": [],
      "stateMutability": "nonpayable",
      "type": "function"
    },
    {
      "inputs": [
        {
          "internalType": "address",
          "name": "from",
          "type": "address"
        },
        {
          "internalType": "address",
          "name": "to",
          "type": "address"
        },
        {
          "internalType": "uint256",
          "name": "tokenId",
          "type": "uint256"
        },
        {
          "internalType": "bytes",
          "name": "_data",
          "type": "bytes"
        }
      ],
      "name": "safeTransferFrom",
      "outputs": [],
      "stateMutability": "nonpayable",
      "type": "function"
    },
    {
      "inputs": [
        {
          "internalType": "address",
          "name": "operator",
          "type": "address"
        },
        {
          "internalType": "bool",
          "name": "approved",
          "type": "bool"
        }
      ],
      "name": "setApprovalForAll",
      "outputs": [],
      "stateMutability": "nonpayable",
      "type": "function"
    },
    {
      "inputs": [
        {
          "internalType": "bytes4",
          "name": "interfaceId",
          "type": "bytes4"
        }
      ],
      "name": "supportsInterface",
      "outputs": [
        {
          "internalType": "bool",
          "name": "",
          "type": "bool"
        }
      ],
      "stateMutability": "view",
      "type": "function"
    },
    {
      "inputs": [],
      "name": "symbol",
      "outputs": [
        {
          "internalType": "string",
          "name": "",
          "type": "string"
        }
      ],
      "stateMutability": "view",
      "type": "function"
    },
    {
      "inputs": [
        {
          "internalType": "uint256",
          "name": "tokenId",
          "type": "uint256"
        }
      ],
      "name": "tokenURI",
      "outputs": [
        {
          "internalType": "string",
          "name": "",
          "type": "string"
        }
      ],
      "stateMutability": "view",
      "type": "function"
    },
    {
      "inputs": [],
      "name": "total",
      "outputs": [
        {
          "internalType": "uint256",
          "name": "",
          "type": "uint256"
        }
      ],
      "stateMutability": "view",
      "type": "function"
    },
    {
      "inputs": [],
      "name": "totalVotesCast",
      "outputs": [
        {
          "internalType": "uint256",
          "name": "",
          "type": "uint256"
        }
      ],
      "stateMutability": "view",
      "type": "function"
    },
    {
      "inputs": [
        {
          "internalType": "address",
          "name": "from",
          "type": "address"
        },
        {
          "internalType": "address",
          "name": "to",
          "type": "address"
        },
        {
          "internalType": "uint256",
          "name": "tokenId",
          "type": "uint256"
        }
      ],
      "name": "transferFrom",
      "outputs": [],
      "stateMutability": "nonpayable",
      "type": "function"
    },
    {
      "inputs": [
        {
          "internalType": "address",
          "name": "newOwner",
          "type": "address"
        }
      ],
      "name": "transferOwnership",
      "outputs": [],
      "stateMutability": "nonpayable",
      "type": "function"
    },
    {
      "inputs": [
        {
          "internalType": "address",
          "name": "_candidateAddress",
          "type": "address"
        }
      ],
      "name": "vote",
      "outputs": [],
      "stateMutability": "nonpayable",
      "type": "function"
    },
    {
      "inputs": [
        {
          "internalType": "address",
          "name": "_candidateAddress",
          "type": "address"
        }
      ],
      "name": "votesForCandidate",
      "outputs": [
        {
          "internalType": "uint256",
          "name": "",
          "type": "uint256"
        }
      ],
      "stateMutability": "view",
      "type": "function"
    },
    {
      "inputs": [],
      "name": "winner",
      "outputs": [
        {
          "internalType": "address",
          "name": "",
          "type": "address"
        }
      ],
      "stateMutability": "view",
      "type": "function"
    }
  ],
  "bytecode": "0x60806040526001600960006101000a81548160ff0219169083151502179055503480156200002c57600080fd5b506040518060400160405280600681526020017f42616c6c6f7400000000000000000000000000000000000000000000000000008152506040518060400160405280600381526020017f42414c00000000000000000000000000000000000000000000000000000000008152508160009080519060200190620000b1929190620001c1565b508060019080519060200190620000ca929190620001c1565b505050620000ed620000e1620000f360201b60201c565b620000fb60201b60201c565b620002d6565b600033905090565b6000600660009054906101000a900473ffffffffffffffffffffffffffffffffffffffff16905081600660006101000a81548173ffffffffffffffffffffffffffffffffffffffff021916908373ffffffffffffffffffffffffffffffffffffffff1602179055508173ffffffffffffffffffffffffffffffffffffffff168173ffffffffffffffffffffffffffffffffffffffff167f8be0079c531659141344cd1fd0a4f28419497f9722a3daafe3b4186f6b6457e060405160405180910390a35050565b828054620001cf9062000271565b90600052602060002090601f016020900481019282620001f357600085556200023f565b82601f106200020e57805160ff19168380011785556200023f565b828001600101855582156200023f579182015b828111156200023e57825182559160200191906001019062000221565b5b5090506200024e919062000252565b5090565b5b808211156200026d57600081600090555060010162000253565b5090565b600060028204905060018216806200028a57607f821691505b60208210811415620002a157620002a0620002a7565b5b50919050565b7f4e487b7100000000000000000000000000000000000000000000000000000000600052602260045260246000fd5b613c4d80620002e66000396000f3fe608060405234801561001057600080fd5b50600436106101c45760003560e01c80636dd7d8ea116100f9578063a22cb46511610097578063dfbf53ae11610071578063dfbf53ae146104f4578063e5f9297314610512578063e985e9c51461051c578063f2fde38b1461054c576101c4565b8063a22cb4651461048c578063b88d4fde146104a8578063c87b56dd146104c4576101c4565b80637de418d5116100d35780637de418d51461041457806381c40715146104325780638da5cb5b1461045057806395d89b411461046e576101c4565b80636dd7d8ea146103be57806370a08231146103da578063715018a61461040a576101c4565b80632ddbd13a1161016657806340d097c31161014057806340d097c31461033757806342842e0e146103535780636352211e1461036f5780636456cb0a1461039f576101c4565b80632ddbd13a146102b95780633477ee2e146102d75780633bc5653414610307576101c4565b8063081812fc116101a2578063081812fc1461023557806308e49a8814610265578063095ea7b31461028157806323b872dd1461029d576101c4565b806301ffc9a7146101c957806302fb0c5e146101f957806306fdde0314610217575b600080fd5b6101e360048036038101906101de919061291d565b610568565b6040516101f09190612ee8565b60405180910390f35b61020161064a565b60405161020e9190612ee8565b60405180910390f35b61021f61065d565b60405161022c9190612f03565b60405180910390f35b61024f600480360381019061024a919061296f565b6106ef565b60405161025c9190612e36565b60405180910390f35b61027f600480360381019061027a9190612776565b610774565b005b61029b600480360381019061029691906128e1565b6108a5565b005b6102b760048036038101906102b291906127db565b6109bd565b005b6102c1610a1d565b6040516102ce9190613205565b60405180910390f35b6102f160048036038101906102ec919061296f565b610a23565b6040516102fe9190612e36565b60405180910390f35b610321600480360381019061031c9190612776565b610a62565b60405161032e9190613205565b60405180910390f35b610351600480360381019061034c9190612776565b610ac3565b005b61036d600480360381019061036891906127db565b610bfb565b005b6103896004803603810190610384919061296f565b610c1b565b6040516103969190612e36565b60405180910390f35b6103a7610ccd565b6040516103b5929190612e9d565b60405180910390f35b6103d860048036038101906103d39190612776565b610f40565b005b6103f460048036038101906103ef9190612776565b6110d2565b6040516104019190613205565b60405180910390f35b61041261118a565b005b61041c611212565b6040516104299190613205565b60405180910390f35b61043a6112cd565b6040516104479190612ec6565b60405180910390f35b61045861135b565b6040516104659190612e36565b60405180910390f35b610476611385565b6040516104839190612f03565b60405180910390f35b6104a660048036038101906104a191906128a5565b611417565b005b6104c260048036038101906104bd919061282a565b611598565b005b6104de60048036038101906104d9919061296f565b6115fa565b6040516104eb9190612f03565b60405180910390f35b6104fc6116a1565b6040516105099190612e36565b60405180910390f35b61051a6116c7565b005b6105366004803603810190610531919061279f565b611867565b6040516105439190612ee8565b60405180910390f35b61056660048036038101906105619190612776565b6118fb565b005b60007f80ac58cd000000000000000000000000000000000000000000000000000000007bffffffffffffffffffffffffffffffffffffffffffffffffffffffff1916827bffffffffffffffffffffffffffffffffffffffffffffffffffffffff1916148061063357507f5b5e139f000000000000000000000000000000000000000000000000000000007bffffffffffffffffffffffffffffffffffffffffffffffffffffffff1916827bffffffffffffffffffffffffffffffffffffffffffffffffffffffff1916145b806106435750610642826119f3565b5b9050919050565b600960009054906101000a900460ff1681565b60606000805461066c90613470565b80601f016020809104026020016040519081016040528092919081815260200182805461069890613470565b80156106e55780601f106106ba576101008083540402835291602001916106e5565b820191906000526020600020905b8154815290600101906020018083116106c857829003601f168201915b5050505050905090565b60006106fa82611a5d565b610739576040517f08c379a0000000000000000000000000000000000000000000000000000000008152600401610730906130e5565b60405180910390fd5b6004600083815260200190815260200160002060009054906101000a900473ffffffffffffffffffffffffffffffffffffffff169050919050565b61077c611ac9565b73ffffffffffffffffffffffffffffffffffffffff1661079a61135b565b73ffffffffffffffffffffffffffffffffffffffff16146107f0576040517f08c379a00000000000000000000000000000000000000000000000000000000081526004016107e790613105565b60405180910390fd5b600015156107fd82611ad1565b15151461083f576040517f08c379a0000000000000000000000000000000000000000000000000000000008152600401610836906130c5565b60405180910390fd5b600b819080600181540180825580915050600190039060005260206000200160009091909190916101000a81548173ffffffffffffffffffffffffffffffffffffffff021916908373ffffffffffffffffffffffffffffffffffffffff16021790555050565b60006108b082610c1b565b90508073ffffffffffffffffffffffffffffffffffffffff168373ffffffffffffffffffffffffffffffffffffffff161415610921576040517f08c379a000000000000000000000000000000000000000000000000000000000815260040161091890613165565b60405180910390fd5b8073ffffffffffffffffffffffffffffffffffffffff16610940611ac9565b73ffffffffffffffffffffffffffffffffffffffff16148061096f575061096e81610969611ac9565b611867565b5b6109ae576040517f08c379a00000000000000000000000000000000000000000000000000000000081526004016109a590613045565b60405180910390fd5b6109b88383611bb2565b505050565b6109ce6109c8611ac9565b82611c6b565b610a0d576040517f08c379a0000000000000000000000000000000000000000000000000000000008152600401610a04906131c5565b60405180910390fd5b610a18838383611d49565b505050565b60085481565b600b8181548110610a3357600080fd5b906000526020600020016000915054906101000a900473ffffffffffffffffffffffffffffffffffffffff1681565b600060011515610a7183611ad1565b151514610ab3576040517f08c379a0000000000000000000000000000000000000000000000000000000008152600401610aaa90613185565b60405180910390fd5b610abc826110d2565b9050919050565b610acb611ac9565b73ffffffffffffffffffffffffffffffffffffffff16610ae961135b565b73ffffffffffffffffffffffffffffffffffffffff1614610b3f576040517f08c379a0000000000000000000000000000000000000000000000000000000008152600401610b3690613105565b60405180910390fd5b6000610b4a826110d2565b14610b8a576040517f08c379a0000000000000000000000000000000000000000000000000000000008152600401610b8190612fa5565b60405180910390fd5b6000610b966007611fa5565b9050610ba28282611fb3565b80600a60008473ffffffffffffffffffffffffffffffffffffffff1673ffffffffffffffffffffffffffffffffffffffff16815260200190815260200160002081905550610bf06007611fd1565b806008819055505050565b610c1683838360405180602001604052806000815250611598565b505050565b6000806002600084815260200190815260200160002060009054906101000a900473ffffffffffffffffffffffffffffffffffffffff169050600073ffffffffffffffffffffffffffffffffffffffff168173ffffffffffffffffffffffffffffffffffffffff161415610cc4576040517f08c379a0000000000000000000000000000000000000000000000000000000008152600401610cbb90613085565b60405180910390fd5b80915050919050565b6000806000600b8054905090506000610d4a600b600081548110610d1a577f4e487b7100000000000000000000000000000000000000000000000000000000600052603260045260246000fd5b9060005260206000200160009054906101000a900473ffffffffffffffffffffffffffffffffffffffff166110d2565b9050600080600190505b8360ff168160ff161015610df9576000610dd4600b8360ff1681548110610da4577f4e487b7100000000000000000000000000000000000000000000000000000000600052603260045260246000fd5b9060005260206000200160009054906101000a900473ffffffffffffffffffffffffffffffffffffffff166110d2565b905083811115610de5578192508093505b508080610df19061351c565b915050610d54565b506000805b8460ff168160ff161015610ec9576000610e7e600b8360ff1681548110610e4e577f4e487b7100000000000000000000000000000000000000000000000000000000600052603260045260246000fd5b9060005260206000200160009054906101000a900473ffffffffffffffffffffffffffffffffffffffff166110d2565b905084811415610e97578280610e939061351c565b9350505b60018360ff161115610eb55760008597509750505050505050610f3c565b508080610ec19061351c565b915050610dfe565b50600b8260ff1681548110610f07577f4e487b7100000000000000000000000000000000000000000000000000000000600052603260045260246000fd5b9060005260206000200160009054906101000a900473ffffffffffffffffffffffffffffffffffffffff168395509550505050505b9091565b60011515600960009054906101000a900460ff16151514610f96576040517f08c379a0000000000000000000000000000000000000000000000000000000008152600401610f8d906131a5565b60405180910390fd5b6000610fa1336110d2565b11610fe1576040517f08c379a0000000000000000000000000000000000000000000000000000000008152600401610fd890612f25565b60405180910390fd5b60011515610fee82611ad1565b151514611030576040517f08c379a0000000000000000000000000000000000000000000000000000000008152600401611027906131e5565b60405180910390fd5b6000151561103d33611ad1565b15151461107f576040517f08c379a000000000000000000000000000000000000000000000000000000000815260040161107690613025565b60405180910390fd5b6000600a60003373ffffffffffffffffffffffffffffffffffffffff1673ffffffffffffffffffffffffffffffffffffffff1681526020019081526020016000205490506110ce338383610bfb565b5050565b60008073ffffffffffffffffffffffffffffffffffffffff168273ffffffffffffffffffffffffffffffffffffffff161415611143576040517f08c379a000000000000000000000000000000000000000000000000000000000815260040161113a90613065565b60405180910390fd5b600360008373ffffffffffffffffffffffffffffffffffffffff1673ffffffffffffffffffffffffffffffffffffffff168152602001908152602001600020549050919050565b611192611ac9565b73ffffffffffffffffffffffffffffffffffffffff166111b061135b565b73ffffffffffffffffffffffffffffffffffffffff1614611206576040517f08c379a00000000000000000000000000000000000000000000000000000000081526004016111fd90613105565b60405180910390fd5b6112106000611fe7565b565b600080600090506000600b80549050905060005b8160ff168160ff1610156112c4576112a4600b8260ff1681548110611274577f4e487b7100000000000000000000000000000000000000000000000000000000600052603260045260246000fd5b9060005260206000200160009054906101000a900473ffffffffffffffffffffffffffffffffffffffff16610a62565b836112af91906132f2565b925080806112bc9061351c565b915050611226565b50819250505090565b6060600b80548060200260200160405190810160405280929190818152602001828054801561135157602002820191906000526020600020905b8160009054906101000a900473ffffffffffffffffffffffffffffffffffffffff1673ffffffffffffffffffffffffffffffffffffffff1681526020019060010190808311611307575b5050505050905090565b6000600660009054906101000a900473ffffffffffffffffffffffffffffffffffffffff16905090565b60606001805461139490613470565b80601f01602080910402602001604051908101604052809291908181526020018280546113c090613470565b801561140d5780601f106113e25761010080835404028352916020019161140d565b820191906000526020600020905b8154815290600101906020018083116113f057829003601f168201915b5050505050905090565b61141f611ac9565b73ffffffffffffffffffffffffffffffffffffffff168273ffffffffffffffffffffffffffffffffffffffff16141561148d576040517f08c379a000000000000000000000000000000000000000000000000000000000815260040161148490612fe5565b60405180910390fd5b806005600061149a611ac9565b73ffffffffffffffffffffffffffffffffffffffff1673ffffffffffffffffffffffffffffffffffffffff16815260200190815260200160002060008473ffffffffffffffffffffffffffffffffffffffff1673ffffffffffffffffffffffffffffffffffffffff16815260200190815260200160002060006101000a81548160ff0219169083151502179055508173ffffffffffffffffffffffffffffffffffffffff16611547611ac9565b73ffffffffffffffffffffffffffffffffffffffff167f17307eab39ab6107e8899845ad3d59bd9653f200f220920489ca2b5937696c318360405161158c9190612ee8565b60405180910390a35050565b6115a96115a3611ac9565b83611c6b565b6115e8576040517f08c379a00000000000000000000000000000000000000000000000000000000081526004016115df906131c5565b60405180910390fd5b6115f4848484846120ad565b50505050565b606061160582611a5d565b611644576040517f08c379a000000000000000000000000000000000000000000000000000000000815260040161163b90613145565b60405180910390fd5b600061164e612109565b9050600081511161166e5760405180602001604052806000815250611699565b8061167884612120565b604051602001611689929190612e12565b6040516020818303038152906040525b915050919050565b600c60009054906101000a900473ffffffffffffffffffffffffffffffffffffffff1681565b6116cf611ac9565b73ffffffffffffffffffffffffffffffffffffffff166116ed61135b565b73ffffffffffffffffffffffffffffffffffffffff1614611743576040517f08c379a000000000000000000000000000000000000000000000000000000000815260040161173a90613105565b60405180910390fd5b6001600960006101000a81548160ff021916908315150217905561179c576040517f08c379a0000000000000000000000000000000000000000000000000000000008152600401611793906131a5565b60405180910390fd5b6000600960006101000a81548160ff02191690831515021790555060006117c1610ccd565b600c60008294508391906101000a81548173ffffffffffffffffffffffffffffffffffffffff021916908373ffffffffffffffffffffffffffffffffffffffff16021790555050507ff264144310cc722e9c5878f1409aaa6a459e675ca4726380887865e00d34d2fa600c60009054906101000a900473ffffffffffffffffffffffffffffffffffffffff168260405161185c929190612e9d565b60405180910390a150565b6000600560008473ffffffffffffffffffffffffffffffffffffffff1673ffffffffffffffffffffffffffffffffffffffff16815260200190815260200160002060008373ffffffffffffffffffffffffffffffffffffffff1673ffffffffffffffffffffffffffffffffffffffff16815260200190815260200160002060009054906101000a900460ff16905092915050565b611903611ac9565b73ffffffffffffffffffffffffffffffffffffffff1661192161135b565b73ffffffffffffffffffffffffffffffffffffffff1614611977576040517f08c379a000000000000000000000000000000000000000000000000000000000815260040161196e90613105565b60405180910390fd5b600073ffffffffffffffffffffffffffffffffffffffff168173ffffffffffffffffffffffffffffffffffffffff1614156119e7576040517f08c379a00000000000000000000000000000000000000000000000000000000081526004016119de90612f65565b60405180910390fd5b6119f081611fe7565b50565b60007f01ffc9a7000000000000000000000000000000000000000000000000000000007bffffffffffffffffffffffffffffffffffffffffffffffffffffffff1916827bffffffffffffffffffffffffffffffffffffffffffffffffffffffff1916149050919050565b60008073ffffffffffffffffffffffffffffffffffffffff166002600084815260200190815260200160002060009054906101000a900473ffffffffffffffffffffffffffffffffffffffff1673ffffffffffffffffffffffffffffffffffffffff1614159050919050565b600033905090565b600080600b80549050905060005b8160ff168160ff161015611ba657600b8160ff1681548110611b2a577f4e487b7100000000000000000000000000000000000000000000000000000000600052603260045260246000fd5b9060005260206000200160009054906101000a900473ffffffffffffffffffffffffffffffffffffffff1673ffffffffffffffffffffffffffffffffffffffff168473ffffffffffffffffffffffffffffffffffffffff161415611b9357600192505050611bad565b8080611b9e9061351c565b915050611adf565b5060009150505b919050565b816004600083815260200190815260200160002060006101000a81548173ffffffffffffffffffffffffffffffffffffffff021916908373ffffffffffffffffffffffffffffffffffffffff160217905550808273ffffffffffffffffffffffffffffffffffffffff16611c2583610c1b565b73ffffffffffffffffffffffffffffffffffffffff167f8c5be1e5ebec7d5bd14f71427d1e84f3dd0314c0f7b2291e5b200ac8c7c3b92560405160405180910390a45050565b6000611c7682611a5d565b611cb5576040517f08c379a0000000000000000000000000000000000000000000000000000000008152600401611cac90613005565b60405180910390fd5b6000611cc083610c1b565b90508073ffffffffffffffffffffffffffffffffffffffff168473ffffffffffffffffffffffffffffffffffffffff161480611d2f57508373ffffffffffffffffffffffffffffffffffffffff16611d17846106ef565b73ffffffffffffffffffffffffffffffffffffffff16145b80611d405750611d3f8185611867565b5b91505092915050565b8273ffffffffffffffffffffffffffffffffffffffff16611d6982610c1b565b73ffffffffffffffffffffffffffffffffffffffff1614611dbf576040517f08c379a0000000000000000000000000000000000000000000000000000000008152600401611db690613125565b60405180910390fd5b600073ffffffffffffffffffffffffffffffffffffffff168273ffffffffffffffffffffffffffffffffffffffff161415611e2f576040517f08c379a0000000000000000000000000000000000000000000000000000000008152600401611e2690612fc5565b60405180910390fd5b611e3a8383836122cd565b611e45600082611bb2565b6001600360008573ffffffffffffffffffffffffffffffffffffffff1673ffffffffffffffffffffffffffffffffffffffff1681526020019081526020016000206000828254611e959190613379565b925050819055506001600360008473ffffffffffffffffffffffffffffffffffffffff1673ffffffffffffffffffffffffffffffffffffffff1681526020019081526020016000206000828254611eec91906132f2565b92505081905550816002600083815260200190815260200160002060006101000a81548173ffffffffffffffffffffffffffffffffffffffff021916908373ffffffffffffffffffffffffffffffffffffffff160217905550808273ffffffffffffffffffffffffffffffffffffffff168473ffffffffffffffffffffffffffffffffffffffff167fddf252ad1be2c89b69c2b068fc378daa952ba7f163c4a11628f55a4df523b3ef60405160405180910390a4505050565b600081600001549050919050565b611fcd8282604051806020016040528060008152506122d2565b5050565b6001816000016000828254019250508190555050565b6000600660009054906101000a900473ffffffffffffffffffffffffffffffffffffffff16905081600660006101000a81548173ffffffffffffffffffffffffffffffffffffffff021916908373ffffffffffffffffffffffffffffffffffffffff1602179055508173ffffffffffffffffffffffffffffffffffffffff168173ffffffffffffffffffffffffffffffffffffffff167f8be0079c531659141344cd1fd0a4f28419497f9722a3daafe3b4186f6b6457e060405160405180910390a35050565b6120b8848484611d49565b6120c48484848461232d565b612103576040517f08c379a00000000000000000000000000000000000000000000000000000000081526004016120fa90612f45565b60405180910390fd5b50505050565b606060405180602001604052806000815250905090565b60606000821415612168576040518060400160405280600181526020017f300000000000000000000000000000000000000000000000000000000000000081525090506122c8565b600082905060005b6000821461219a578080612183906134d3565b915050600a826121939190613348565b9150612170565b60008167ffffffffffffffff8111156121dc577f4e487b7100000000000000000000000000000000000000000000000000000000600052604160045260246000fd5b6040519080825280601f01601f19166020018201604052801561220e5781602001600182028036833780820191505090505b5090505b600085146122c1576001826122279190613379565b9150600a856122369190613546565b603061224291906132f2565b60f81b81838151811061227e577f4e487b7100000000000000000000000000000000000000000000000000000000600052603260045260246000fd5b60200101907effffffffffffffffffffffffffffffffffffffffffffffffffffffffffffff1916908160001a905350600a856122ba9190613348565b9450612212565b8093505050505b919050565b505050565b6122dc83836124c4565b6122e9600084848461232d565b612328576040517f08c379a000000000000000000000000000000000000000000000000000000000815260040161231f90612f45565b60405180910390fd5b505050565b600061234e8473ffffffffffffffffffffffffffffffffffffffff16612692565b156124b7578373ffffffffffffffffffffffffffffffffffffffff1663150b7a02612377611ac9565b8786866040518563ffffffff1660e01b81526004016123999493929190612e51565b602060405180830381600087803b1580156123b357600080fd5b505af19250505080156123e457506040513d601f19601f820116820180604052508101906123e19190612946565b60015b612467573d8060008114612414576040519150601f19603f3d011682016040523d82523d6000602084013e612419565b606091505b5060008151141561245f576040517f08c379a000000000000000000000000000000000000000000000000000000000815260040161245690612f45565b60405180910390fd5b805181602001fd5b63150b7a0260e01b7bffffffffffffffffffffffffffffffffffffffffffffffffffffffff1916817bffffffffffffffffffffffffffffffffffffffffffffffffffffffff1916149150506124bc565b600190505b949350505050565b600073ffffffffffffffffffffffffffffffffffffffff168273ffffffffffffffffffffffffffffffffffffffff161415612534576040517f08c379a000000000000000000000000000000000000000000000000000000000815260040161252b906130a5565b60405180910390fd5b61253d81611a5d565b1561257d576040517f08c379a000000000000000000000000000000000000000000000000000000000815260040161257490612f85565b60405180910390fd5b612589600083836122cd565b6001600360008473ffffffffffffffffffffffffffffffffffffffff1673ffffffffffffffffffffffffffffffffffffffff16815260200190815260200160002060008282546125d991906132f2565b92505081905550816002600083815260200190815260200160002060006101000a81548173ffffffffffffffffffffffffffffffffffffffff021916908373ffffffffffffffffffffffffffffffffffffffff160217905550808273ffffffffffffffffffffffffffffffffffffffff16600073ffffffffffffffffffffffffffffffffffffffff167fddf252ad1be2c89b69c2b068fc378daa952ba7f163c4a11628f55a4df523b3ef60405160405180910390a45050565b600080823b905060008111915050919050565b60006126b86126b384613245565b613220565b9050828152602081018484840111156126d057600080fd5b6126db84828561342e565b509392505050565b6000813590506126f281613bbb565b92915050565b60008135905061270781613bd2565b92915050565b60008135905061271c81613be9565b92915050565b60008151905061273181613be9565b92915050565b600082601f83011261274857600080fd5b81356127588482602086016126a5565b91505092915050565b60008135905061277081613c00565b92915050565b60006020828403121561278857600080fd5b6000612796848285016126e3565b91505092915050565b600080604083850312156127b257600080fd5b60006127c0858286016126e3565b92505060206127d1858286016126e3565b9150509250929050565b6000806000606084860312156127f057600080fd5b60006127fe868287016126e3565b935050602061280f868287016126e3565b925050604061282086828701612761565b9150509250925092565b6000806000806080858703121561284057600080fd5b600061284e878288016126e3565b945050602061285f878288016126e3565b935050604061287087828801612761565b925050606085013567ffffffffffffffff81111561288d57600080fd5b61289987828801612737565b91505092959194509250565b600080604083850312156128b857600080fd5b60006128c6858286016126e3565b92505060206128d7858286016126f8565b9150509250929050565b600080604083850312156128f457600080fd5b6000612902858286016126e3565b925050602061291385828601612761565b9150509250929050565b60006020828403121561292f57600080fd5b600061293d8482850161270d565b91505092915050565b60006020828403121561295857600080fd5b600061296684828501612722565b91505092915050565b60006020828403121561298157600080fd5b600061298f84828501612761565b91505092915050565b60006129a483836129b0565b60208301905092915050565b6129b9816133ad565b82525050565b6129c8816133ad565b82525050565b60006129d982613286565b6129e381856132b4565b93506129ee83613276565b8060005b83811015612a1f578151612a068882612998565b9750612a11836132a7565b9250506001810190506129f2565b5085935050505092915050565b612a35816133bf565b82525050565b6000612a4682613291565b612a5081856132c5565b9350612a6081856020860161343d565b612a6981613633565b840191505092915050565b6000612a7f8261329c565b612a8981856132d6565b9350612a9981856020860161343d565b612aa281613633565b840191505092915050565b6000612ab88261329c565b612ac281856132e7565b9350612ad281856020860161343d565b80840191505092915050565b6000612aeb600a836132d6565b9150612af682613644565b602082019050919050565b6000612b0e6032836132d6565b9150612b198261366d565b604082019050919050565b6000612b316026836132d6565b9150612b3c826136bc565b604082019050919050565b6000612b54601c836132d6565b9150612b5f8261370b565b602082019050919050565b6000612b77600c836132d6565b9150612b8282613734565b602082019050919050565b6000612b9a6024836132d6565b9150612ba58261375d565b604082019050919050565b6000612bbd6019836132d6565b9150612bc8826137ac565b602082019050919050565b6000612be0602c836132d6565b9150612beb826137d5565b604082019050919050565b6000612c036016836132d6565b9150612c0e82613824565b602082019050919050565b6000612c266038836132d6565b9150612c318261384d565b604082019050919050565b6000612c49602a836132d6565b9150612c548261389c565b604082019050919050565b6000612c6c6029836132d6565b9150612c77826138eb565b604082019050919050565b6000612c8f6020836132d6565b9150612c9a8261393a565b602082019050919050565b6000612cb26010836132d6565b9150612cbd82613963565b602082019050919050565b6000612cd5602c836132d6565b9150612ce08261398c565b604082019050919050565b6000612cf86020836132d6565b9150612d03826139db565b602082019050919050565b6000612d1b6029836132d6565b9150612d2682613a04565b604082019050919050565b6000612d3e602f836132d6565b9150612d4982613a53565b604082019050919050565b6000612d616021836132d6565b9150612d6c82613aa2565b604082019050919050565b6000612d846017836132d6565b9150612d8f82613af1565b602082019050919050565b6000612da76009836132d6565b9150612db282613b1a565b602082019050919050565b6000612dca6031836132d6565b9150612dd582613b43565b604082019050919050565b6000612ded6011836132d6565b9150612df882613b92565b602082019050919050565b612e0c81613417565b82525050565b6000612e1e8285612aad565b9150612e2a8284612aad565b91508190509392505050565b6000602082019050612e4b60008301846129bf565b92915050565b6000608082019050612e6660008301876129bf565b612e7360208301866129bf565b612e806040830185612e03565b8181036060830152612e928184612a3b565b905095945050505050565b6000604082019050612eb260008301856129bf565b612ebf6020830184612e03565b9392505050565b60006020820190508181036000830152612ee081846129ce565b905092915050565b6000602082019050612efd6000830184612a2c565b92915050565b60006020820190508181036000830152612f1d8184612a74565b905092915050565b60006020820190508181036000830152612f3e81612ade565b9050919050565b60006020820190508181036000830152612f5e81612b01565b9050919050565b60006020820190508181036000830152612f7e81612b24565b9050919050565b60006020820190508181036000830152612f9e81612b47565b9050919050565b60006020820190508181036000830152612fbe81612b6a565b9050919050565b60006020820190508181036000830152612fde81612b8d565b9050919050565b60006020820190508181036000830152612ffe81612bb0565b9050919050565b6000602082019050818103600083015261301e81612bd3565b9050919050565b6000602082019050818103600083015261303e81612bf6565b9050919050565b6000602082019050818103600083015261305e81612c19565b9050919050565b6000602082019050818103600083015261307e81612c3c565b9050919050565b6000602082019050818103600083015261309e81612c5f565b9050919050565b600060208201905081810360008301526130be81612c82565b9050919050565b600060208201905081810360008301526130de81612ca5565b9050919050565b600060208201905081810360008301526130fe81612cc8565b9050919050565b6000602082019050818103600083015261311e81612ceb565b9050919050565b6000602082019050818103600083015261313e81612d0e565b9050919050565b6000602082019050818103600083015261315e81612d31565b9050919050565b6000602082019050818103600083015261317e81612d54565b9050919050565b6000602082019050818103600083015261319e81612d77565b9050919050565b600060208201905081810360008301526131be81612d9a565b9050919050565b600060208201905081810360008301526131de81612dbd565b9050919050565b600060208201905081810360008301526131fe81612de0565b9050919050565b600060208201905061321a6000830184612e03565b92915050565b600061322a61323b565b905061323682826134a2565b919050565b6000604051905090565b600067ffffffffffffffff8211156132605761325f613604565b5b61326982613633565b9050602081019050919050565b6000819050602082019050919050565b600081519050919050565b600081519050919050565b600081519050919050565b6000602082019050919050565b600082825260208201905092915050565b600082825260208201905092915050565b600082825260208201905092915050565b600081905092915050565b60006132fd82613417565b915061330883613417565b9250827fffffffffffffffffffffffffffffffffffffffffffffffffffffffffffffffff0382111561333d5761333c613577565b5b828201905092915050565b600061335382613417565b915061335e83613417565b92508261336e5761336d6135a6565b5b828204905092915050565b600061338482613417565b915061338f83613417565b9250828210156133a2576133a1613577565b5b828203905092915050565b60006133b8826133f7565b9050919050565b60008115159050919050565b60007fffffffff0000000000000000000000000000000000000000000000000000000082169050919050565b600073ffffffffffffffffffffffffffffffffffffffff82169050919050565b6000819050919050565b600060ff82169050919050565b82818337600083830152505050565b60005b8381101561345b578082015181840152602081019050613440565b8381111561346a576000848401525b50505050565b6000600282049050600182168061348857607f821691505b6020821081141561349c5761349b6135d5565b5b50919050565b6134ab82613633565b810181811067ffffffffffffffff821117156134ca576134c9613604565b5b80604052505050565b60006134de82613417565b91507fffffffffffffffffffffffffffffffffffffffffffffffffffffffffffffffff82141561351157613510613577565b5b600182019050919050565b600061352782613421565b915060ff82141561353b5761353a613577565b5b600182019050919050565b600061355182613417565b915061355c83613417565b92508261356c5761356b6135a6565b5b828206905092915050565b7f4e487b7100000000000000000000000000000000000000000000000000000000600052601160045260246000fd5b7f4e487b7100000000000000000000000000000000000000000000000000000000600052601260045260246000fd5b7f4e487b7100000000000000000000000000000000000000000000000000000000600052602260045260246000fd5b7f4e487b7100000000000000000000000000000000000000000000000000000000600052604160045260246000fd5b6000601f19601f8301169050919050565b7f4e6f2042616c6c6f747300000000000000000000000000000000000000000000600082015250565b7f4552433732313a207472616e7366657220746f206e6f6e20455243373231526560008201527f63656976657220696d706c656d656e7465720000000000000000000000000000602082015250565b7f4f776e61626c653a206e6577206f776e657220697320746865207a65726f206160008201527f6464726573730000000000000000000000000000000000000000000000000000602082015250565b7f4552433732313a20746f6b656e20616c7265616479206d696e74656400000000600082015250565b7f42616c6c6f7420466f756e640000000000000000000000000000000000000000600082015250565b7f4552433732313a207472616e7366657220746f20746865207a65726f2061646460008201527f7265737300000000000000000000000000000000000000000000000000000000602082015250565b7f4552433732313a20617070726f766520746f2063616c6c657200000000000000600082015250565b7f4552433732313a206f70657261746f7220717565727920666f72206e6f6e657860008201527f697374656e7420746f6b656e0000000000000000000000000000000000000000602082015250565b7f43616e646964617465732043616e6e6f7420566f746500000000000000000000600082015250565b7f4552433732313a20617070726f76652063616c6c6572206973206e6f74206f7760008201527f6e6572206e6f7220617070726f76656420666f7220616c6c0000000000000000602082015250565b7f4552433732313a2062616c616e636520717565727920666f7220746865207a6560008201527f726f206164647265737300000000000000000000000000000000000000000000602082015250565b7f4552433732313a206f776e657220717565727920666f72206e6f6e657869737460008201527f656e7420746f6b656e0000000000000000000000000000000000000000000000602082015250565b7f4552433732313a206d696e7420746f20746865207a65726f2061646472657373600082015250565b7f43616e6469646174652045786973747300000000000000000000000000000000600082015250565b7f4552433732313a20617070726f76656420717565727920666f72206e6f6e657860008201527f697374656e7420746f6b656e0000000000000000000000000000000000000000602082015250565b7f4f776e61626c653a2063616c6c6572206973206e6f7420746865206f776e6572600082015250565b7f4552433732313a207472616e73666572206f6620746f6b656e2074686174206960008201527f73206e6f74206f776e0000000000000000000000000000000000000000000000602082015250565b7f4552433732314d657461646174613a2055524920717565727920666f72206e6f60008201527f6e6578697374656e7420746f6b656e0000000000000000000000000000000000602082015250565b7f4552433732313a20617070726f76616c20746f2063757272656e74206f776e6560008201527f7200000000000000000000000000000000000000000000000000000000000000602082015250565b7f43616e64696461746520446f65736e2774204578697374000000000000000000600082015250565b7f436f6e636c756465640000000000000000000000000000000000000000000000600082015250565b7f4552433732313a207472616e736665722063616c6c6572206973206e6f74206f60008201527f776e6572206e6f7220617070726f766564000000000000000000000000000000602082015250565b7f496e76616c69642043616e646964617465000000000000000000000000000000600082015250565b613bc4816133ad565b8114613bcf57600080fd5b50565b613bdb816133bf565b8114613be657600080fd5b50565b613bf2816133cb565b8114613bfd57600080fd5b50565b613c0981613417565b8114613c1457600080fd5b5056fea264697066735822122054c1cd124239078a8578950295c45567e3ee9e452953518577d67fdfd1ff6d1164736f6c63430008030033",
  "linkReferences": {},
  "deployedLinkReferences": {}
}