{
  "_format": "hh-sol-artifact-1",
  "contractName": "NFTVoting",
  "sourceName": "contracts/Voting.sol",
  "abi": [
    {
      "inputs": [],
      "stateMutability": "nonpayable",
      "type": "constructor"
    },
    {
      "anonymous": false,
      "inputs": [
        {
          "indexed": true,
          "internalType": "address",
          "name": "owner",
          "type": "address"
        },
        {
          "indexed": true,
          "internalType": "address",
          "name": "approved",
          "type": "address"
        },
        {
          "indexed": true,
          "internalType": "uint256",
          "name": "tokenId",
          "type": "uint256"
        }
      ],
      "name": "Approval",
      "type": "event"
    },
    {
      "anonymous": false,
      "inputs": [
        {
          "indexed": true,
          "internalType": "address",
          "name": "owner",
          "type": "address"
        },
        {
          "indexed": true,
          "internalType": "address",
          "name": "operator",
          "type": "address"
        },
        {
          "indexed": false,
          "internalType": "bool",
          "name": "approved",
          "type": "bool"
        }
      ],
      "name": "ApprovalForAll",
      "type": "event"
    },
    {
      "anonymous": false,
      "inputs": [
        {
          "indexed": true,
          "internalType": "address",
          "name": "previousOwner",
          "type": "address"
        },
        {
          "indexed": true,
          "internalType": "address",
          "name": "newOwner",
          "type": "address"
        }
      ],
      "name": "OwnershipTransferred",
      "type": "event"
    },
    {
      "anonymous": false,
      "inputs": [
        {
          "indexed": true,
          "internalType": "address",
          "name": "from",
          "type": "address"
        },
        {
          "indexed": true,
          "internalType": "address",
          "name": "to",
          "type": "address"
        },
        {
          "indexed": true,
          "internalType": "uint256",
          "name": "tokenId",
          "type": "uint256"
        }
      ],
      "name": "Transfer",
      "type": "event"
    },
    {
      "anonymous": false,
      "inputs": [
        {
          "indexed": false,
          "internalType": "address",
          "name": "x",
          "type": "address"
        },
        {
          "indexed": false,
          "internalType": "uint256",
          "name": "y",
          "type": "uint256"
        }
      ],
      "name": "concluded",
      "type": "event"
    },
    {
      "inputs": [],
      "name": "active",
      "outputs": [
        {
          "internalType": "bool",
          "name": "",
          "type": "bool"
        }
      ],
      "stateMutability": "view",
      "type": "function"
    },
    {
      "inputs": [
        {
          "internalType": "address",
          "name": "_candidate",
          "type": "address"
        }
      ],
      "name": "addCandidates",
      "outputs": [],
      "stateMutability": "nonpayable",
      "type": "function"
    },
    {
      "inputs": [
        {
          "internalType": "address",
          "name": "to",
          "type": "address"
        },
        {
          "internalType": "uint256",
          "name": "tokenId",
          "type": "uint256"
        }
      ],
      "name": "approve",
      "outputs": [],
      "stateMutability": "nonpayable",
      "type": "function"
    },
    {
      "inputs": [
        {
          "internalType": "address",
          "name": "owner",
          "type": "address"
        }
      ],
      "name": "balanceOf",
      "outputs": [
        {
          "internalType": "uint256",
          "name": "",
          "type": "uint256"
        }
      ],
      "stateMutability": "view",
      "type": "function"
    },
    {
      "inputs": [
        {
          "internalType": "uint256",
          "name": "",
          "type": "uint256"
        }
      ],
      "name": "candidates",
      "outputs": [
        {
          "internalType": "address",
          "name": "",
          "type": "address"
        }
      ],
      "stateMutability": "view",
      "type": "function"
    },
    {
      "inputs": [],
      "name": "conclude",
      "outputs": [],
      "stateMutability": "nonpayable",
      "type": "function"
    },
    {
      "inputs": [
        {
          "internalType": "uint256",
          "name": "tokenId",
          "type": "uint256"
        }
      ],
      "name": "getApproved",
      "outputs": [
        {
          "internalType": "address",
          "name": "",
          "type": "address"
        }
      ],
      "stateMutability": "view",
      "type": "function"
    },
    {
      "inputs": [],
      "name": "highestVotes",
      "outputs": [
        {
          "internalType": "address",
          "name": "",
          "type": "address"
        },
        {
          "internalType": "uint256",
          "name": "",
          "type": "uint256"
        }
      ],
      "stateMutability": "view",
      "type": "function"
    },
    {
      "inputs": [
        {
          "internalType": "address",
          "name": "owner",
          "type": "address"
        },
        {
          "internalType": "address",
          "name": "operator",
          "type": "address"
        }
      ],
      "name": "isApprovedForAll",
      "outputs": [
        {
          "internalType": "bool",
          "name": "",
          "type": "bool"
        }
      ],
      "stateMutability": "view",
      "type": "function"
    },
    {
      "inputs": [],
      "name": "name",
      "outputs": [
        {
          "internalType": "string",
          "name": "",
          "type": "string"
        }
      ],
      "stateMutability": "view",
      "type": "function"
    },
    {
      "inputs": [],
      "name": "owner",
      "outputs": [
        {
          "internalType": "address",
          "name": "",
          "type": "address"
        }
      ],
      "stateMutability": "view",
      "type": "function"
    },
    {
      "inputs": [
        {
          "internalType": "uint256",
          "name": "tokenId",
          "type": "uint256"
        }
      ],
      "name": "ownerOf",
      "outputs": [
        {
          "internalType": "address",
          "name": "",
          "type": "address"
        }
      ],
      "stateMutability": "view",
      "type": "function"
    },
    {
      "inputs": [],
      "name": "renounceOwnership",
      "outputs": [],
      "stateMutability": "nonpayable",
      "type": "function"
    },
    {
      "inputs": [
        {
          "internalType": "address",
          "name": "to",
          "type": "address"
        }
      ],
      "name": "safeMint",
      "outputs": [],
      "stateMutability": "nonpayable",
      "type": "function"
    },
    {
      "inputs": [
        {
          "internalType": "address",
          "name": "from",
          "type": "address"
        },
        {
          "internalType": "address",
          "name": "to",
          "type": "address"
        },
        {
          "internalType": "uint256",
          "name": "tokenId",
          "type": "uint256"
        }
      ],
      "name": "safeTransferFrom",
      "outputs": [],
      "stateMutability": "nonpayable",
      "type": "function"
    },
    {
      "inputs": [
        {
          "internalType": "address",
          "name": "from",
          "type": "address"
        },
        {
          "internalType": "address",
          "name": "to",
          "type": "address"
        },
        {
          "internalType": "uint256",
          "name": "tokenId",
          "type": "uint256"
        },
        {
          "internalType": "bytes",
          "name": "_data",
          "type": "bytes"
        }
      ],
      "name": "safeTransferFrom",
      "outputs": [],
      "stateMutability": "nonpayable",
      "type": "function"
    },
    {
      "inputs": [
        {
          "internalType": "address",
          "name": "operator",
          "type": "address"
        },
        {
          "internalType": "bool",
          "name": "approved",
          "type": "bool"
        }
      ],
      "name": "setApprovalForAll",
      "outputs": [],
      "stateMutability": "nonpayable",
      "type": "function"
    },
    {
      "inputs": [
        {
          "internalType": "bytes4",
          "name": "interfaceId",
          "type": "bytes4"
        }
      ],
      "name": "supportsInterface",
      "outputs": [
        {
          "internalType": "bool",
          "name": "",
          "type": "bool"
        }
      ],
      "stateMutability": "view",
      "type": "function"
    },
    {
      "inputs": [],
      "name": "symbol",
      "outputs": [
        {
          "internalType": "string",
          "name": "",
          "type": "string"
        }
      ],
      "stateMutability": "view",
      "type": "function"
    },
    {
      "inputs": [
        {
          "internalType": "uint256",
          "name": "tokenId",
          "type": "uint256"
        }
      ],
      "name": "tokenURI",
      "outputs": [
        {
          "internalType": "string",
          "name": "",
          "type": "string"
        }
      ],
      "stateMutability": "view",
      "type": "function"
    },
    {
      "inputs": [],
      "name": "total",
      "outputs": [
        {
          "internalType": "uint256",
          "name": "",
          "type": "uint256"
        }
      ],
      "stateMutability": "view",
      "type": "function"
    },
    {
      "inputs": [
        {
          "internalType": "address",
          "name": "from",
          "type": "address"
        },
        {
          "internalType": "address",
          "name": "to",
          "type": "address"
        },
        {
          "internalType": "uint256",
          "name": "tokenId",
          "type": "uint256"
        }
      ],
      "name": "transferFrom",
      "outputs": [],
      "stateMutability": "nonpayable",
      "type": "function"
    },
    {
      "inputs": [
        {
          "internalType": "address",
          "name": "newOwner",
          "type": "address"
        }
      ],
      "name": "transferOwnership",
      "outputs": [],
      "stateMutability": "nonpayable",
      "type": "function"
    },
    {
      "inputs": [
        {
          "internalType": "address",
          "name": "_candidateAddress",
          "type": "address"
        }
      ],
      "name": "vote",
      "outputs": [],
      "stateMutability": "nonpayable",
      "type": "function"
    },
    {
      "inputs": [
        {
          "internalType": "address",
          "name": "_candidateAddress",
          "type": "address"
        }
      ],
      "name": "votesForCandidate",
      "outputs": [
        {
          "internalType": "uint256",
          "name": "",
          "type": "uint256"
        }
      ],
      "stateMutability": "view",
      "type": "function"
    },
    {
      "inputs": [],
      "name": "winner",
      "outputs": [
        {
          "internalType": "address",
          "name": "",
          "type": "address"
        }
      ],
      "stateMutability": "view",
      "type": "function"
    }
  ],
  "bytecode": "0x60806040526001600960006101000a81548160ff0219169083151502179055503480156200002c57600080fd5b506040518060400160405280600681526020017f42616c6c6f7400000000000000000000000000000000000000000000000000008152506040518060400160405280600381526020017f42414c00000000000000000000000000000000000000000000000000000000008152508160009080519060200190620000b1929190620001c1565b508060019080519060200190620000ca929190620001c1565b505050620000ed620000e1620000f360201b60201c565b620000fb60201b60201c565b620002d6565b600033905090565b6000600660009054906101000a900473ffffffffffffffffffffffffffffffffffffffff16905081600660006101000a81548173ffffffffffffffffffffffffffffffffffffffff021916908373ffffffffffffffffffffffffffffffffffffffff1602179055508173ffffffffffffffffffffffffffffffffffffffff168173ffffffffffffffffffffffffffffffffffffffff167f8be0079c531659141344cd1fd0a4f28419497f9722a3daafe3b4186f6b6457e060405160405180910390a35050565b828054620001cf9062000271565b90600052602060002090601f016020900481019282620001f357600085556200023f565b82601f106200020e57805160ff19168380011785556200023f565b828001600101855582156200023f579182015b828111156200023e57825182559160200191906001019062000221565b5b5090506200024e919062000252565b5090565b5b808211156200026d57600081600090555060010162000253565b5090565b600060028204905060018216806200028a57607f821691505b60208210811415620002a157620002a0620002a7565b5b50919050565b7f4e487b7100000000000000000000000000000000000000000000000000000000600052602260045260246000fd5b6139b280620002e66000396000f3fe608060405234801561001057600080fd5b506004361061018e5760003560e01c80636456cb0a116100de578063a22cb46511610097578063dfbf53ae11610071578063dfbf53ae14610482578063e5f92973146104a0578063e985e9c5146104aa578063f2fde38b146104da5761018e565b8063a22cb4651461041a578063b88d4fde14610436578063c87b56dd146104525761018e565b80636456cb0a146103695780636dd7d8ea1461038857806370a08231146103a4578063715018a6146103d45780638da5cb5b146103de57806395d89b41146103fc5761018e565b806323b872dd1161014b5780633bc56534116101255780633bc56534146102d157806340d097c31461030157806342842e0e1461031d5780636352211e146103395761018e565b806323b872dd146102675780632ddbd13a146102835780633477ee2e146102a15761018e565b806301ffc9a71461019357806302fb0c5e146101c357806306fdde03146101e1578063081812fc146101ff57806308e49a881461022f578063095ea7b31461024b575b600080fd5b6101ad60048036038101906101a89190612762565b6104f6565b6040516101ba9190612c86565b60405180910390f35b6101cb6105d8565b6040516101d89190612c86565b60405180910390f35b6101e96105eb565b6040516101f69190612ca1565b60405180910390f35b610219600480360381019061021491906127b4565b61067d565b6040516102269190612bf6565b60405180910390f35b610249600480360381019061024491906125bb565b610702565b005b61026560048036038101906102609190612726565b610833565b005b610281600480360381019061027c9190612620565b61094b565b005b61028b6109ab565b6040516102989190612fa3565b60405180910390f35b6102bb60048036038101906102b691906127b4565b6109b1565b6040516102c89190612bf6565b60405180910390f35b6102eb60048036038101906102e691906125bb565b6109f0565b6040516102f89190612fa3565b60405180910390f35b61031b600480360381019061031691906125bb565b610a51565b005b61033760048036038101906103329190612620565b610b89565b005b610353600480360381019061034e91906127b4565b610ba9565b6040516103609190612bf6565b60405180910390f35b610371610c5b565b60405161037f929190612c5d565b60405180910390f35b6103a2600480360381019061039d91906125bb565b610ece565b005b6103be60048036038101906103b991906125bb565b611060565b6040516103cb9190612fa3565b60405180910390f35b6103dc611118565b005b6103e66111a0565b6040516103f39190612bf6565b60405180910390f35b6104046111ca565b6040516104119190612ca1565b60405180910390f35b610434600480360381019061042f91906126ea565b61125c565b005b610450600480360381019061044b919061266f565b6113dd565b005b61046c600480360381019061046791906127b4565b61143f565b6040516104799190612ca1565b60405180910390f35b61048a6114e6565b6040516104979190612bf6565b60405180910390f35b6104a861150c565b005b6104c460048036038101906104bf91906125e4565b6116ac565b6040516104d19190612c86565b60405180910390f35b6104f460048036038101906104ef91906125bb565b611740565b005b60007f80ac58cd000000000000000000000000000000000000000000000000000000007bffffffffffffffffffffffffffffffffffffffffffffffffffffffff1916827bffffffffffffffffffffffffffffffffffffffffffffffffffffffff191614806105c157507f5b5e139f000000000000000000000000000000000000000000000000000000007bffffffffffffffffffffffffffffffffffffffffffffffffffffffff1916827bffffffffffffffffffffffffffffffffffffffffffffffffffffffff1916145b806105d157506105d082611838565b5b9050919050565b600960009054906101000a900460ff1681565b6060600080546105fa906131d5565b80601f0160208091040260200160405190810160405280929190818152602001828054610626906131d5565b80156106735780601f1061064857610100808354040283529160200191610673565b820191906000526020600020905b81548152906001019060200180831161065657829003601f168201915b5050505050905090565b6000610688826118a2565b6106c7576040517f08c379a00000000000000000000000000000000000000000000000000000000081526004016106be90612e83565b60405180910390fd5b6004600083815260200190815260200160002060009054906101000a900473ffffffffffffffffffffffffffffffffffffffff169050919050565b61070a61190e565b73ffffffffffffffffffffffffffffffffffffffff166107286111a0565b73ffffffffffffffffffffffffffffffffffffffff161461077e576040517f08c379a000000000000000000000000000000000000000000000000000000000815260040161077590612ea3565b60405180910390fd5b6000151561078b82611916565b1515146107cd576040517f08c379a00000000000000000000000000000000000000000000000000000000081526004016107c490612e63565b60405180910390fd5b600b819080600181540180825580915050600190039060005260206000200160009091909190916101000a81548173ffffffffffffffffffffffffffffffffffffffff021916908373ffffffffffffffffffffffffffffffffffffffff16021790555050565b600061083e82610ba9565b90508073ffffffffffffffffffffffffffffffffffffffff168373ffffffffffffffffffffffffffffffffffffffff1614156108af576040517f08c379a00000000000000000000000000000000000000000000000000000000081526004016108a690612f03565b60405180910390fd5b8073ffffffffffffffffffffffffffffffffffffffff166108ce61190e565b73ffffffffffffffffffffffffffffffffffffffff1614806108fd57506108fc816108f761190e565b6116ac565b5b61093c576040517f08c379a000000000000000000000000000000000000000000000000000000000815260040161093390612de3565b60405180910390fd5b61094683836119f7565b505050565b61095c61095661190e565b82611ab0565b61099b576040517f08c379a000000000000000000000000000000000000000000000000000000000815260040161099290612f63565b60405180910390fd5b6109a6838383611b8e565b505050565b60085481565b600b81815481106109c157600080fd5b906000526020600020016000915054906101000a900473ffffffffffffffffffffffffffffffffffffffff1681565b6000600115156109ff83611916565b151514610a41576040517f08c379a0000000000000000000000000000000000000000000000000000000008152600401610a3890612f23565b60405180910390fd5b610a4a82611060565b9050919050565b610a5961190e565b73ffffffffffffffffffffffffffffffffffffffff16610a776111a0565b73ffffffffffffffffffffffffffffffffffffffff1614610acd576040517f08c379a0000000000000000000000000000000000000000000000000000000008152600401610ac490612ea3565b60405180910390fd5b6000610ad882611060565b14610b18576040517f08c379a0000000000000000000000000000000000000000000000000000000008152600401610b0f90612d43565b60405180910390fd5b6000610b246007611dea565b9050610b308282611df8565b80600a60008473ffffffffffffffffffffffffffffffffffffffff1673ffffffffffffffffffffffffffffffffffffffff16815260200190815260200160002081905550610b7e6007611e16565b806008819055505050565b610ba4838383604051806020016040528060008152506113dd565b505050565b6000806002600084815260200190815260200160002060009054906101000a900473ffffffffffffffffffffffffffffffffffffffff169050600073ffffffffffffffffffffffffffffffffffffffff168173ffffffffffffffffffffffffffffffffffffffff161415610c52576040517f08c379a0000000000000000000000000000000000000000000000000000000008152600401610c4990612e23565b60405180910390fd5b80915050919050565b6000806000600b8054905090506000610cd8600b600081548110610ca8577f4e487b7100000000000000000000000000000000000000000000000000000000600052603260045260246000fd5b9060005260206000200160009054906101000a900473ffffffffffffffffffffffffffffffffffffffff16611060565b9050600080600190505b8360ff168160ff161015610d87576000610d62600b8360ff1681548110610d32577f4e487b7100000000000000000000000000000000000000000000000000000000600052603260045260246000fd5b9060005260206000200160009054906101000a900473ffffffffffffffffffffffffffffffffffffffff16611060565b905083811115610d73578192508093505b508080610d7f90613281565b915050610ce2565b506000805b8460ff168160ff161015610e57576000610e0c600b8360ff1681548110610ddc577f4e487b7100000000000000000000000000000000000000000000000000000000600052603260045260246000fd5b9060005260206000200160009054906101000a900473ffffffffffffffffffffffffffffffffffffffff16611060565b905084811415610e25578280610e2190613281565b9350505b60018360ff161115610e435760008597509750505050505050610eca565b508080610e4f90613281565b915050610d8c565b50600b8260ff1681548110610e95577f4e487b7100000000000000000000000000000000000000000000000000000000600052603260045260246000fd5b9060005260206000200160009054906101000a900473ffffffffffffffffffffffffffffffffffffffff168395509550505050505b9091565b60011515600960009054906101000a900460ff16151514610f24576040517f08c379a0000000000000000000000000000000000000000000000000000000008152600401610f1b90612f43565b60405180910390fd5b6000610f2f33611060565b11610f6f576040517f08c379a0000000000000000000000000000000000000000000000000000000008152600401610f6690612cc3565b60405180910390fd5b60011515610f7c82611916565b151514610fbe576040517f08c379a0000000000000000000000000000000000000000000000000000000008152600401610fb590612f83565b60405180910390fd5b60001515610fcb33611916565b15151461100d576040517f08c379a000000000000000000000000000000000000000000000000000000000815260040161100490612dc3565b60405180910390fd5b6000600a60003373ffffffffffffffffffffffffffffffffffffffff1673ffffffffffffffffffffffffffffffffffffffff16815260200190815260200160002054905061105c338383610b89565b5050565b60008073ffffffffffffffffffffffffffffffffffffffff168273ffffffffffffffffffffffffffffffffffffffff1614156110d1576040517f08c379a00000000000000000000000000000000000000000000000000000000081526004016110c890612e03565b60405180910390fd5b600360008373ffffffffffffffffffffffffffffffffffffffff1673ffffffffffffffffffffffffffffffffffffffff168152602001908152602001600020549050919050565b61112061190e565b73ffffffffffffffffffffffffffffffffffffffff1661113e6111a0565b73ffffffffffffffffffffffffffffffffffffffff1614611194576040517f08c379a000000000000000000000000000000000000000000000000000000000815260040161118b90612ea3565b60405180910390fd5b61119e6000611e2c565b565b6000600660009054906101000a900473ffffffffffffffffffffffffffffffffffffffff16905090565b6060600180546111d9906131d5565b80601f0160208091040260200160405190810160405280929190818152602001828054611205906131d5565b80156112525780601f1061122757610100808354040283529160200191611252565b820191906000526020600020905b81548152906001019060200180831161123557829003601f168201915b5050505050905090565b61126461190e565b73ffffffffffffffffffffffffffffffffffffffff168273ffffffffffffffffffffffffffffffffffffffff1614156112d2576040517f08c379a00000000000000000000000000000000000000000000000000000000081526004016112c990612d83565b60405180910390fd5b80600560006112df61190e565b73ffffffffffffffffffffffffffffffffffffffff1673ffffffffffffffffffffffffffffffffffffffff16815260200190815260200160002060008473ffffffffffffffffffffffffffffffffffffffff1673ffffffffffffffffffffffffffffffffffffffff16815260200190815260200160002060006101000a81548160ff0219169083151502179055508173ffffffffffffffffffffffffffffffffffffffff1661138c61190e565b73ffffffffffffffffffffffffffffffffffffffff167f17307eab39ab6107e8899845ad3d59bd9653f200f220920489ca2b5937696c31836040516113d19190612c86565b60405180910390a35050565b6113ee6113e861190e565b83611ab0565b61142d576040517f08c379a000000000000000000000000000000000000000000000000000000000815260040161142490612f63565b60405180910390fd5b61143984848484611ef2565b50505050565b606061144a826118a2565b611489576040517f08c379a000000000000000000000000000000000000000000000000000000000815260040161148090612ee3565b60405180910390fd5b6000611493611f4e565b905060008151116114b357604051806020016040528060008152506114de565b806114bd84611f65565b6040516020016114ce929190612bd2565b6040516020818303038152906040525b915050919050565b600c60009054906101000a900473ffffffffffffffffffffffffffffffffffffffff1681565b61151461190e565b73ffffffffffffffffffffffffffffffffffffffff166115326111a0565b73ffffffffffffffffffffffffffffffffffffffff1614611588576040517f08c379a000000000000000000000000000000000000000000000000000000000815260040161157f90612ea3565b60405180910390fd5b6001600960006101000a81548160ff02191690831515021790556115e1576040517f08c379a00000000000000000000000000000000000000000000000000000000081526004016115d890612f43565b60405180910390fd5b6000600960006101000a81548160ff0219169083151502179055506000611606610c5b565b600c60008294508391906101000a81548173ffffffffffffffffffffffffffffffffffffffff021916908373ffffffffffffffffffffffffffffffffffffffff16021790555050507ff264144310cc722e9c5878f1409aaa6a459e675ca4726380887865e00d34d2fa600c60009054906101000a900473ffffffffffffffffffffffffffffffffffffffff16826040516116a1929190612c5d565b60405180910390a150565b6000600560008473ffffffffffffffffffffffffffffffffffffffff1673ffffffffffffffffffffffffffffffffffffffff16815260200190815260200160002060008373ffffffffffffffffffffffffffffffffffffffff1673ffffffffffffffffffffffffffffffffffffffff16815260200190815260200160002060009054906101000a900460ff16905092915050565b61174861190e565b73ffffffffffffffffffffffffffffffffffffffff166117666111a0565b73ffffffffffffffffffffffffffffffffffffffff16146117bc576040517f08c379a00000000000000000000000000000000000000000000000000000000081526004016117b390612ea3565b60405180910390fd5b600073ffffffffffffffffffffffffffffffffffffffff168173ffffffffffffffffffffffffffffffffffffffff16141561182c576040517f08c379a000000000000000000000000000000000000000000000000000000000815260040161182390612d03565b60405180910390fd5b61183581611e2c565b50565b60007f01ffc9a7000000000000000000000000000000000000000000000000000000007bffffffffffffffffffffffffffffffffffffffffffffffffffffffff1916827bffffffffffffffffffffffffffffffffffffffffffffffffffffffff1916149050919050565b60008073ffffffffffffffffffffffffffffffffffffffff166002600084815260200190815260200160002060009054906101000a900473ffffffffffffffffffffffffffffffffffffffff1673ffffffffffffffffffffffffffffffffffffffff1614159050919050565b600033905090565b600080600b80549050905060005b8160ff168160ff1610156119eb57600b8160ff168154811061196f577f4e487b7100000000000000000000000000000000000000000000000000000000600052603260045260246000fd5b9060005260206000200160009054906101000a900473ffffffffffffffffffffffffffffffffffffffff1673ffffffffffffffffffffffffffffffffffffffff168473ffffffffffffffffffffffffffffffffffffffff1614156119d8576001925050506119f2565b80806119e390613281565b915050611924565b5060009150505b919050565b816004600083815260200190815260200160002060006101000a81548173ffffffffffffffffffffffffffffffffffffffff021916908373ffffffffffffffffffffffffffffffffffffffff160217905550808273ffffffffffffffffffffffffffffffffffffffff16611a6a83610ba9565b73ffffffffffffffffffffffffffffffffffffffff167f8c5be1e5ebec7d5bd14f71427d1e84f3dd0314c0f7b2291e5b200ac8c7c3b92560405160405180910390a45050565b6000611abb826118a2565b611afa576040517f08c379a0000000000000000000000000000000000000000000000000000000008152600401611af190612da3565b60405180910390fd5b6000611b0583610ba9565b90508073ffffffffffffffffffffffffffffffffffffffff168473ffffffffffffffffffffffffffffffffffffffff161480611b7457508373ffffffffffffffffffffffffffffffffffffffff16611b5c8461067d565b73ffffffffffffffffffffffffffffffffffffffff16145b80611b855750611b8481856116ac565b5b91505092915050565b8273ffffffffffffffffffffffffffffffffffffffff16611bae82610ba9565b73ffffffffffffffffffffffffffffffffffffffff1614611c04576040517f08c379a0000000000000000000000000000000000000000000000000000000008152600401611bfb90612ec3565b60405180910390fd5b600073ffffffffffffffffffffffffffffffffffffffff168273ffffffffffffffffffffffffffffffffffffffff161415611c74576040517f08c379a0000000000000000000000000000000000000000000000000000000008152600401611c6b90612d63565b60405180910390fd5b611c7f838383612112565b611c8a6000826119f7565b6001600360008573ffffffffffffffffffffffffffffffffffffffff1673ffffffffffffffffffffffffffffffffffffffff1681526020019081526020016000206000828254611cda91906130de565b925050819055506001600360008473ffffffffffffffffffffffffffffffffffffffff1673ffffffffffffffffffffffffffffffffffffffff1681526020019081526020016000206000828254611d319190613057565b92505081905550816002600083815260200190815260200160002060006101000a81548173ffffffffffffffffffffffffffffffffffffffff021916908373ffffffffffffffffffffffffffffffffffffffff160217905550808273ffffffffffffffffffffffffffffffffffffffff168473ffffffffffffffffffffffffffffffffffffffff167fddf252ad1be2c89b69c2b068fc378daa952ba7f163c4a11628f55a4df523b3ef60405160405180910390a4505050565b600081600001549050919050565b611e12828260405180602001604052806000815250612117565b5050565b6001816000016000828254019250508190555050565b6000600660009054906101000a900473ffffffffffffffffffffffffffffffffffffffff16905081600660006101000a81548173ffffffffffffffffffffffffffffffffffffffff021916908373ffffffffffffffffffffffffffffffffffffffff1602179055508173ffffffffffffffffffffffffffffffffffffffff168173ffffffffffffffffffffffffffffffffffffffff167f8be0079c531659141344cd1fd0a4f28419497f9722a3daafe3b4186f6b6457e060405160405180910390a35050565b611efd848484611b8e565b611f0984848484612172565b611f48576040517f08c379a0000000000000000000000000000000000000000000000000000000008152600401611f3f90612ce3565b60405180910390fd5b50505050565b606060405180602001604052806000815250905090565b60606000821415611fad576040518060400160405280600181526020017f3000000000000000000000000000000000000000000000000000000000000000815250905061210d565b600082905060005b60008214611fdf578080611fc890613238565b915050600a82611fd891906130ad565b9150611fb5565b60008167ffffffffffffffff811115612021577f4e487b7100000000000000000000000000000000000000000000000000000000600052604160045260246000fd5b6040519080825280601f01601f1916602001820160405280156120535781602001600182028036833780820191505090505b5090505b600085146121065760018261206c91906130de565b9150600a8561207b91906132ab565b60306120879190613057565b60f81b8183815181106120c3577f4e487b7100000000000000000000000000000000000000000000000000000000600052603260045260246000fd5b60200101907effffffffffffffffffffffffffffffffffffffffffffffffffffffffffffff1916908160001a905350600a856120ff91906130ad565b9450612057565b8093505050505b919050565b505050565b6121218383612309565b61212e6000848484612172565b61216d576040517f08c379a000000000000000000000000000000000000000000000000000000000815260040161216490612ce3565b60405180910390fd5b505050565b60006121938473ffffffffffffffffffffffffffffffffffffffff166124d7565b156122fc578373ffffffffffffffffffffffffffffffffffffffff1663150b7a026121bc61190e565b8786866040518563ffffffff1660e01b81526004016121de9493929190612c11565b602060405180830381600087803b1580156121f857600080fd5b505af192505050801561222957506040513d601f19601f82011682018060405250810190612226919061278b565b60015b6122ac573d8060008114612259576040519150601f19603f3d011682016040523d82523d6000602084013e61225e565b606091505b506000815114156122a4576040517f08c379a000000000000000000000000000000000000000000000000000000000815260040161229b90612ce3565b60405180910390fd5b805181602001fd5b63150b7a0260e01b7bffffffffffffffffffffffffffffffffffffffffffffffffffffffff1916817bffffffffffffffffffffffffffffffffffffffffffffffffffffffff191614915050612301565b600190505b949350505050565b600073ffffffffffffffffffffffffffffffffffffffff168273ffffffffffffffffffffffffffffffffffffffff161415612379576040517f08c379a000000000000000000000000000000000000000000000000000000000815260040161237090612e43565b60405180910390fd5b612382816118a2565b156123c2576040517f08c379a00000000000000000000000000000000000000000000000000000000081526004016123b990612d23565b60405180910390fd5b6123ce60008383612112565b6001600360008473ffffffffffffffffffffffffffffffffffffffff1673ffffffffffffffffffffffffffffffffffffffff168152602001908152602001600020600082825461241e9190613057565b92505081905550816002600083815260200190815260200160002060006101000a81548173ffffffffffffffffffffffffffffffffffffffff021916908373ffffffffffffffffffffffffffffffffffffffff160217905550808273ffffffffffffffffffffffffffffffffffffffff16600073ffffffffffffffffffffffffffffffffffffffff167fddf252ad1be2c89b69c2b068fc378daa952ba7f163c4a11628f55a4df523b3ef60405160405180910390a45050565b600080823b905060008111915050919050565b60006124fd6124f884612fe3565b612fbe565b90508281526020810184848401111561251557600080fd5b612520848285613193565b509392505050565b60008135905061253781613920565b92915050565b60008135905061254c81613937565b92915050565b6000813590506125618161394e565b92915050565b6000815190506125768161394e565b92915050565b600082601f83011261258d57600080fd5b813561259d8482602086016124ea565b91505092915050565b6000813590506125b581613965565b92915050565b6000602082840312156125cd57600080fd5b60006125db84828501612528565b91505092915050565b600080604083850312156125f757600080fd5b600061260585828601612528565b925050602061261685828601612528565b9150509250929050565b60008060006060848603121561263557600080fd5b600061264386828701612528565b935050602061265486828701612528565b9250506040612665868287016125a6565b9150509250925092565b6000806000806080858703121561268557600080fd5b600061269387828801612528565b94505060206126a487828801612528565b93505060406126b5878288016125a6565b925050606085013567ffffffffffffffff8111156126d257600080fd5b6126de8782880161257c565b91505092959194509250565b600080604083850312156126fd57600080fd5b600061270b85828601612528565b925050602061271c8582860161253d565b9150509250929050565b6000806040838503121561273957600080fd5b600061274785828601612528565b9250506020612758858286016125a6565b9150509250929050565b60006020828403121561277457600080fd5b600061278284828501612552565b91505092915050565b60006020828403121561279d57600080fd5b60006127ab84828501612567565b91505092915050565b6000602082840312156127c657600080fd5b60006127d4848285016125a6565b91505092915050565b6127e681613112565b82525050565b6127f581613124565b82525050565b600061280682613014565b612810818561302a565b93506128208185602086016131a2565b61282981613398565b840191505092915050565b600061283f8261301f565b612849818561303b565b93506128598185602086016131a2565b61286281613398565b840191505092915050565b60006128788261301f565b612882818561304c565b93506128928185602086016131a2565b80840191505092915050565b60006128ab600a8361303b565b91506128b6826133a9565b602082019050919050565b60006128ce60328361303b565b91506128d9826133d2565b604082019050919050565b60006128f160268361303b565b91506128fc82613421565b604082019050919050565b6000612914601c8361303b565b915061291f82613470565b602082019050919050565b6000612937600c8361303b565b915061294282613499565b602082019050919050565b600061295a60248361303b565b9150612965826134c2565b604082019050919050565b600061297d60198361303b565b915061298882613511565b602082019050919050565b60006129a0602c8361303b565b91506129ab8261353a565b604082019050919050565b60006129c360168361303b565b91506129ce82613589565b602082019050919050565b60006129e660388361303b565b91506129f1826135b2565b604082019050919050565b6000612a09602a8361303b565b9150612a1482613601565b604082019050919050565b6000612a2c60298361303b565b9150612a3782613650565b604082019050919050565b6000612a4f60208361303b565b9150612a5a8261369f565b602082019050919050565b6000612a7260108361303b565b9150612a7d826136c8565b602082019050919050565b6000612a95602c8361303b565b9150612aa0826136f1565b604082019050919050565b6000612ab860208361303b565b9150612ac382613740565b602082019050919050565b6000612adb60298361303b565b9150612ae682613769565b604082019050919050565b6000612afe602f8361303b565b9150612b09826137b8565b604082019050919050565b6000612b2160218361303b565b9150612b2c82613807565b604082019050919050565b6000612b4460178361303b565b9150612b4f82613856565b602082019050919050565b6000612b6760098361303b565b9150612b728261387f565b602082019050919050565b6000612b8a60318361303b565b9150612b95826138a8565b604082019050919050565b6000612bad60118361303b565b9150612bb8826138f7565b602082019050919050565b612bcc8161317c565b82525050565b6000612bde828561286d565b9150612bea828461286d565b91508190509392505050565b6000602082019050612c0b60008301846127dd565b92915050565b6000608082019050612c2660008301876127dd565b612c3360208301866127dd565b612c406040830185612bc3565b8181036060830152612c5281846127fb565b905095945050505050565b6000604082019050612c7260008301856127dd565b612c7f6020830184612bc3565b9392505050565b6000602082019050612c9b60008301846127ec565b92915050565b60006020820190508181036000830152612cbb8184612834565b905092915050565b60006020820190508181036000830152612cdc8161289e565b9050919050565b60006020820190508181036000830152612cfc816128c1565b9050919050565b60006020820190508181036000830152612d1c816128e4565b9050919050565b60006020820190508181036000830152612d3c81612907565b9050919050565b60006020820190508181036000830152612d5c8161292a565b9050919050565b60006020820190508181036000830152612d7c8161294d565b9050919050565b60006020820190508181036000830152612d9c81612970565b9050919050565b60006020820190508181036000830152612dbc81612993565b9050919050565b60006020820190508181036000830152612ddc816129b6565b9050919050565b60006020820190508181036000830152612dfc816129d9565b9050919050565b60006020820190508181036000830152612e1c816129fc565b9050919050565b60006020820190508181036000830152612e3c81612a1f565b9050919050565b60006020820190508181036000830152612e5c81612a42565b9050919050565b60006020820190508181036000830152612e7c81612a65565b9050919050565b60006020820190508181036000830152612e9c81612a88565b9050919050565b60006020820190508181036000830152612ebc81612aab565b9050919050565b60006020820190508181036000830152612edc81612ace565b9050919050565b60006020820190508181036000830152612efc81612af1565b9050919050565b60006020820190508181036000830152612f1c81612b14565b9050919050565b60006020820190508181036000830152612f3c81612b37565b9050919050565b60006020820190508181036000830152612f5c81612b5a565b9050919050565b60006020820190508181036000830152612f7c81612b7d565b9050919050565b60006020820190508181036000830152612f9c81612ba0565b9050919050565b6000602082019050612fb86000830184612bc3565b92915050565b6000612fc8612fd9565b9050612fd48282613207565b919050565b6000604051905090565b600067ffffffffffffffff821115612ffe57612ffd613369565b5b61300782613398565b9050602081019050919050565b600081519050919050565b600081519050919050565b600082825260208201905092915050565b600082825260208201905092915050565b600081905092915050565b60006130628261317c565b915061306d8361317c565b9250827fffffffffffffffffffffffffffffffffffffffffffffffffffffffffffffffff038211156130a2576130a16132dc565b5b828201905092915050565b60006130b88261317c565b91506130c38361317c565b9250826130d3576130d261330b565b5b828204905092915050565b60006130e98261317c565b91506130f48361317c565b925082821015613107576131066132dc565b5b828203905092915050565b600061311d8261315c565b9050919050565b60008115159050919050565b60007fffffffff0000000000000000000000000000000000000000000000000000000082169050919050565b600073ffffffffffffffffffffffffffffffffffffffff82169050919050565b6000819050919050565b600060ff82169050919050565b82818337600083830152505050565b60005b838110156131c05780820151818401526020810190506131a5565b838111156131cf576000848401525b50505050565b600060028204905060018216806131ed57607f821691505b602082108114156132015761320061333a565b5b50919050565b61321082613398565b810181811067ffffffffffffffff8211171561322f5761322e613369565b5b80604052505050565b60006132438261317c565b91507fffffffffffffffffffffffffffffffffffffffffffffffffffffffffffffffff821415613276576132756132dc565b5b600182019050919050565b600061328c82613186565b915060ff8214156132a05761329f6132dc565b5b600182019050919050565b60006132b68261317c565b91506132c18361317c565b9250826132d1576132d061330b565b5b828206905092915050565b7f4e487b7100000000000000000000000000000000000000000000000000000000600052601160045260246000fd5b7f4e487b7100000000000000000000000000000000000000000000000000000000600052601260045260246000fd5b7f4e487b7100000000000000000000000000000000000000000000000000000000600052602260045260246000fd5b7f4e487b7100000000000000000000000000000000000000000000000000000000600052604160045260246000fd5b6000601f19601f8301169050919050565b7f4e6f2042616c6c6f747300000000000000000000000000000000000000000000600082015250565b7f4552433732313a207472616e7366657220746f206e6f6e20455243373231526560008201527f63656976657220696d706c656d656e7465720000000000000000000000000000602082015250565b7f4f776e61626c653a206e6577206f776e657220697320746865207a65726f206160008201527f6464726573730000000000000000000000000000000000000000000000000000602082015250565b7f4552433732313a20746f6b656e20616c7265616479206d696e74656400000000600082015250565b7f42616c6c6f7420466f756e640000000000000000000000000000000000000000600082015250565b7f4552433732313a207472616e7366657220746f20746865207a65726f2061646460008201527f7265737300000000000000000000000000000000000000000000000000000000602082015250565b7f4552433732313a20617070726f766520746f2063616c6c657200000000000000600082015250565b7f4552433732313a206f70657261746f7220717565727920666f72206e6f6e657860008201527f697374656e7420746f6b656e0000000000000000000000000000000000000000602082015250565b7f43616e646964617465732043616e6e6f7420566f746500000000000000000000600082015250565b7f4552433732313a20617070726f76652063616c6c6572206973206e6f74206f7760008201527f6e6572206e6f7220617070726f76656420666f7220616c6c0000000000000000602082015250565b7f4552433732313a2062616c616e636520717565727920666f7220746865207a6560008201527f726f206164647265737300000000000000000000000000000000000000000000602082015250565b7f4552433732313a206f776e657220717565727920666f72206e6f6e657869737460008201527f656e7420746f6b656e0000000000000000000000000000000000000000000000602082015250565b7f4552433732313a206d696e7420746f20746865207a65726f2061646472657373600082015250565b7f43616e6469646174652045786973747300000000000000000000000000000000600082015250565b7f4552433732313a20617070726f76656420717565727920666f72206e6f6e657860008201527f697374656e7420746f6b656e0000000000000000000000000000000000000000602082015250565b7f4f776e61626c653a2063616c6c6572206973206e6f7420746865206f776e6572600082015250565b7f4552433732313a207472616e73666572206f6620746f6b656e2074686174206960008201527f73206e6f74206f776e0000000000000000000000000000000000000000000000602082015250565b7f4552433732314d657461646174613a2055524920717565727920666f72206e6f60008201527f6e6578697374656e7420746f6b656e0000000000000000000000000000000000602082015250565b7f4552433732313a20617070726f76616c20746f2063757272656e74206f776e6560008201527f7200000000000000000000000000000000000000000000000000000000000000602082015250565b7f43616e64696461746520446f65736e2774204578697374000000000000000000600082015250565b7f436f6e636c756465640000000000000000000000000000000000000000000000600082015250565b7f4552433732313a207472616e736665722063616c6c6572206973206e6f74206f60008201527f776e6572206e6f7220617070726f766564000000000000000000000000000000602082015250565b7f496e76616c69642043616e646964617465000000000000000000000000000000600082015250565b61392981613112565b811461393457600080fd5b50565b61394081613124565b811461394b57600080fd5b50565b61395781613130565b811461396257600080fd5b50565b61396e8161317c565b811461397957600080fd5b5056fea2646970667358221220a30f3bab79521cd4657e0d5ad8ba35766575963bf6be2a9ee3cb1f0dcbfe8a5664736f6c63430008030033",
  "linkReferences": {},
  "deployedLinkReferences": {}
}